S01B000072613874325F636F72656D61726B5F6C6C766D2E737265638B
S3150200000020400022B32A000291290002C12A0002DE
S31502000010C12A0002C12A0002C12A0002C12A000224
S31502000020000000000000000000000000C12A0002DB
S31502000030C12A000200000000C12A00026514000263
S31502000040E31D0002171D0002BF1E0002491F000227
S315020000506600000050C3000001000000000002001C
S3150200006075180002000000000000000010400000A9
S31502000070F0B503AF2DE9000F8DB08646B0F9040046
S31502000080CDF82CE00128DEF824B071DB421E0120F7
S315020000900C925E4610FA82FE0023F6464FF0000BE3
S315020000A04FF000084FF000090A4611E000263068BA
S315020000B009F1010940680088C0F30025BAF1FF3F43
S315020000C052EAD292AB440133BEF1010E00D141E0B5
S315020000D00FFA82FABAF1FF3F0BDD002EE6D0304668
S315020000E0446895B26488AC4210D0006868B12FF0BB
S315020000F009C83046002ED9D04468DDB224786C4057
S3150200010004D0006808B12FF009C8002094465EB1F9
S315020001100024324616461268346034460AB12FF07D
S3150200012007C8624620B9C2E7002600286246BED04A
S31502000130D0E9004508F10108002C2D8805EA55256D
S3150200014005F00105BAD02268026062463068206076
S315020001503460B3E7C9EB88000C9B5844B346DDF81C
S315020001602CE0DBB2029301290490039208DA0CE137
S31502000170002002900A46012904900392C0F20581EA
S3150200018001220EF12800099009E005985200002884
S31502000190DDF820B04FF00000186000F0F680002174
S315020001A00023D84600200890069204E0B8F1000F1A
S315020001B0DDE90621E9D0059101314FF0000B4046F9
S315020001C000680BF1010B10B15A45F9D1934607911C
S315020001D04146164601E0134608928A468046BBF11E
S315020001E0000F10DC012EE1DBB8F1000FDED0BBF10F
S315020001F0000F08D1D8F80000013E4FF0000B51461F
S3150200020042466BB9E7E7002E18BFB8F1000F0FD1CF
S31502000210DAF80010ABF1010B40465246002BDAD059
S315020002201A608A4680461346BBF1000FEBDCD9E71B
S31502000230DAF80490D8F804100C93B9F800402006B6
S3150200024023D40A91C4F3C30104F00700012841EA4A
S31502000250011124D0254680BB2220BEF90020BEF91A
S315020002600230222951EA808CBEF83850DEE90510A8
S31502000270CDE900C501F0FEF8DDF82CE00546BEF832
S315020002803E10D1B9AEF83E5017E004F07F020D8859
S31502000290280628D505F07F008242B9D96CE0BEF85F
S315020002A03820099800F05CFDDDF82CE00546BEF822
S315020002B03C10002908BFAEF83C50BEF8381028465C
S315020002C001F051FADDF82CE005F07F0265F3060431
S315020002D00C9B0A99AEF8380044F08000A9F8000099
S315020002E00D882806D6D48946C5F3C30105F0070052
S315020002F00A92012841EA01111AD02C4630BB22206B
S31502000300BEF90020BEF90230222951EA808CBEF8DD
S315020003103840DEE90510CDE900C401F0ABF8DDF89E
S315020003202CE00446BEF83E1081B9AEF83E400DE020
S31502000330BEF83820099800F013FDDDF82CE00446DB
S31502000340BEF83C10002908BFAEF83C40BEF8381093
S31502000350204601F008FADDF82CE064F306050C9B52
S315020003600A9AAEF8380004F07F0045F08001A9F839
S31502000370001082427FF64CAFD8F80000013E51468B
S315020003804246002B7FF44CAF25E7DBF80000039BC7
S31502000390D0E900416268426061601AB20168B2F156
S315020003A0FF3F096801604FF0000020600ADD98B245
S315020003B05D46049A69684988814211D02D6865B103
S315020003C02FF009C05D46049A02996868007888424F
S315020003D006D02D680DB12FF009C0DBF800505DB1D3
S315020003E0DBF8040091B2B0F9000001F01EFA2D68A4
S315020003F002460DB12FF00DC0DBF8000004926168D1
S315020004004FF00109426862604FF0000C41600168DA
S315020004102160046006E0B8F1000F4FEA4909C5F809
S3150200042000C050D04FF0000E00255E464FF0000B84
S3150200043001E0002EEFD0F0460EF1010E0020344608
S315020004402468013014B18145FAD148463146CA467C
S3150200045001E09B461D460A46264600280DDCBAF1F7
S31502000460010FE6DB002EE4D038B93468AAF1010A9E
S315020004700020114633465DB9EBE7BAF1000F18BF0B
S31502000480002E0CD11168013834461346002DE0D0F7
S315020004902B600A4626461D460028EEDCDFE7516839
S315020004A073684C780C705C781C70B3F90230B1F941
S315020004B002109942E6DD3468AAF1010A1146334672
S315020004C0002DE5D1C5E7DBF800408CB10499DBF8D5
S315020004D0040089B2B0F9000001F0A7F924680146C8
S315020004E00CB12FF00DC088B20DB0BDE8000FF0BD03
S315020004F0049988B20DB0BDE8000FF0BDF0B503AFA8
S315020005002DE9000F81B04CF6CD460346CCF6CC461B
S31502000510642BA0FB06066FF0010000EB16150846D9
S3150200052000F1080601EBC50B4FF000010BF10408C0
S31502000530C0E9001BABF8021048F2800120F8351022
S315020005400FD30368066000F11006C0E902380BF10A
S3150200055008084FF6FF73ABF8043047F6FF73ABF8A3
S3150200056006300095B5F1000E28D0FFE70099002568
S315020005700BEB810A04E00135BEF1010E00D11DE04C
S3150200058006F108045C45F6D208F104035345F2D29B
S3150200059085EA020C05F007096CF3C60901683160A9
S315020005A0066049EA092CC6F80480A8F800C047F696
S315020005B0FF71A8F8021098462646DCE701680B6828
S315020005C0E3B14CF6CD43009ECCF6CC43A6FB0336F4
S315020005D04FEA960C01264B6886EA0205741C6FF3F5
S315020005E09F3504F0070E664528BF45EA0E265E8053
S315020005F0264609680B680BB12FF013C84FF00109A4
S315020006004FF0000C06E0B8F1000F4FEA4909CBF8AB
S3150200061000C050D04FF0000E4FF0000B03460020F2
S3150200062001E0002BEFD0F0460EF1010E00241D462C
S315020006302D68013415B1A145FAD14C461E46CA466B
S3150200064001E01046934631462B46002C05DCBAF1F2
S31502000650010FE6DB002BE4D0E4B1BAF1000F18BFBC
S31502000660002B07D10E68013C1D460A46BBF1000F5E
S3150200067019D1E6E74A685D68567816706E782E706C
S31502000680B5F90250B2F90220AA42EBDD1D68AAF1C1
S31502000690010A03E01D68AAF1010A00240E461A4661
S315020006A0BBF1000FCDD0CBF8002031462B46934646
S315020006B0002CD2DCCBE701B0BDE8000FF0BDD4D4EC
S315020006C0F0B503AF2DE9000F81B02DED028BADF62B
S315020006D0380DA7F17404A7F12C0104F1420BA7F11E
S315020006E030025846002547F82C5C00F0B5FE012082
S315020006F001F02CF827F8740C022001F027F827F8ED
S31502000700720C032001F022F827F8700C042001F085
S315020007101DF847F8580C052001F018F837F8743C14
S31502000720002808BF072037F8722C37F8701C002BF8
S3150200073047F8540C08BF002A08D0012B0FD1002A13
S3150200074008BF00290BD143F2154501E00029F4D177
S3150200075027F8745C27F8725C662127F8701CA0EEF5
S31502000760100B0FF2EC504FF4FA6307A947F86C1C12
S3150200077090ED003F002027F8340C00EF520121FED5
S31502000780CF0F80EF500080EF512033FE010F21EE94
S31502000790100BF9FE002F92B2B3FBF2F247F85C2C73
S315020007A0002201E003280FD057F8543CC340013021
S315020007B0DB07F7D057F85C3C96B204EB800503FBE7
S315020007C006130132AB60EDE757F8540CC1070BD1A3
S315020007D0810717D4400727D457F8580C4FF0FF3A31
S315020007E0002840F080802BE037F9742C57F85C0C17
S315020007F057F8681CFFF782FE47F8500C57F8540C5E
S315020008008107E7D537F8722C37F9743C57F85C0C38
S3150200081057F8641C43EA024204F1280300F068FD1B
S3150200082057F8540C4007D7D537F9741C57E91820E6
S3150200083000F03CFF57F8580C4FF0FF3A002852D10F
S315020008404FF00008B7EE008BA7F17404012047F8B9
S31502000850580C0AE000F0DFFD00F0E8FD00F0ECFDC8
S31502000860B4EE480BF1EE10FA2DDA57F8580C00EBFD
S315020008708000400047F8580C00F0A5FD57F8586C68
S3150200088047E90F88002EE5D0002501212046FFF713
S31502000890EFFB37F83C1C00F066FF27F83C0C4FF0E4
S315020008A0FF312046FFF7E4FB37F83C1C00F05BFF04
S315020008B0002D27F83C0C08BF27F83A0C013EA5F19B
S315020008C00105E2D1C6E7BCEEC00B0A2110EE100A02
S315020008D0012898BF0120B1FBF0F057F8581C0130EF
S315020008E0484347F8580C00F06EFD57F8585C002054
S315020008F047E90F00FDB10026A7F174040121204645
S31502000900FFF7B6FB37F83C1C00F02DFF27F83C0C2E
S315020009104FF0FF312046FFF7ABFB37F83C1C00F0E7
S3150200092022FF002E27F83C0C08BF27F83A0C013D9F
S31502000930A6F10106E2D100F06EFD00F077FD37F96F
S31502000940742C044600210025104600F06EFF37F98C
S31502000950721C02460846114600F067FF37F9701C02
S3150200096002460846114600F060FF37F95C1C024653
S315020009700846114600F059FF47F6043140F20808CE
S315020009800246C2F200288842CDE9054017DD4EF63E
S31502000990F510824227D048F6022082422DD000204E
S315020009A0049047F60530824240F0AA8044F6C940D8
S315020009B0CDF80CB04FF0010BC0F200202EE041F64C
S315020009C0F200824222D00020049044F6AF608242B6
S315020009D040F0968044F6D830CDF80CB04FF0020BBA
S315020009E0C0F200201AE044F66900CDF80CB04FF0D0
S315020009F0030B0125C0F2002010E044F62040CDF89A
S31502000A000CB0C0F200204FF0000B07E044F62E3087
S31502000A10CDF80CB04FF0040BC0F20020049502F0A2
S31502000A20DDF9D8F80000002866D044F6FC454FF000
S31502000A300009C0F20025002400264FF0000A06E055
S31502000A400136D8F80010B4B28244A14250D957F800
S31502000A50541C27F8349CC80705D035F81B3037F8E4
S31502000A603A2C9A4203D100208A0710D427E044F692
S31502000A7014102146C0F2002002F07EF937F8340C39
S31502000A8057F8541C013027F8340C8A0717D544F658
S31502000A900652C0F2002232F81B3037F8382C9A423E
S31502000AA00DD044F6DA002146C0F2002002F064F9C5
S31502000AB037F8340C57F8541C013027F8340C490720
S31502000AC0BED544F6105137F8362CC0F2002131F863
S31502000AD01B309A42B4D044F2F4702146C0F2002090
S31502000AE002F04AF937F8340C013027F8340CA7E73C
S31502000AF0DDF80CB0059C03E04FF0000ADDF80CB0FF
S31502000B0000F0B6FE0AEB000644F2BA7057F85C1C17
S31502000B10C0F2002002F030F944F69B402146C0F2B2
S31502000B20002002F029F9204600F086FC53EC102B37
S31502000B3044F69210C0F2002002F01EF9204600F0A0
S31502000B407BFCB5EE400BF1EE10FA15DDD8F800008D
S31502000B5057F8581C484300EE100A2046B8EE408B60
S31502000B6000F06AFC88EE000B44F6BA00C0F20020E0
S31502000B7053EC102B02F000F9204600F05DFCB2EEB9
S31502000B80041BB4EE410BF1EE10FA06DA44F6E91054
S31502000B90C0F2002002F022F90136D8F8000057F818
S31502000BA0581C414344F60840C0F2002002F0E4F823
S31502000BB044F65F4944F64310C0F20029C0F2002011
S31502000BC0494602F0D9F844F6BC1A44F6C130C0F2DE
S31502000BD0002AC0F20020514602F0CEF844F69500F3
S31502000BE044F2D271C0F20020C0F2002102F0C4F831
S31502000BF044F624000699C0F2002002F0BDF857F828
S31502000C00541CC807D8F8000018BF002802D18A076A
S31502000C1015D428E044F2D8750021C0F2002500243C
S31502000C2037F83A2C284602F0A7F80134D8F8000023
S31502000C30A1B28842F4D857F8541C8A0713D590B14A
S31502000C4044F66D150021C0F20025002437F8382C31
S31502000C50284602F091F80134D8F80000A1B2884281
S31502000C60F4D857F8541C490711D580B144F67735A4
S31502000C700021C0F20025002437F8362C284602F05F
S31502000C807BF80134D8F80000A1B28842F4D880B1CA
S31502000C9044F64D050021C0F20025002437F83C2C0D
S31502000CA0284602F069F80134D8F80000A1B2884259
S31502000CB0F4D8300407D030B2012832DB44F6B9400A
S31502000CC0C0F2002031E044F6A220C0F2002002F079
S31502000CD085F8049858B3D8F8000057F8581C4843CA
S31502000CE000EE100A0598B8EE408B00F0A5FB88EEE0
S31502000CF0000B44F68820C0F20020CDE9009A53EC9E
S31502000D00102B02F039F844F6B34044F2D271C0F225
S31502000D100020C0F2002102F02FF80A2002F042F869
S31502000D2005E044F62620C0F2002002F057F85846A5
S31502000D3000F095FB00200DF6380DBDEC028B01B0DC
S31502000D40BDE8000FF0BD00BF00BF00BF00BF00BF7F
S31502000D50010000000200000004000000080000007C
S31502000D60F0B503AF4DF804BD82B01646D0E9004295
S31502000D70D0E9023500912046294600F009F83146AD
S31502000D8002B05DF804BBBDE8F04000F04EBDD4D41D
S31502000D90F0B503AF2DE9000F81B02DED0C8B92B0AB
S31502000DA00028119300F0818293464FF20002CFF69B
S31502000DB0FF7205468A46B96807300A4320F00700E3
S31502000DC00392A0F108024FEA450C029200245A4609
S31502000DD0134615F001E093ED801E11EE410FA3ECD0
S31502000DE0881E1FF009C001346244AC42F0D105FBF3
S31502000DF005F0CDF83CC04FF000090AEB80020BEB80
S31502000E004000109050455FEA9F905A455FEA9080F5
S31502000E1015F0C04F5FEA0F93EA1C22F0030240EA84
S31502000E200308043AA800099001925B46524607E07D
S31502000E30099809F1010902440F98A94503441BD0F8
S31502000E40B8F1000F0BD045F001E01846144630F910
S31502000E50026B4E4344F8046B0FF007C8E8E71C46E2
S31502000E60164625F001E0BCEC040F21EE611EA6EC4D
S31502000E70041F1FF009C0DBE74FF0000CD04600202C
S31502000E800026002345F001E042460399344652F813
S31502000E90046B3344A6425FEADF948B42C8BF0A243E
S31502000EA0204400B2C8BF00230FF011C00CF1010CA0
S31502000EB00999AC458844E5D100214FF0000800F0BD
S31502000EC0B4FC109A0AEB85015245119E5FEA9F9285
S31502000ED059450F9B06EB45045FEA928C002B5FEAAD
S31502000EE05F9354455FEA9F920C460691B1425FEAD0
S31502000EF0928110904CEA0300CDF820A00026DDF87E
S31502000F0020C040EA01090299CDF81CB004E001367E
S31502000F100F98AE42834426D00898B9F1000F40F8E4
S31502000F2026800FD045F001E000205A46119B32F987
S31502000F30024B33F9021B11FB04004CF826000FF09A
S31502000F400BC0E4E70022119C5B4615F001E0B3EC0E
S31502000F50881EB4EC883EF2EE202E1FF009C00898D7
S31502000F6040F82620D3E7DDF820A04FF00008D4464B
S31502000F70002000210026DDF81C90039A45F001E0CE
S31502000F8063460C4653F8041B0E44A1425FEADF9403
S31502000F909642C8BF0A24204400B2C8BF00260FF0FA
S31502000FA011C008F10108099BA8459C44E6D1109995
S31502000FB000F03BFCCAA16FF000420090A81891ED28
S31502000FC0009F68430022A2EE105B0B9009EB4500DE
S31502000FD029EE651E019905900120A2EF5225DDF842
S31502000FE03C8000EB91000A90CDF83890109508E00D
S31502000FF0049A0E980132DDE9079AAA4240440E90FD
S3150200100064D00998069900FB02A3049200FB02161B
S31502001010059808FB02000D9308FB0291DDF844B027
S315020010206A430C9683425FEA2F90B1425FEA208CB4
S315020010300AEB8203002009E043F82080DDF83C80B9
S31502001040109D01300BF1020BA842D1D00B99119AD7
S31502001050014402EB400A0D9E02EB41018A455AEA1F
S3150200106081825AEA3181023296420C9E5FEA2F92BF
S31502001070B1425FEA228151EA0C014FF0000143F8C6
S31502001080201010D045F001E000240E995A4631F99D
S31502001090026BB2F90050424415FB064443F8204065
S315020010A00FF00BC8CCE74FF000080E9C20EF504122
S315020010B00A9925F001E0BCEC046F9AEC15AFFBFE31
S315020010C0268E24EF42481FF00BC0B5E74FF0000C06
S315020010D0D346002000260023039945F001E05A4634
S315020010E0344652F8046B3344A6425FEADF948B42DD
S315020010F0C8BF0A24204400B2C8BF00230FF011C0A3
S315020011000CF1010C099AAC459344E6D1009900F022
S315020011108CFB6FF00041A2EE105B2944049029EE8D
S31502001120651E01FB05F00199A2EF52250C900120E4
S3150200113080EF5F400023002687EF5F60DDF83CC04A
S3150200114000EB91000B90CDF8389009E00A9E01362B
S31502001150DDE90E08AE424044DDE9079A0E906ED0F4
S315020011600998069A00FB06A4414600FB062205984A
S3150200117008FB06000A9608FB069190466E434FF05E
S31502001180000B84425FEA2F9091425FEA20890AEBC4
S31502001190860A119E0D9408E000234AF82B00109D42
S315020011A00BF1010B0236AB45D0D00C98119958447D
S315020011B001EB4B020D9C4AF82B3001EB40008242B8
S315020011C052EA808152EA308002318C425FEA2F91E4
S315020011D040455FEA218050EA090014D045F001E05B
S315020011E000200E99324631F8024B158862446C4350
S315020011F0C4F38305C4F3461415FB04004AF82B0016
S315020012000FF00FC8CBE700200E9920EF50810B9B01
S3150200121025F001E0B9FC04AF92FC19CF2CEF5AA9D4
S31502001220BEFF5AC00CEF54C1BBFF5AA00AEF56A12B
S31502001230FDFE2A0E28EF42881FF015C0ACE74FF0DC
S31502001240000C002000230022BC68039945F001E04F
S3150200125056461D4656F8043B1A44AB425FEADF95F2
S315020012608A42C8BF0A25284400B2C8BF00220FF02E
S3150200127011C0109D0CF1010C099EAC45B244E5D19A
S31502001280049900F0D2FA029A00224B4615F001E0C8
S3150200129093ED801E11EE441FA3EC881E1FF009C0B9
S315020012A00132C144AA42F0D10FE00020002100F031
S315020012B0BCFA0146002000F0B8FA0146002000F010
S315020012C0B4FA0146002000F0B0FA00B212B0BDEC4A
S315020012D00C8B01B0BDE8000FF0BD00BF00BF00BF20
S315020012E000000000010000000200000003000000F0
S315020012F0F0B503AF2DE9000F85B0012A98BF012290
S31502001300B8B184464FF0FF300826851C013075437C
S3150200131008366545F9D3013900FB00F621F00301D1
S31502001320002801F1040C0CEB46083CD0009603930E
S315020013300BE0481E039320F00300012100F1040C88
S3150200134000F106084FF0FF3000914100049101259B
S315020013504FF0000A4FF6FF71CDE9018C40F001E033
S315020013604FEA450B444666466A434FEAE27902EB88
S3150200137019438B43D21AAB1824F8023B0BEB020338
S3150200138001350BF1020BDBB226F8023B0FF015C05A
S315020013900AF1010A049B82459C449844DED1039BD0
S315020013A09DE8021101E00021002008EB4101C3E99A
S315020013B0000C013921F003010431C3E9028105B0B1
S315020013C0BDE8000FF0BD44F25C010020C2F200212C
S315020013D044F6D352C1F26202086044F20C11C2F220
S315020013E000210968A1FB02124FF0FF3101EB9211B5
S315020013F0B0EB116F18BF70474EF21002F023CEF217
S31502001400000251604EF62351CEF200010B7090603D
S315020014100720106070474EF21000CEF200000168FD
S3150200142021F00101016000218160704744F25C00F5
S31502001430C2F200200068704700EE100AB8EE400BB8
S315020014409FED031B20EE010B704700BF00BF00BFDC
S31502001450FCA9F1D24D62503F012101707047002173
S315020014600170704744F25C00C2F20020016801314B
S3150200147001607047F0B503AF2DE9000F93B00C463B
S31502001480097891468246019302944FF00000CDE915
S315020014900300CDE90500CDE90700CDE90900CDE954
S315020014A00B00CDE90D00CDE90F00CDE9110089B1A0
S315020014B00DF1080803AE0BAD4046314600F058F870
S315020014C002990978002955F8201001F1010145F821
S315020014D02010F1D1BAF1010FD7F808B004EB0A08CF
S315020014E00CDB5FFA89F0214602E05944414505D2F8
S315020014F00A782C2AF9D042400A70F6E7207802943C
S3150200150088B10DF1080903AE0BAD4846314600F02D
S315020015102FF802990978002955F8201001F10101E6
S3150200152045F82010F1D1BAF1010F0BDB0198C0B2D8
S3150200153002E05C44444505D221782C29F9D0414089
S315020015402170F6E7F868082403AD0BAE56F8042BB3
S3150200155081B2104600F029F9014655F8040B00F055
S3150200156024F9013CF2D113B0BDE8000FF0BDD4D48A
S31502001570F0B503AF2DE9000702681578002D00F0DB
S315020015807C8001F1040C01F1180E01F10C0A01F143
S31502001590140801F1100901F10806013200240AE0DB
S315020015A005244B461D6801351D6012F8015B002DAE
S315020015B018BF012C63D02C2D00F07280072CF4D8B2
S315020015C0DFE804F005041D2D353E1526EDE7A5F1ED
S315020015D03A0313F10B0F3DD82B2D4FF002043AD0EC
S315020015E02D2D0B46DED02E2D40D1052433E0A5F15C
S315020015F03A0313F10A0F44D307247346D2E7A5F13F
S315020016003A0313F10B0F22D82E2D3ED105241FE0EB
S31502001610A5F13A0313F10B0F3CD90724C5E72B2D8D
S315020016204FF0060420D02D2D5346BBD02BE02E2D95
S31502001630B6D0A5F13A0313F10A0F2AD30424B4E76C
S3150200164005F0DF03452B08D103244346AAE7042409
S315020016503346A7E704240B46A4E7A5F13A0313F1A0
S315020016600A0F14D30524A0E753469BE7DCF80030A3
S3150200167001240133CCF80030EDE7002410E0013AF2
S315020016800EE0F44606E0D44604E0B44602E0C44660
S3150200169000E0CC46DCF8001001240131CCF8001041
S315020016A0E1B202600846BDE80007F0BDF0B503AF3F
S315020016B02DE9000F4DF8040DA0F1010ABAF1020F4F
S315020016C037D344F65C5C44F67C5B0025C0F2002C02
S315020016D0C0F2002B4FF00C090026002019E016F08C
S315020016E001E831FE4D8F95FD800E84ED800E30446B
S315020016F02C230130A355013101F0070309EA5104F5
S315020017005BF823605CF823308519013555451D5970
S3150200171010D2002EEFD01418631B072BDFD846F029
S3150200172001E0234615F8018B03F8018B0FF007C081
S31502001730DDE700200099814204D90244091A1046C5
S3150200174002F0A9FE01B0BDE8000FF0BD0138042881
S3150200175007D844F69C51C0F2002151F820000068D7
S3150200176070470020704780B56F464FF0080E4AF268
S31502001770010CC3B283EA0102C1F34E015B08D20730
S3150200178018BF81EA0C010FF00BC84FF0080E000AD1
S3150200179080EA0102C1F34E014008D20718BF81EA6E
S315020017A00C010FF00BC8084680BD80B56F464FF09E
S315020017B0080E4AF2010CC3B283EA0102C1F34E01DA
S315020017C05B08D20718BF81EA0C010FF00BC84FF075
S315020017D0080EC0F3072383EA0102C1F34E015B0838
S315020017E0D20718BF81EA0C010FF00BC84FF0080EA2
S315020017F0C0F3074383EA0102C1F34E015B08D20735
S3150200180018BF81EA0C010FF00BC84FF0080E000E4C
S3150200181080EA0102C1F34E014008D20718BF81EAED
S315020018200C010FF00BC8084680BD80B56F464FF01D
S31502001830080E4AF2010CC3B283EA0102C1F34E0159
S315020018405B08D20718BF81EA0C010FF00BC84FF0F4
S31502001850080E80B2000A80EA0102C1F34E01400876
S31502001860D20718BF81EA0C010FF00BC8084680BDEB
S315020018700020704744F2680140F2FF1CC2F20021C8
S315020018800A6A536823EA0C0318445060086A816C9A
S315020018908900FCD50020704780B56F4682B044F2BD
S315020018A00C1044F6D351C2F20020C1F26201006864
S315020018B0A0FB01014FF0FF3000EB91110020B0EBCD
S315020018C0116F0DD14EF21002F023CEF200025160DA
S315020018D04EF62351CEF200010B7090600720106085
S315020018E044F2680044F6C851C2F20020C0F2002158
S315020018F000F052F844F6A91044F68141C0F20020E5
S31502001900C0F2002101F038FA44F6EF2044F69C3189
S3150200191044F6253244F65A1344F64C4CC0F20020E3
S31502001920C0F20021C0F20022C0F20023C0F2002C55
S315020019304FF0620ECDE900CE01F01EFA44F6A83051
S31502001940C0F2002001F04AFAFEF7BAFE44F662300F
S31502001950C0F2002001F042FA44F6B830C0F200208C
S3150200196001F03CFA4FF47A704FF47A7100F0CDFF31
S31502001970F8E7022818BF704744F2600045F2583172
S31502001980C2F20020C0F2002100F041BB80B56F46D2
S31502001990FFF782FF002080BDF0B503AF2DE9000FEF
S315020019A081B00D46097848F200020446C4F23502B7
S315020019B002EB0120206200202070E561A2786969AD
S315020019C06162A969C4E90A01E869009022F003008C
S315020019D0411CA170697811B940F00200A0704EF264
S315020019E0001195F90B00CEF200014FF0010E01F144
S315020019F08008430900F01F064CF2003A95F80AB037
S31502001A000EFA06F648F82360C4F2000ABFF34F8FB7
S31502001A10BFF36F8F5AF820304EF6185C23F48033EA
S31502001A204AF820305AF8206000F00F034FEA0B16EE
S31502001A3044F2F00B1A1F01F54073C2F2002B03EBBE
S31502001A400009CEF2000C002848BF02EB0C0989F807
S31502001A5000604BF8204095F905002A79460900F006
S31502001A601F010EFA01F1002848F8261000F00F06B1
S31502001A70BFF34F8FBFF36F8F5AF8201021F48031D6
S31502001A804AF82010A6F1040103EB000648BF01EB59
S31502001A900C065AF82010110131704BF8204095F9C6
S31502001AA00700AA79410900F01F060EFA06F6002879
S31502001AB048F8216000F00F06BFF34F8FBFF36F8F18
S31502001AC05AF8201021F480314AF82010A6F10401B8
S31502001AD003EB000648BF01EB0C065AF82010110171
S31502001AE031704BF8204095F909002A7A410900F035
S31502001AF01F060EFA06F6034448F8216000F00F06A8
S31502001B00BFF34F8FBFF36F8F5AF82010002821F4CE
S31502001B1080314AF82010A6F104015AF8206048BF25
S31502001B2001EB0C03110119704BF82040EFF31086FC
S31502001B308EF3108828784FF0004121FA00F043F224
S31502001B400401C4F220010A6822EA0000086008685B
S31502001B501E20012100F0D9FE86F310884FF4806121
S31502001B60206A4FF480438160E869EA7895F801C0FB
S31502001B70467803EA8232437B017806F001066CF36B
S31502001B80092203F0010301F0030142EAC632266A82
S31502001B9042EA4352436842EA016101F580517161AA
S31502001BA0027802F0FE01022907D14FF60471022AD9
S31502001BB0CFF6007108BF203100E01968226A116170
S31502001BC00C22017BAB78867862F39F014FF4407258
S31502001BD0022B08BF4FF48072002B06F00103266A1F
S31502001BE018BF114341EA0371F160226A0021916133
S31502001BF02A78092A04D8226A0023C1F61F7353627F
S31502001C00827B037CC07B4EF2001602F0010203F0D7
S31502001C101F0360F30C22206A42EA0342CEF2000658
S31502001C2002631022C4E90311206AC9F60752C4E905
S31502001C3005110099498921818266E06990F90510AA
S31502001C404A0901F01F035AF8210020F480304AF8AD
S31502001C5021005AF8210006F5C0700121BFF35F8FFB
S31502001C6001FA03F340F8223046F82230E26992F98B
S31502001C700B205AF8223023F480334AF822305AF8DD
S31502001C802230530902F01F02BFF35F8F01FA02F2FC
S31502001C9040F8232046F82320E26992F907205AF8F1
S31502001CA0223023F480334AF822305AF8223053097C
S31502001CB002F01F02BFF35F8F01FA02F240F82320FF
S31502001CC046F82320E26992F909205AF8223023F4D1
S31502001CD080334AF822305AF82230530902F01F02A2
S31502001CE0BFF35F8F914040F8231046F8231040F26D
S31502001CF01141206AC0F201018160206A017FC90791
S31502001D00FCD044F642110020C5F24331616001B0B5
S31502001D10BDE8000FF0BDD0B502AF84B0EFF303808B
S31502001D204FF0704101EB00604CF200318015C4F2B5
S31502001D300001425822F48032425044F2F0024158E5
S31502001D40C2F200221458E06900690028206902D014
S31502001D50E0B104B0D0BDC8B1A07800F003000228FB
S31502001D60E06805D10088216A20F4DC40486002E080
S31502001D70216A00780871A078E26800F00301206900
S31502001D80401A20611144E1600028E2D1206A022251
S31502001D90816862F315518160606A00284FF0000085
S31502001DA0E060D6D0A06A40B1D0E900C2D0E90231E3
S31502001DB0CDE90231CDE900C200E06846E169097861
S31502001DC001600021816080210171E16AC160616A5E
S31502001DD08847A06A00281CBF9DE81E001EC004B0EA
S31502001DE0D0BDD0B502AF86B0EFF303804FF070419D
S31502001DF001EB00604CF200318015C4F2000142583A
S31502001E0022F48032425044F2F0024158C2F20022D9
S31502001E101458A07800F00302206A022A20D1016831
S31502001E206FF35F21A0690191F8B1606901A902F01F
S31502001E3036FBA078D4E9051200F003000144101A1B
S31502001E40C4E9051039D1606AB8B3A06A08B3D0E90B
S31502001E5000C2D0E90231CDE90431CDE902C219E06E
S31502001E600178A06901910028DFD1606A28B3A06ACF
S31502001E7040B1D0E900CED0E90223CDE90423CDE971
S31502001E8002CE00E002A8E2691278816002600421B3
S31502001E9006E002A8E169097801600021816001215A
S31502001EA00171E16AC160616A8847A06A28B102AC21
S31502001EB01ECC016042608360C46006B0D0BDB0B57E
S31502001EC002AF84B0EFF303804FF0704101EB006084
S31502001ED044F2F0028115C2F200224FF6EF730416A5
S31502001EE05558CFF6CF73296A8A681A408A60696A9A
S31502001EF0E1B1A86A40B1D0E900C2D0E90231CDE928
S31502001F000231CDE900C200E06846E969097801605C
S31502001F100021816002210171E96AC160696A88470C
S31502001F20A86A00281CBF9DE82E002EC04CF2003085
S31502001F30C4F2000050F8241021F4803140F8241035
S31502001F4050F8240004B0B0BDF0B503AF4DF804BD9F
S31502001F5084B0EFF303804FF0704101EB006044F26E
S31502001F60F0028115C2F200225458A178236A01F0C8
S31502001F700301022904D1D3F800C06FF35F2C01E0FC
S31502001F8093F800C09A6C2025082105EAD2454FF045
S31502001F90100E01EA12611EEA126229440A4403D0B3
S31502001FA0996C090458BF4032996E051641F0C85122
S31502001FB09966616AD9B1A06A40B1D0E900E3D0E975
S31502001FC00216CDE90216CDE900E300E06846E169B2
S31502001FD00978C0F808C001600271E16AC160616AED
S31502001FE08847A06A00281CBF9DE84E004EC04CF2EE
S31502001FF00030C4F2000050F8251021F4803140F878
S31502002000251050F8250004B05DF804BBF0BD80B57C
S315020020106F4645F25422C5F24F020260084600F0AE
S3150200202002F8002080BDF0B503AF4DF804BD0446AA
S3150200203000F065F844F2EC0CEFF31081C2F2002CCA
S31502002040012080F31088DCF8000038B940F61450FD
S315020020500022C4F24000027040220270DCF8000046
S315020020600130CCF8000081F31088208828B340F6AE
S31502002070000E0021C4F2400E07E00EEB8010013183
S3150200208040F822302088814217D2606800EBC102F4
S3150200209050F831309288D8034FEA1220D2B2ECD5EA
S315020020A00EEB801555F8226026F4803645F822603C
S315020020B023F4803645F82260DFE70120EFF3108132
S315020020C080F31088DCF8000020B1DCF8000001384B
S315020020D0CCF80000DCF8000020B181F310885DF82E
S315020020E004BBF0BD40F614500022C4F24000027058
S315020020F08022027081F310885DF804BBF0BDF0B552
S3150200210003AF2DE9000F81B004460088002866D08F
S315020021104EF64C4B0025C4F2010B03E02088013534
S3150200212085425CD245F26C3942F240080026C0F282
S315020021300029C4F220080AE088F80000C82001211C
S3150200214000F0E3FB013608F10208032EE6D06068D0
S3150200215039F8022B00EBC50189889142F2D150F879
S3150200216035009BF80010012200F0B85002FA06FA78
S31502002170B0F1807F0AEA010005D1D8B198F90000D2
S31502002180002827D5DEE758B1012000F06BFC9BF84A
S31502002190000020EA0A008BF80000012000F038FC5B
S315020021A098F90000B0F1FF3FCCDC98F8000000F08F
S315020021B07F00C1E7012000F055FC9BF8000040EAD1
S315020021C00A008BF80000012000F022FC98F90000BA
S315020021D00028B7D498F8000040F08000ACE701B0C0
S315020021E0BDE8000FF0BDD4D44EF22401C4F20101C1
S315020021F08878098801F00F02A2F1080103294FD855
S31502002200DFE801F0023B152844F22001C2F2002168
S3150200221051F820004AF6AB21CAF6AA21A0FB010119
S31502002220480844F20C11C2F200210860704744F2D9
S315020022302001C2F2002151F820004AF6AB21CAF66B
S31502002240AA21A0FB0101C80844F20C11C2F2002126
S315020022500860704744F22001C2F2002151F82000C2
S315020022604AF6AB21CAF6AA21A0FB0101080944F2EB
S315020022700C11C2F200210860704744F22001C2F23A
S31502002280002151F820004AF6AB21CAF6AA21A0FB8A
S315020022900101880844F20C11C2F20021086070475D
S315020022A044F22001C2F2002151F82000D04044F24B
S315020022B00C11C2F2002108607047D4D4D4D4D4D40D
S315020022C0F0B503AF2DE9000F81B00FF2F4504EF2D4
S315020022D0FA3944F2200BC4F2010990ED001FC2F252
S315020022E0002B0FF2EC504AF203514EF25505CFF68F
S315020022F0FF71A9F800108BED001F0BF12003C4F249
S31502002300010590ED001F48F2004040F60001C1F2BF
S31502002310D77043F600028BED041FC2F6AF71C1F609
S315020023209C424AF2035807C315F82F0C35F8311CA4
S3150200233001F00F02A2F1080103292BD8DFE801F010
S3150200234002200C164AF6AB215BF82000CAF6AA2137
S31502002350A0FB0101480820E04AF6AB215BF8200009
S31502002360CAF6AA21A0FB0101C80816E04AF6AB216B
S315020023705BF82000CAF6AA21A0FB010108090CE0BD
S315020023804AF6AB215BF82000CAF6AA21A0FB01019E
S31502002390880802E05BF82000D04044F20C1A0A21B9
S315020023A0C2F2002ACAF800004EF65020C4F201001A
S315020023B00170092185F84D10012180F8B011002025
S315020023C005F81F0C05F8230C15F8190C0007FBD5A8
S315020023D042F602314EF61450C0F20101C5F87310EE
S315020023E040F2234125F8071C4FF60211002205F898
S315020023F00B2CC5F8571040F2514125F8091CCEF2B4
S3150200240000004EF20001BFF34F8FBFF36F8F0368D8
S31502002410CEF2010123F400330360C0F83C22BFF37D
S315020024204F8FBFF36F8F0A6822F440520A60BFF3E0
S315020024304F8FBFF36F8F15F8412C02F0F80201326D
S3150200244005F8412C15F8412CD206FBD40A6842F451
S3150200245040520A60BFF34F8FBFF36F8F0168890343
S3150200246012D4BFF34F8FBFF36F8F0021C0F83C1217
S31502002470BFF34F8FBFF36F8F016841F400310160E4
S31502002480BFF34F8FBFF36F8F002005F82B0C15F8A3
S31502002490190C8006FBD54CF200040020C4F213048A
S315020024A020702078207820786068FA2806D0FA20F2
S315020024B0C1F6006060606168FA29FBD1A0687D28D8
S315020024C006D07D20CEF20010A060A1687D29FBD146
S315020024D043F23240C3F2232045F8350C42F2202063
S315020024E025F8310C052005F82F0C15F82F0C35F8B8
S315020024F0311C01F00F02A2F1080103292BD8DFE8F3
S3150200250001F002200C164AF6AB215BF82000CAF64F
S31502002510AA21A0FB0101480820E04AF6AB215BF89C
S315020025202000CAF6AA21A0FB0101C80816E04AF655
S31502002530AB215BF82000CAF6AA21A0FB010108091B
S315020025400CE04AF6AB215BF82000CAF6AA21A0FBF2
S315020025500101880802E05BF82000D040CAF80000BA
S315020025601E200121012600F0D0F960686FF39F203A
S31502002570652828BF267015F82F0C35F8311C01F096
S315020025800F02A2F1080103292BD8DFE801F002208D
S315020025900C164AF6AB215BF82000CAF6AA21A0FB6C
S315020025A00101480820E04AF6AB215BF82000CAF692
S315020025B0AA21A0FB0101C80816E04AF6AB215BF886
S315020025C02000CAF6AA21A0FB010108090CE04AF67E
S315020025D0AB215BF82000CAF6AA21A0FB01018808FC
S315020025E002E05BF82000D040CAF8000042F2000088
S315020025F0C4F20000A8F1020101800121BFF35F8F3E
S3150200260001724FF42541BFF35F8F018095F8850073
S3150200261040F0400085F8850095F98500B0F1FF3F4E
S31502002620FADC032085F87F00C92085F8850095F835
S31502002630850000F0BF0085F8850095F98500002821
S31502002640FBD4012005F8250C05F8030C05F8020C4D
S31502002650002005F8170C802005F8170CE87F40F0DB
S315020026604000E87795F91F00B0F1FF3FFADC07203A
S31502002670E8754A20E8770A20E87795F91F000028CE
S31502002680FBD4B9F80000A9F8008095F8201041F0B3
S31502002690400185F8201095F92010B1F1FF3FFADCD0
S315020026A000212976472185F82010072185F8201078
S315020026B095F920100029FBD440F42540A9F8000022
S315020026C095F8210040F0400085F8210095F9210097
S315020026D0B0F1FF3FFADC03206876CA2085F82100B4
S315020026E095F8210000F0BF0085F8210095F9210038
S315020026F00028FBD4287840F04000287095F90000A5
S31502002700B0F1FF3FFADC022005F8010CCA2028705E
S31502002710287800F0BF00287095F900000028FBD445
S31502002720A87840F04000A87095F90200B0F1FF3F8A
S31502002730FADC00206870C720A870A87800F0BF00F5
S31502002740A87095F902000028FBD4287A40F04000D0
S31502002750287295F90800B0F1FF3FFADC0120E87112
S31502002760C6202872287A00F0BF00287295F9080060
S315020027700028FBD495F8230040F0400085F823009A
S3150200278095F92300B0F1FF3FFADC0220E876C92072
S3150200279085F8230095F8230000F0BF0085F8230092
S315020027A095F923000028FBD4A87940F04000A871CF
S315020027B095F90600B0F1FF3FFADC02206871CA20E3
S315020027C0A871A87900F0BF00A87195F90600002843
S315020027D0FBD495F8860040F0400085F8860095F90E
S315020027E08600B0F1FF3FFADC022085F88000C520A2
S315020027F085F8860095F8860000F0BF0085F8860009
S3150200280095F986000028FBD495F8870040F0400031
S3150200281085F8870095F98700B0F1FF3FFADC0120C1
S3150200282085F88100C52085F8870095F8870000F0B5
S31502002830BF0085F8870095F987000028FBD495F834
S31502002840890040F0400085F8890095F98900B0F1C9
S31502002850FF3FFADC092085F88300C92085F8890044
S3150200286095F8890000F0BF0085F8890095F989007E
S315020028700028FBD495F8880040F0400085F88800CF
S3150200288095F98800B0F1FF3FFADC042085F8820052
S31502002890C92085F8880095F8880000F0BF0085F801
S315020028A0880095F988000028FBD44FF42540A9F842
S315020028B0000001B0BDE8000FF0BD00BF00BF00BFC1
S315020028C0006CDC0200127A000080000000366E0105
S315020028D00000000000CA9A3B0046C3235543DE139C
S315020028E0D0B502AF42F228000024C4F220000470E0
S315020028F0012000F0B7F84EF64C410120C4F2010166
S315020029000C70BDE8D04000F083B844F20C1241F2DC
S315020029100023C2F20022C0F27A03484312689A42A6
S315020029200FD344F23F21C0F20F0111444DF68362E8
S31502002930C4F21B32A1FB0212910CA0FB0101C9B128
S315020029401DE04CF60021C3F69A31B1FBF2F148F6CE
S315020029503812C0F24102904205D24FF47A725043C5
S31502002960B0FBF1F006E0B0FBF1F0904207D24FF473
S315020029707A714843002808BF704700F005B84FF047
S31502002980FF3000F001B8D4D401380028FCD17047DA
S31502002990F0B503AF4DF8048D4CF2201844F29804BA
S315020029A0C4F200080026C2F2002458F8200CD8F817
S315020029B0001001EA000503E001360434152E09D0A1
S315020029C025FA06F0C007F7D021680029F4D0F0B244
S315020029D08847F1E748F8105CD8F800002842FBD196
S315020029E05DF8048BF0BD80B56F464FF0040E4CF2D5
S315020029F0003045F26431C4F20000C0F2002131F821
S31502002A00022B002A18BF026004300FF009C080BDF5
S31502002A100122EFF3108182F3108844F20012C2F20F
S31502002A20002232F8103023B132F81030013B22F87E
S31502002A30103032F8102012B181F3108870474EF22E
S31502002A40FA3245F2C05CC4F20102C0F2002C1388CD
S31502002A503CF8100043F4254323EA0000108081F37A
S31502002A6010887047D0B502AF0122EFF3108182F3CE
S31502002A70108844F20012C2F2002232F8103083B9F2
S31502002A804EF2FA3E45F2C05CC4F2010EC0F2002CD0
S31502002A90BEF800403CF81030234343F42543AEF819
S31502002AA0003032F81030013322F8103081F31088EA
S31502002AB0D0BD80B56F4600F007F8FEF767FFFEE768
S31502002AC000BE7047D4D4D4D4F0B503AF2DE90007C5
S31502002AD04EF6085840F20120CEF20008C0F20E006F
S31502002AE04EF20004C8F80C00CEF20104BFF34F8F79
S31502002AF0BFF36F8F58F8080CC0F3035110F00F0F95
S31502002B005FEA0F9001295FEA1081206810D879B92F
S31502002B1040F0040020604EF20800BFF34F8FCEF261
S31502002B200000BFF36F8F016841F48031016002E05B
S31502002B3020F004002060BFF34F8FBFF36F8F4FF476
S31502002B40700040F20001C8F880000020C0F20021A7
S31502002B50C8F80010FEF70DFFFFF7B2FB0120FEF7E3
S31502002B6008FF40F22000C2F2002080F30A882068A3
S31502002B70800725D5D8F80000B0F1007F20D1206962
S31502002B804FF40071C0F3C300626901FA00F3C2F3A5
S31502002B90C30081400020DA080646CB08014642F00F
S31502002BA007C800BF00BF00BFE6E802010FF005C07C
S31502002BB04FF0005243F005C0E2E802010FF005C0F3
S31502002BC045F29439C0F20029D9F800508DB1D9F8EE
S31502002BD004002E46041D03E0013E04F10C0408D055
S31502002BE060790028F8D154E90101091A01F053FC71
S31502002BF0F2E7D9F808A0BAF1000F13D0D9F80C0001
S31502002C00564600F1080403E0013E04F1100409D01F
S31502002C1060790028F8D154E902022168121A01F0FB
S31502002C203EFCF1E7FFF7E0FAFFF75AFE0320FFF753
S31502002C3019FF4FF00E0E40F63050C4F2400000214C
S31502002C4020F8041B0FF005C00320FFF7E1FE032066
S31502002C50FFF708FF44F204000021C4F220000160DD
S31502002C6041608160C1600320FFF7D2FE0220FEF7B9
S31502002C7080FE9DB1D9F804004FF48076041D03E06E
S31502002C80013D04F10C0409D06079B6EB002FF7D1AF
S31502002C9054E90101091A01F0FEFBF1E7BAF1000F4E
S31502002CA016D0D9F80C004FF4807500F1080404E040
S31502002CB0BAF1010A04F110040AD06079B5EB002FCB
S31502002CC0F6D154E902022168121A01F0E8FBEFE795
S31502002CD044F21414C2F20024204600F02DF82046D5
S31502002CE000F040F8BFF34F8F002045F65A11BFF3AC
S31502002CF06F8FC8F8480245F65A10C0F20020C0F29B
S31502002D000021BFF34F8F081ABFF36F8F8410012C77
S31502002D1008DB45F65A15C0F2002555F8040B804724
S31502002D20013CFAD1FFF75FFE0020BDE80007BDE8CF
S31502002D30F04000F000B87047D0B502AF054904462E
S31502002D40054A01F0ACFB05480549204401F0A3FB06
S31502002D50D0BD00BF700000020000000000000000AD
S31502002D60000000000249401A02490860704700BF8D
S31502002D70080000001041002283B0D8B503AF044614
S31502002D8007F108000EC007F1080221460448009226
S31502002D90006800F049F8BDE8D84003B0704700BFAC
S31502002DA0B04D00020149096800F002B8B04D0002B8
S31502002DB0B0B502AF0D46897889070BD5C4B26A68E9
S31502002DC0294620469047B0F1FF3F05DCA87840F03F
S31502002DD00400A8704FF0FF342046B0BDF0B503AF33
S31502002DE04DF804BD05460F480468A078800714D53F
S31502002DF06668287828B12146B04701350028F8D5FB
S31502002E0007E00A202146B047B0F1FF3F01DD00206E
S31502002E1005E0A07840F00400A0704FF0FF305DF8A6
S31502002E2004BBF0BDB04D0002F0B503AF2DE9000FB3
S31502002E3097B0814680781692800740F1D984D9F8F6
S31502002E40040000260E908846169815900FA8821D3B
S31502002E500992421D0138079206900B91414611F8DC
S31502002E60010B252803D0884640B900F0C3BC98F868
S31502002E7001A008F10208BAF1250F06D100F09EFD65
S31502002E8001360028EAD500F0ADBC002200244FF03E
S31502002E90000C4FF0000B1FFA8BF51F2D0DD8AAF16F
S31502002EA02700092831D8DFE800F0B10A0A0A050A24
S31502002EB0730A0A704BF0020B61E07F2D11D8AAF15A
S31502002EC0300009282AD8402D27BF04EB840100EBE5
S31502002ED041040CEB8C0100EB410C38BF4BF0200B8C
S31502002EE094E0BAF14C0F4DD0BAF1680F53D0BAF153
S31502002EF06A0F47D0BAF17A0F18BFBAF1740F00F011
S31502002F008580BAF16C0F4DD088E0BAF1200F36D029
S31502002F10BAF1230FD3D14BF0100B77E0BAF1240F9D
S31502002F204DD0BAF17A0F71D0BAF12E0F41D0BAF163
S31502002F304C0F27D0BAF1680F2DD0BAF16A0F21D003
S31502002F40BAF16C0F2ED0BAF1740F5FD0BAF12A0F14
S31502002F5064D1002A5AD11598011D159100683F2D9A
S31502002F6052D8B0F1FF3FDDBF4BF0280BC0F1000C89
S31502002F7000224BF0200BC4BF0022844646E04BF0F1
S31502002F80040B43E04BF4207B40E04BF0010B3DE0A9
S31502002F904BF0080B3AE00BF480704BEA400040F429
S31502002FA0807B33E00BF080004BEA800040F0800B20
S31502002FB02CE03F2D00F21E844BF0400B26E0E2B1DE
S31502002FC01698402D1590A2460B98CDF8349015A967
S31502002FD091465CEA3482644600F018FC1598A446D1
S31502002FE054464A46011D15910068402DDDF834907D
S31502002FF050EA3C8C5AEA308408E0624600244FF0DC
S31502003000000C4FF0000B01E00022044618F801AB59
S31502003010BAF1000F7FF43FAF4FF0000ACDF834C08B
S315020030203AB1169815900B9815A900F0EFFBDDF84A
S3150200303034C04AF02000002C24EAE475A0F16501B0
S3150200304048BF2BF0400B032901D3612831D11599D2
S31502003050A0EB0A0A073121F00701612801F10802F3
S31502003060159291ED000B14D15FEA4B6058BF4FF0F9
S31502003070FF350FAC5FFA8AF22946204600F0BAFC09
S31502003080054601300890702003904BF4C05B012086
S3150200309041E05FEA4B6158BF0625C1B20FAC662913
S315020030A020D0652926D165204BF4805B691C00235C
S315020030B026E05FFA8AF2A2F16F01062959D80C922C
S315020030C008234FF0000EDFE811F0E9010700E301E3
S315020030D0E301AD01E301A5014BF0100B10234FF004
S315020030E0780EDBE166204BF4005B0122039011218E
S315020030F02B4607E02906294608BF0121002302388C
S3150200310003900022C9B22046112928BF112100F0DE
S3150200311018FD08900220DDF83CE0DDF834C01EF10F
S31502003120090F07DA1EF1630F0FD21EF57A7F0AD84E
S3150200313004200BE0BEF1090F08DDBEF1630F04D9CE
S31502003140BEF57A7FF4D2032000E002209DF84010FB
S315020031500490C8071FFA8BF007D15FEA8B7206D478
S3150200316042071DD4002201231CE02D2219E02B2246
S3150200317017E0692A18BF642A40F036811FFA8BF0DD
S315020031805FEA0B6100F13D8115990A1D15920A68E5
S31502003190C10540F13D81800554BF12B252B237E1FA
S315020031A02022002311F00C0F0C9319D00C98002842
S315020031B04FF0030050EA1090844522DD5FEA0B715E
S315020031C021D4A0EB0C04154600F004FC002800F103
S315020031D00983013406F10106F6D300242A4614E0D7
S315020031E01BF4405F029242D10121012D55EA8181F1
S315020031F0089DEAB242B313191B79302B24D1013D43
S31502003200F7E7002401E0ACEB00040C9830B9104655
S3150200321000F0D4FB002800F1E58201369DF840005B
S31502003220DFF8E4150007DFF8DC0550EA5185287857
S31502003230002800F0CE82A0EB0A0000F0D7FB013690
S3150200324001350028F3D5CDE2C006089552EA518031
S315020032501EF1040F0ADB8E4508DA86454BF4005B45
S31502003260AEBF00256FEA0E01451800E0451E1FFAA3
S315020032708BF15FEA8B404FEA01500591019007D42A
S3150200328000284FF0050058BF03200499084404E0C3
S315020032900120BEF1010F50EABE90DDF814B0002DF8
S315020032A00C9A4FF00004CDF828E0CBF3001182F01F
S315020032B0010251EA05918B180344BCEB030353EA5E
S315020032C0C4841BF0090F0ED16CB108441044A0EB64
S315020032D00C0400F07FFB002800F18482013406F121
S315020032E00106F6D300240C980028029805D100F0B6
S315020032F065FB002800F176820136019800280CD57C
S3150200330000F070FB002800F16D82CAF1780000F02F
S315020033106DFB002800F1668202360598000709D483
S3150200332044B1264400F05EFB002800F15B82013CBA
S31502003330F8D1002405980A9980042CD49DF84100FE
S3150200334031281EBF9DF8401001F0EF018DF84010A4
S3150200335000F034FB002800F14582012DC0F2E58021
S3150200336000F03CFB002800F13D82A81902300D90C6
S315020033700898C6B20020854200F0A88100F1010B30
S31502003380B3453ABF0999085C302000F017FB0028C4
S315020033905846F0D526E2079821EAE17AC5F1000BF4
S315020033A0CAF1000508440C900898C0B20D90012D90
S315020033B005D100F013FB002800F1148201360A98A9
S315020033C041194FF0300004D40D9A9142BCBF0C98BB
S315020033D0405DDA4552DD00F0F1FAAAF1010A013543
S315020033E001360028E3D5FDE1632A0C9250D11598E7
S315020033F001250DF13C0A011D159100688DF83C006E
S3150200340025E08005159800F19680011D1591026848
S31502003410D31798E04FF6EF700BEA000B0A234FF032
S31502003420750E3BE01598011D15915FEA4B6158BF79
S315020034304FF0FF350068DFF8C813002851EA008A0A
S315020034402946504600F070FBDDF834C005465FEAB7
S315020034500B7000F19881AC455CEA358BAC4540F2C5
S3150200346091810E9A2020494664469047002800F131
S31502003470B981A4460136A4F1010CEFE70131C0F08F
S3150200348098819DF84110352940F28D81312090E1D5
S31502003490782840F00681CAF18803D646CDF830E096
S315020034A04FF6F9700BEA000E5FEA0B600CD4159822
S315020034B0011D159100685FEACE510CD55FEA8E5167
S315020034C054BF80B2C0B206E05FEA8E50159804D4AB
S315020034D0011D15910068002107E0073020F0070161
S315020034E00A46496852F8080B159250EA010208BFCB
S315020034F02BF0160E0DD00DF13C0A7446524600F022
S3150200350037FADDF834C0A0EB0A0BA646DDF830A088
S3150200351037E05FEA4B62EED5012CECDA4FF6E97042
S315020035200BEA000E4FF0000BF0E70598C00600F11B
S31502003530C680701CC9E0073020F0070001464368C8
S3150200354051F8082B15915846002B48BF40F480606D
S3150200355020F0100E82EAE37083EAE371B0EBE370C7
S3150200356061EBE3711A4300F092800DF13C0B0A23E2
S3150200357074465A4600F0FCF9A646DDF834C0A0EBC4
S315020035800B0B5FEA4E6002D4714658460CE04FF6CA
S31502003590FE700EEA0001AB45584605DA2846BAF136
S315020035A0000F08BF2EF011018AB2C90605D440F2F7
S315020035B006410A425FEA0F9104E00121BAF1000FC7
S315020035C051EA01910C180C92100719D4D00706D0B3
S315020035D05D466445BEBF0BEB0C00051B6446A44565
S315020035E05CEAC4800A90644509DA00F0F3F900281F
S315020035F000F1F88001340136DDF834C0F3E70A9CA5
S315020036000C99C80610D440F20640014221D0880720
S315020036104FF02B0058BF2020490548BF2D2000F04F
S31502003620CDF9002812D5DDE000F0DCF9002800F122
S31502003630D980BAF1000F09D00E9A5FFA8AF049468C
S315020036409047002800F1CE80023600E00136DDF810
S3150200365034C0ACEB04045D4506DD00F0C3F9013D60
S3150200366001360028F7D5BDE00698002500EB0B0AC7
S31502003670CBF1000BAB4508D01AF8050049460E9A65
S315020036809047013D0028F5D5ACE0761BA1E05FEA44
S315020036904B627FF56AAF012CBFF667AF4FF0000BA6
S315020036A06FE70E9A252049469047002800F19A8036
S315020036B00C9849460E9A90470236FFF7E2BB00F095
S315020036C08DF9002800F18E80B01C0D9003984946B2
S315020036D00E9AA0EB0A00C0B29047002800F1828041
S315020036E00A99002908D405D19DF84000C00603D4E2
S315020036F000200A902B2002E02D2049420A9100F078
S315020037005DF900286ED40498042815D30A994FF45B
S315020037107A700E9AB1FBF0F5494605F13000C0B257
S31502003720904700285ED44FF47A700A9905FB10116F
S315020037300D9800F1030A05E00D99032801F1020A2A
S315020037400A992DD1642000F03CF900284AD464205D
S31502003750294606FB10510AF1010A0A2000F031F946
S3150200376000283FD406EB860029460AF1010AA5EB9A
S31502003770400101F1300000F039F9002832D40AF193
S31502003780010626E0DC462E44ACEB05040DB31AF81E
S31502003790010B49460E9A9047013D0028F6D521E0D5
S315020037A00228DAD2E5E704D19DF84010C9067FF572
S315020037B06DAE00F003F9002814D40599701CC906F1
S315020037C006D52DB900F00AF900280BD4023600E01E
S315020037D00646012CFFF642AB00F0FCF80136013C2E
S315020037E00028F6D599F8020040F0040089F8020094
S315020037F04FF0FF36304617B0BDE8000FF0BD00BFF0
S31502003800F44C000210490002974C0002F0B503AFD7
S315020038102DE900078246554889464FF001084FF0C8
S31502003820010C5546944580F29D802B4613F8011BE8
S31502003830252903D000291D46F7D193E06C7802357D
S31502003840252CF2D000264FF0000E0023B1B21F291C
S3150200385008D8A4F12001102906D808FA01F101427C
S3150200386043D101E07F290AD8A4F13001092913D8EE
S3150200387003EB830346F0200601EB430335E04C2CB1
S3150200388023D0682C24D06A2C1FD07A2C18BF742C13
S315020038902BD06C2C23D033E07A2C26D02A2C18BFBE
S315020038A02E2C01D1002320E04C2C0ED0682C0FD0F8
S315020038B06A2C0AD06C2C12D0742C16D0242C1FD150
S315020038C0BEF1000F16D19E46ECE746F420760CE0D8
S315020038D006F4807146EA410141F4807605E006F07D
S315020038E0800146EA810141F0800615F8014B002C61
S315020038F0ACD104E06345D5D16324E64600E000245A
S31502003900BEF1000F2ED0E6457FF48CAF44F02001C5
S31502003910A1F16503032B01D361290BD1D9F800105C
S31502003920073121F0070101F10803C9F800300CF153
S31502003930010C76E7E3B2732B0ED0642B18BF692B0A
S3150200394008D1310608D5D9F80030B1B2890507D4B5
S315020039500433EAE7632BF4D1D9F800100B1DE4E730
S31502003960D91DDEE7BDE80007F0BD00BF89280100CA
S31502003970F0B503AF2DE9000B03F01F099846144674
S315020039800D460646304629464A46002300F002FF07
S3150200399000FB1962A2EB0803092A88BF03F137026A
S315020039A0303204F8012BB6EB0902064675F1000225
S315020039B00D46E7D22046BDE8000BF0BD0E9A4946F9
S315020039C010470E9AB1FBF0F60D4606F13000494655
S315020039D0C0B210470E9A2020494610470E9A2E2052
S315020039E0494610470E9A3020494610470E9AC0B2F1
S315020039F049461047F0B503AF2DE9FE0F8146302048
S31502003A0089F8050050EC106B90460D4631230446AA
S31502003A10C0F30A5242EA06016FF31F54214307D04C
S31502003A202AB1A2F2FF3289F80530322300E03D4A7C
S31502003A304FEAD07B002D89F804B003D40C2D03D9AC
S31502003A400D253FE000253DE03320A0EB850A0692D6
S31502003A50022000215246019300F032FD42420592B5
S31502003A604FF000028A4104920138039061F100008E
S31502003A700021204002900120524600F021FD82469C
S31502003A800398069A3040BAEB0000029871EB0000E8
S31502003A900BD3A800C0F1340203913046214600F050
S31502003AA022FD0399C007069A08D016EB0A064C4176
S31502003AB0B4F5801F24BF019889F8050005980640D1
S31502003AC004980440B2F5806F09D156EA04004FF01B
S31502003AD0080008BF0420584489F804001BE09446F5
S31502003AE01220411F16D016F00F0201D1A9420BDC9B
S31502003AF0A2EB080357330A2A38BF02F13003A94260
S31502003B0051EAC58509F80030310941EA04762409EB
S31502003B100138E6E76246C9F80020284607B0BDE844
S31502003B20000FF0BD02FCFFFFD0B502AF42180346FC
S31502003B3029B11C7814B101390133F9E71A46101A72
S31502003B40D0BDF0B503AF2DE9000F9DB08B4651EC09
S31502003B50109B0D46CC0F6FF31F55C1F30A5159EA5C
S31502003B60050C08BF00290CD040F2FF76B14211D1F4
S31502003B7008214FF0000ABCF1000F08BF04212144BE
S31502003B8006E030214FF0010A417100210160A11CBB
S31502003B900171F5E1CDE907400029A1F235440A9207
S31502003BA018BF05F580154FEA850242EA997013900F
S31502003BB004BF4FF6CC34CFF6FF74BCF1000F5FEAB8
S31502003BC00F9002295FEA2F91002C40EA01084FEA82
S31502003BD08900129009F001000490CDF814B00993FF
S31502003BE0CDF83C8039D4204600F0EAFA0646032C8A
S31502003BF088BF013E304600F0EFFA14A982463046ED
S31502003C0000F07CFB18A81AA9CDF80880CDE90010AF
S31502003C10301B504414AA00F17C034846294600F0A2
S31502003C20CFF980468946152E00F29080129D139C8C
S31502003C302846214600F0B4F9820842EA817120F052
S31502003C40030008444042E84254D12846214600F087
S31502003C50CBFAB0425FEA3F9049E0C4F1000B584606
S31502003C6000F0B4FA8246601C18BFAAF1010AABEB57
S31502003C700A0B584600F0B0FA14A9064658468B4677
S31502003C8000F0D0FA18A81AA95A46CDF80880CDE94C
S31502003C900010AAEB060000F17D034846294600F013
S31502003CA08FF90AEB040680468946BAF1010F09D854
S31502003CB00498DDF814B00A9A58BB0120099B1190AA
S31502003CC00F9847E0DDF814B0BAF13E0F3ED84FF038
S31502003CD0FF304FF0FF31524600F0F2FB139A22EA10
S31502003CE00101129A22EA000008435FEA1F9011902E
S31502003CF000202DE00498C0B90F98C043401964F122
S31502003D00000100F071FAB0425FEA3F900021119182
S31502003D101EE0DDE91A01099B01381A9061F10000E3
S31502003D2001211B900020119114E045F0020021466A
S31502003D3000F05AFADDE91A124B1E62F10004B04293
S31502003D4053EA21801A9054EA22801B900020119097
S31502003D50DDE909320F9058466AB1404649461C468B
S31502003D6000F00DFA3119234608440128D8BF012074
S31502003D7083455BEAB080CDF84090C24606960025A0
S31502003D80DDE91869DDE91A410B900020CDE9120040
S31502003D9020460E940D9100F0FAF804468B46304602
S31502003DA04946CDF8309000F0F2F88046001B89466D
S31502003DB071EB0B000DD31099504600F0E0F90B9908
S31502003DC0884225DD2A46012519B9109850EA0A00CB
S31502003DD021D01099504600F0DAF810911299119AF2
S31502003DE011F0FF0F5FEA1F910A40119208EB880259
S31502003DF0714252424646B1EB420F0F9A5FEA1F9159
S31502003E000A4000EB80010F9200F0D1F95946BFE754
S31502003E10DDF8408004E04FF0000A4FF00008154636
S31502003E20DDF83CC0DDF820B05FEACC702AD0DDF8C0
S31502003E303090CDE90FC53046494600F0A8F8044651
S31502003E4000EB800040420D467142B1EB400F1CD19F
S31502003E50DDE90D1000F09BF8CDE90D105046414604
S31502003E6000F095F888461299119A264611F0FF0F2E
S31502003E705FEA1F910A4000EB80011192A94600F009
S31502003E8096F9D8E75446C24605E0DDE90FC5544621
S31502003E90C246CDF830900698139901EB00081298A5
S31502003EA0C0B205285FEA0F91EA070ED10C9B84EA9D
S31502003EB0060283EA0A031A4307D1049A002A5FEA32
S31502003EC01F9202EA0C02012A5FD1119A82F00102C4
S31502003ED01143214304285FEA9F9001EA000566190F
S31502003EE04AF100093046494600F049F90446F5B15F
S31502003EF00B998C421CDD0A9840B1099805994044F9
S31502003F00204420EAE070814251EAB0818C420FDD02
S31502003F10701D0D4649F100010A22002300F03AFC09
S31502003F20013C08F1010889460646294600E00B993C
S31502003F308C4254EAB1800FFA80FA0FFA88F00AF13D
S31502003F400405A0F101080024544512DA3046494618
S31502003F500A22002300F01EFC894600EB8001013490
S31502003F60A6EB4101064641F030010BF80510013D72
S31502003F70EAE707988BF8040008EB0A00CBF8000082
S31502003F8050461DB0BDE8000FF0BD0125A7E780B57C
S31502003F906F4600F005F8C00840EA4170C90880BDC6
S31502003FA0F8B504AF02AA0092044A4FF0CC3300F0EF
S31502003FB036FADDE9020104B080BD00BFCDCCCCCC1F
S31502003FC0F0B503AF2DE9000F8DB01E469046D2E93B
S31502003FD000230AAC0094490041EAD0744500284601
S31502003FE0214600F01CFAD8E90223824605912146B1
S31502003FF0DDE90AB908A80090284600F010FA1BEB82
S31502004000000B49EB0109DDE90A010496BBEB00004E
S31502004010CDF818A079EB0100DDE908125FEA2F90CE
S315020040204B1C42F10005002855EA128253EA11851B
S31502004030413E98E81B0015F1010C42F1000E13EB0C
S315020040400B0344EB090410EB0A0009920598089544
S31502004050079600968246484153F1000044F100015A
S31502004060B0EB0B0371EB09035FEA2F93002B5EEAB9
S3150200407012835CEA158200F0F3F9BA68C2E900011C
S315020040803869012828D1D8E90223D8E900EC07AD1E
S31502004090BBEB020269EB030331CD561E63F100014D
S315020040A000900698B0EB0E007AEB0C005FEA2F90B8
S315020040B0002856EA128051EA1381BBEB000279EB23
S315020040C001025FEA2F92631E65F10006002A53EA97
S315020040D0148256EA158342E0D8E900E04FEA4B0320
S315020040E0D8E9024543EADA7302904FEA4A01DDE96A
S315020040F008C01C1B069A0390049841EAD271A0F1EB
S31502004100400600964FEA490646EADB7666EB050567
S31502004110601E65F10008DEEB4202029A91415FEAF7
S315020041202F91002950EA148058EA15811A1A76EB63
S315020041300102039C5FEA2F92B3EB0B0376EB0903B2
S315020041405FEA2F93640043EA4C0344EADC745D1E83
S3150200415064F10006002A55EA138256EA148300F037
S315020041607FF9FA68C2E9000107AB49460DCB009018
S31502004170584600F075F90DB0BDE8000FF0BDF0B578
S3150200418003AF4DF804BD00230A2401220A25461B6B
S3150200419071EB030607D3A5FB045603EB8303013237
S315020041A006EB4303F3E710465DF804BBF0BDAAEB4A
S315020041B04101129113998246013113917047D4D469
S315020041C001494843800C7047413401000149484384
S315020041D0000D7047FB2E0B0002494843012101EBFB
S315020041E0D04070474F931200F0B503AF4DF804BDAF
S315020041F00A4B02460A4D4FF0FF304FF0CC3CA2FB71
S315020042000364013002FB0C4201FB0321721B71F1B4
S3150200421033323246F3D35DF804BBF0BDCDCCCCCC01
S3150200422034333333F0B503AF2DE9000F89B08A4634
S315020042301A21B0FBF1F2054602FB01FB2C4800EB0A
S3150200424002105D4502D100F0D3F84DE006A9294AD5
S315020042500091A5EB0B0152F8314002EBC101D0E906
S3150200426002234E6801680391416820460291314655
S3150200427000F0D5F8804604A8DDE9023289460090AE
S315020042802046314600F0CBF80E46DDE904120390D3
S31502004290002018EB010859EB020940F10000012841
S315020042A001D100F09DF82846FFF796FF04465846CE
S315020042B0FFF792FF241A0398314642464B46009472
S315020042C000F0CEF81E226FF0030302EA450203EA6B
S315020042D09503094DEB5800F093F800F099F8009415
S315020042E000F0BEF8CAE9020109B0BDE8000FF0BD50
S315020042F0D0550002A056000270570002F0B503AF77
S315020043002DE9000F89B08A46054619301A21B0FBFD
S31502004310F1F2304802FB01F600EB0210AE4202D186
S3150200432000F066F851E006A92B4A0091711BD0E90C
S31502004330009B52F8318002EBC101D0E902234C689E
S315020043404046214600F06BF8CDE9021004A8B9F107
S3150200435001026BF1000300904046214600F05FF82F
S315020043608B46DDE903310446002011EB0308059A6A
S31502004370029952EB010940F10000012801D100F037
S315020043802FF83046FFF728FF06462846FFF724FF98
S31502004390361A2046594642464B46009600F060F8C9
S315020043A06FF003030D4C03EA95031E2202EA45024F
S315020043B0E35800F025F8013041F1000100F028F839
S315020043C0009600F04DF8CAE9020109B0BDE8000FF7
S315020043D0F0BD00BFC8570002A0560002B85800023E
S315020043E0DDE906010130069041F1000007907047B1
S315020043F090E80E00C0688AE80E00CAF80C00704702
S3150200440023FA02F202F00302801841F1000170471A
S31502004410DDE90623CAE90001404649467047F0B580
S3150200442003AF4DF804BDA3FB0145D7F808E0A2FB94
S315020044300116A2FB00C25218744145F1000511464D
S315020044402646E3FB0016A3FB0003801854EB030089
S3150200445045F10000CEE9006060465DF804BBF0BDA0
S31502004460F0B503AF2DE9000BD7F80880164689464A
S315020044700546C8F140023046194600F021F80646C4
S315020044800C4628464946424600F02DF83043214361
S31502004490BDE8000BF0BD0A46002100F00AB8D0B50F
S315020044A002AF00239A4203D0CC5CC4540133F9E72D
S315020044B0D0BD00239A4208BF7047C1540133F9E7C1
S315020044C0930641BFA2F1200100FA01F100207047D4
S315020044D0002A1FBF9140C2F1200320FA03F31943B9
S315020044E018BF90407047930641BFA2F1200021FAFF
S315020044F000F000217047002A1FBFD040C2F12003FE
S3150200450001FA03F3184318BFD14070472DE9F04F63
S31502004510099D844681B1C2B16BB3B1FA81F7B3FA90
S3150200452083F6F71B202F50D3002D18BFC5E900C113
S3150200453000200021BDE8F08FD3B30021002D4AD020
S315020045400020C5E900C1BDE8F08F002B46D0002847
S315020045505CD05F1E3B4266D1002D1CBF07EA0100FC
S31502004560C5E900C093FAA3F0B0FA80F021FA00F090
S315020045700021BDE8F08F571E3A4232D1002D1EBFF0
S3150200458000230740C5E90073012A0ED092FAA2F26F
S315020045904F00B2FA82F202F01F03D140D8401F2325
S315020045A0934307FA03F343EA000C6046BDE8F08F33
S315020045B0B0FBF2FC002D1EBF0CFB12000021C5E968
S315020045C0000100216046BDE8F08F07F1010CBCF145
S315020045D0200F10D031E00020BDE8F08F6046BDE824
S315020045E0F08FB1FA81F7B2FA82F6F71B07F1210CC6
S315020045F0BCF1200F32D14FF000094FF0200C0D46CE
S315020046004FF0000ABCF1010F26D04DE0B1FBF3FCDE
S31502004610002D1EBF0CFB13100021C5E9001000215E
S315020046206046BDE8F08FB1FA81F7B3FA83F6F71B5D
S315020046301F2FBFF479AF07F1010C87F01F0720FA8D
S315020046400CF621FA0CF901FA07F5B84035434FF09A
S31502004650000ABCF1010F27D1002466E0BCF11F0F4E
S315020046600FD8CCF1200620FA0CF721FA0CF901FA40
S3150200467006F5B0403D434FF0000ABCF1010FEBD006
S3150200468012E0ACF12007CCF140044FF0000920FA09
S3150200469007F601FA04F52E4300FA04FA21FA07F5A1
S315020046A03046BCF1010FD7D02CF001070126023F9C
S315020046B04FF0000B06EB570E4FEA490444EAD57455
S315020046C06D0045EAD0754000E743E943891847EB98
S315020046D00308AF1A64EB0306B8F1000F56EA4484E6
S315020046E057EA4585640044EAD5746D0045EAD075FB
S315020046F040EADA70AE1A6FEA050164EB030789181D
S315020047004FEA40006FEA0401594157EA448956EAE2
S315020047104585CC0F4BEA4A010027A34640EAD170F1
S31502004720490041EAD87A0FF039C85FEACC711ED047
S315020047306F004FEA490147EAD07741EAD571B7EBF4
S31502004740020C4FEA400061EB030EFD4352196FEA79
S31502004750010656EB030240EADA705EEA41895CEA38
S315020047604785D10F44EA4A0200270C4692464FEA91
S31502004770DA7141EA400009994FEA4A02002918BF54
S31502004780C1E9005940EA070122F001002043BDE8D1
S31502004790F08FD4D440B584B002AE0096FFF7B6FED1
S315020047A0029A039B04B040BD33342E30652D545E0D
S315020047B0003154332E3465347A00436F72654D618D
S315020047C0726B2053697A65202020203A20256C7569
S315020047D00A00535441434B005B25645D6372636C6C
S315020047E0697374202020202020203A20307825303A
S315020047F034780A005B25755D4552524F522120736B
S3150200480074617465206372632030782530347820B1
S315020048102D2073686F756C642062652030782530B0
S3150200482034780A0073656564637263202020202051
S3150200483020202020203A203078253034780A002B98
S31502004840313232002D542E542B2B5471005B2564C9
S315020048505D63726366696E616C2020202020203AB7
S31502004860203078253034780A00324B207065726623
S315020048706F726D616E63652072756E207061726112
S315020048806D657465727320666F7220636F72656DF3
S3150200489061726B2E004D656D6F7279206C6F63616C
S315020048A074696F6E20203A2025730A002D3837343A
S315020048B0002D3131302E3730300049746572617403
S315020048C0696F6E732F5365632020203A2025660A8E
S315020048D00033352E3534343030005B25755D455254
S315020048E0524F5221206D617472697820637263207F
S315020048F0307825303478202D2073686F756C6420EB
S315020049006265203078253034780A0035303132003D
S31502004910696E66005B25755D4552524F5221206CC9
S315020049206973742063726320307825303478202DC1
S315020049302073686F756C6420626520307825303488
S31502004940780A00436F6D70696C65722076657273C2
S31502004950696F6E203A2025730A002E2E2F7372631A
S315020049602F68616C5F656E7472792E63005B2564D5
S315020049705D6372636D617472697820202020203A2B
S31502004980203078253034780A00352E353030652BC4
S315020049903300546F74616C2074696D6520287365E9
S315020049A06373293A2025660A000A546F6F6C63689E
S315020049B061696E207665723A25730A00506C6561EC
S315020049C073652070757420636F6D70696C657220F3
S315020049D0666C61677320686572652028652E672E8E
S315020049E0202D6F6661737429004552524F52212061
S315020049F04D757374206578656375746520666F728C
S31502004A00206174206C656173742031302073656394
S31502004A107320666F7220612076616C69642072650C
S31502004A2073756C74210043616E6E6F742076616CCF
S31502004A306964617465206F7065726174696F6E2056
S31502004A40666F722074686573652073656564207687
S31502004A50616C7565732C20706C6561736520636F7C
S31502004A606D70617265207769746820726573756C02
S31502004A707473206F6E2061206B6E6F776E20706C80
S31502004A806174666F726D2E00436F72654D61726B53
S31502004A9020312E30203A202566202F20257320250E
S31502004AA07300436F7272656374206F70657261740E
S31502004AB0696F6E2076616C6964617465642E205339
S31502004AC0656520524541444D452E6D6420666F72E0
S31502004AD02072756E20616E64207265706F727469E1
S31502004AE06E672072756C65732E0031323334006442
S31502004AF06174653A25730A74696D653A25730A66A7
S31502004B00696C653A25730A66756E633A25732C6C71
S31502004B10696E653A25640A68656C6C6F20776F72F8
S31502004B206C64210A0031363A33333A323600324B5C
S31502004B302076616C69646174696F6E2072756E208D
S31502004B40706172616D657465727320666F7220633F
S31502004B506F72656D61726B2E002E313233343530D1
S31502004B6030007465726D696E6174656420636F727C
S31502004B70656D61696E21005B25645D6372637374A2
S31502004B806174652020202020203A20307825303498
S31502004B90780A002D2E313233652D32004F63742090
S31502004BA02039203230323500737461727420636F9B
S31502004BB072656D61696E210072756E6E696E67212E
S31502004BC000436F6D70696C657220666C6167732055
S31502004BD020203A2025730A0050726F66696C6520A0
S31502004BE067656E65726174696F6E2072756E20708C
S31502004BF06172616D657465727320666F7220636F90
S31502004C0072656D61726B2E00497465726174696FAB
S31502004C106E73202020202020203A20256C750A0061
S31502004C20366B20706572666F726D616E6365207297
S31502004C30756E20706172616D657465727320666F40
S31502004C407220636F72656D61726B2E0068616C5FB4
S31502004C50656E747279002D3837652B38333200470A
S31502004C604343436C616E672031382E312E33002B5D
S31502004C70302E3634343030002B302E36652D31321C
S31502004C8000436C616E672031382E312E330054306A
S31502004C902E33652D3146006E616E00546F74616C61
S31502004CA0207469636B732020202020203A20256C13
S31502004CB0750A00202F202573004572726F727320C9
S31502004CC0646574656374656400366B2076616C692D
S31502004CD0646174696F6E2072756E20706172616DA7
S31502004CE0657465727320666F7220636F72656D619B
S31502004CF0726B2E00286E756C6C2900D4B0D44033CA
S31502004D00796A14E7C1E352BE99110856D71F4707BD
S31502004D10475EBF39A4E53A8E848DD4D40B4900028E
S31502004D20EA4A0002AC4800023F480002D1480002AB
S31502004D30594B0002B14800026F4C00028949000239
S31502004D40934B0002564C0002784C00028E4C000235
S31502004D5044480002B1470002A84700021C4D000267
S31502004D601C4D00021C4D00022C4D00022C4D00026F
S31502004D703C4D00023C4D00024C4D00020400000076
S31502004D800400000004000000080000000800000003
S31502004D900800000008000000080000005040002241
S31502004DA05440002200000022040000225840002243
S31502004DB00C000022000100001C0000220F00FFFF71
S31502004DC00000000101000000090200000C000C01B5
S31502004DD00C020C03000000000000000000000000AE
S31502004DE000000000B44D0002008000000000000038
S31502004DF000800000010000000080000002000000A8
S31502004E000080000003000000008000000400000093
S31502004E10008000000500000000800000060000007F
S31502004E20008000000700000000800000080000006B
S31502004E300080000009000000008000000A00000057
S31502004E40008000000B000000008000000C00000043
S31502004E50008000000D000000008000000E0000002F
S31502004E60008000000F0000000000000000010000AA
S31502004E70000001020101000000000103020100001E
S31502004E800000010303010000000000000A01000007
S31502004E90000001150B010000000001020C010000D8
S31502004EA0000001060D010000000401060E010000CB
S31502004EB0000401060F0100000000010001020000CB
S31502004EC000000103020200000000010303020000C9
S31502004ED000000103040200000000010305020000B5
S31502004EE00000011A0602000004000000070200008A
S31502004EF00000010008020000000001000902000093
S31502004F00000001000A020000000001000B0200007E
S31502004F10000001000C020000000001000D0200006A
S31502004F2000000103000300000000011A0403000050
S31502004F300000011A050300000000011A0603000022
S31502004F400000011A070300000000011A080300000E
S31502004F5004000000090300000000011A0A03000011
S31502004F600000011A0B0300000000011A0C030000E6
S31502004F70000000000D030000004000000E030000C8
S31502004F80000001060F0300000000010500040000F6
S31502004F9000000105010400000000011A02040000DD
S31502004FA00000011A030400000000011A04040000B4
S31502004FB00000011A050400000000011A06040000A0
S31502004FC0000001130704000000000113080400009A
S31502004FD00000011309040000040000000A04000096
S31502004FE0000000000B040000040000000C04000096
S31502004FF0040000000D040000000001040E0400007D
S31502005000000001040F0400000080000000050000FB
S31502005010008000000105000000800000020500007B
S315020050200000000003050000000000000405000067
S31502005030040000000505000000000103070500004A
S315020050400000010308050000050000000905000034
S31502005050050000000A0500000000011A0B05000009
S31502005060040000000C050000008000000D05000091
S31502005070000401070E050000000401070F050000E9
S315020050800000010300060000000001030106000003
S3150200509000000103020600000000010303060000EF
S315020050A000000103040600000000010305060000DB
S315020050B00004010609060000000001060A060000B7
S315020050C0040000000B060000000001030C060000AD
S315020050D0000001030D060000050000000E06000098
S315020050E0000001020F0600000000011A000700007E
S315020050F00000011A010700000000011A0207000061
S315020051000000011A030700000000011A040700004C
S315020051100000011A05070000000001090607000049
S3150200512000400000070700000000011A08070000FF
S315020051300000011A09070000000001040A07000026
S315020051400000011A0B0700000000011A0C070000FC
S315020051500000011A0D0700000000011A0E070000E8
S31502005160004000000F0700000000000000080000D9
S315020051700040000002080000004000000308000092
S31502005180000001020408000000800000050800007B
S315020051900080000006080000040000000808000065
S315020051A00400000009080000008000000C0800004E
S315020051B0040000000D080000000001130E080000A4
S315020051C0000001130F08000005000000000900009E
S315020051D000000000010900000400000004090000AC
S315020051E00000011A050900000000011A0609000064
S315020051F00000011A070900000000011A0809000050
S315020052000000011A09090000000000000B09000055
S31502005210000000000C090000040000000D09000057
S3150200522000000000000A000000000104020A00005B
S3150200523000000104030A000005000000040A000041
S315020052400000010D050A000004000000060A000025
S3150200525000000000070A000000400000080A0000E3
S3150200526000400000090A0000004000000A0A00008F
S31502005270040000000B0A0000000001050C0A0000F1
S31502005280000001050D0A0000000001050E0A0000DB
S31502005290050000000F0A00000000011A000B0000C2
S315020052A00000011A010B00000000011A020B0000A7
S315020052B00000011A030B00000000011A040B000093
S315020052C000400000050B000004000000060B000071
S315020052D000000000070B00000000011A080B000086
S315020052E00000011A090B00000000011A0A0B000057
S315020052F00000011A0B0B00000000011A0C0B000043
S315020053000000011A0D0B00000000011A0E0B00002E
S31502005310000001100F0C000000000110000D00003B
S3150200532000000115010D000000000115020D00002C
S3150200533000000115030D000000000115040D000018
S3150200534000000115050D000000000115060D000004
S3150200535000000115070D0000AE000000E84D000236
S31502005360000000000303040305030603020403040A
S315020053700404D4D400000068000000680000008025
S315020053800000008000000070000000702000002273
S31502005390200000220B000000AC530002190000009E
S315020053A0305400020400000074530002000000683A
S315020053B0000000680001000D00000068000000689F
S315020053C00001000D000000800000008000010008BE
S315020053D0000000800000008000010008000000704C
S315020053E0000000700001000A00000070000000705A
S315020053F00001000A00000000000000000100000594
S31502005400000000200000002001000004200000220D
S315020054102000002200000003504000221441002216
S315020054200000000314410022144100220000000380
S315020054300000006800000068000000900001090DED
S3150200544000000068000000680000007800010B0DF3
S315020054500000006800000068000000270001020D3D
S315020054600000006800000068500000020001010D03
S315020054700000008000000080000000900001090882
S3150200548000000080000000800000007800010B0888
S3150200549000000080000000800000002700010208D2
S315020054A00000008000000080500000020001010898
S315020054B00000007000000070000000900001090A60
S315020054C000000070000000700000007800010B0A66
S315020054D00000007000000070000000270001020AB0
S315020054E00000007000000070500000020001010A76
S315020054F00000000000000000000000900101090504
