S022000052413854325F4D434B5F6573635F455447353030335F435055302E737265635F
S31502000000A0680122A506010235050102A106010228
S31502000010A1060102A1060102A1060102A106010230
S31502000020000000000000000000000000A10601021E
S31502000030A106010200000000A1060102A1060102BA
S31502000040957F0022018000226D800022856F0022AA
S31502000050797A0022D57900220D7B0022597B002273
S315020000600000000000000000000000000000000088
S315020000700000000000000000000000000000000078
S3150200008034120000032000000002000000000000FD
S31502005000A0680122A506010235050102A1060102D8
S31502005010A1060102A1060102A1060102A1060102E0
S31502005020000000000000000000000000A1060102CE
S31502005030A106010200000000A1060102A10601026A
S31502005040957F0022018000226D800022856F00225A
S31502005050797A0022D57900220D7B0022597B002223
S3150200506010B508F0BDF81649164807F06BFB08F0B4
S31502005070DFF81549154807F0ADF808F0D9F8144BD2
S315020050801B685968186807F019FE08F0D1F811482C
S3150200509008F09EF800F0AAFD0F49104805F028F81E
S315020050A00F4B01221A701C4600F06AFF2378012B6F
S315020050B0FAD0074B1B68186807F0ACFDFEE700BF85
S315020050C0C019010260860122AC190102388601224A
S315020050D020A80022581801023684012238840122AF
S315020050E0F88301227047704708B506F05DF908F0AB
S315020050F09FF8024B01221A7008BD00BF9D81012252
S3150200510038B5154B1B78012B01D0002038BD0C4653
S31502005110124B1D880C3D06F083F908F089F8AC4263
S31502005120F3D00F4BD3F880100E4A1160D3F88410D7
S315020051305160D3F888109160D3F88C30D360042381
S31502005140083202210C2000F093FF06F03FF9064BCD
S3150200515001221A70D9E700BF9D810122EC84012247
S31502005160002000028C8101229C810122014B1870D1
S31502005170704700BF9C810122014B1878704700BF1F
S315020051809C81012208B50C4BD3F8DC30002B4FF082
S315020051900002B4BF03210221084807F0A7F9BFF3B2
S315020051A04F8F0749CA6802F4E062064B1343CB608D
S315020051B0BFF34F8F00BFFDE700E0134038860122A0
S315020051C000ED00E00400FA05104B1B789BB1104B72
S315020051D01B69D3F810390F4A516813600E4A1268D8
S315020051E09A4202D90B4A013151600B4A13600B4BAA
S315020051F000221A607047074B054A1269D2F8101945
S31502005200D2F8142919605A60F1E700BF46840122D8
S31502005210E4850122B0810122AC810122A88101220A
S3150200522070B515461E469DF8102041F2F8039842C5
S315020052300DD10C466AB971B9082D0ED8FFF7C4FF15
S315020052402A460749304607F0C7FF204600E00B20F2
S3150200525070BD0520FCE71120FAE70F20F8E700BF32
S31502005260B0810122014B1868704700BFA08101225C
S3150200527070B5194B1C686CB305F0FCF90FE0236995
S3150200528006EB460603EB46035A8802440F32C2F384
S315020052900F12A169A08C05F06BFB6468C4B1A38CE4
S315020052A0002BFAD0A589EEB2C5F303252146304676
S315020052B003F0CAFA0246092DE1D0082D04D0072DC3
S315020052C004BF23695A88E1E723691A890244DDE7A4
S315020052D005F00AFA70BD00BFA08101222DE9F04156
S315020052E0174B1E681EBBBDE8F0810135A8451BD0D1
S315020052F0EFB23946304603F00BFA0446838813F4BC
S31502005300807FF2D03146384603F09EFAC0F30F1082
S3150200531062880F32B18C0144B369120989B203EB78
S31502005320400005F023FAE0E77668002EDBD0B38C66
S31502005330002BF9D096F80C8008F101080025D7E772
S31502005340A08101222DE9F843194B1F6877B3DFF8D4
S31502005350649022E00136B0451DD0F5B229463846A2
S3150200536003F0D6F90446838813F4807FF2D03946D7
S31502005370284603F069FAC0F30F1362880F32B9693F
S31502005380B88C1844120901EB430180B205F0F0FA19
S31502005390C9F80400DEE77F6847B1BB8C002BFAD060
S315020053A097F80C8008F101080026D6E7BDE8F883D5
S315020053B0A0810122A49D002210B59DF8084084B95F
S315020053C089B1198846F2731291420ED15A8846F271
S315020053D076539A4201D0122004E0FFF7B3FF20462B
S315020053E000E0052010BD0720FCE71220FAE708B509
S315020053F005F0BAF9FFF772FF08BD10B59DF808402F
S3150200540084B989B1198846F66C7291420ED15A88CE
S3150200541046F261439A4201D0122004E0FFF7E7FF09
S31502005420204600E0052010BD0720FCE71220FAE71F
S3150200543070B506460C4603F007FAC0F30F1531465F
S31502005440204603F065F942880F32A169A08C2844F0
S31502005450120901EB450180B205F08AFA014B586048
S3150200546070BD00BFA49D0022104B5B8DCBB90F4BC4
S315020054701B8D0F4A1289934294BF002301230B4AC4
S3150200548082F840300B4B5B8D6BB90A4B1B8D084A79
S315020054901289934294BF00230123064A82F84030C0
S315020054A070470123EBE70123F7E700BF38850122A6
S315020054B014A80022F4840122002831D010B4044634
S315020054C0184B1B6863B101891A898A420ED81A8958
S315020054D0914223D0914213D35A68D2B11346F6E7CA
S315020054E0104B186000206060206006E000202060FB
S315020054F00C4B1A68626014601C605DF8044B7047BE
S315020055001A68226063601A6802B154601C60002047
S31502005510F3E75C60236000206060EEE70120ECE7C1
S3150200552001207047A08101220D4B1B682BB11A89FD
S31502005530824203D05B68002BF9D1704719685A681A
S3150200554001B14A6002B11160002119605960044933
S315020055500868198903899942EFD1014B1A6070478D
S31502005560A081012210B5064B1C682CB12089646803
S31502005570FFF7DAFF002CF9D1014B00221A6010BDA9
S31502005580A081012238B502894FF6FF739A420CD0E8
S3150200559004461D462046FFF78FFF024618B92834F7
S315020055A02389AB42F6D1104638BD0022FBE7000044
S315020055B008B50D4B00221A600C48FFF7E3FF0346BD
S315020055C008B1184608BD0A48FFF7DCFF0346002863
S315020055D0F7D10848FFF7D6FF03460028F1D106485F
S315020055E0FFF7D0FF0346ECE7A0810122449B00228D
S315020055F09CA60022049E0022B4A7002208B52E4AC9
S315020056004FF0200CA2F800C000235380536044F2EE
S315020056101F00908129491161536193831362138597
S31502005620538582F84030264AA2F800C05380536060
S31502005630908111615361938313621385538582F8B6
S315020056404030204A1370FFF7B3FF38BB00231E4ACF
S3150200565013701E4A13701E4A13801E4A13701E4A86
S3150200566013601E4A13601E4A13601E4A136005F039
S315020056702FF8B0B1FFF732FE05F028F81A4B586042
S315020056801A4B1B699A6812F0080F0DD0184B0022AC
S315020056901A70184B4FF47A621A6008BDFFF762FF60
S315020056A0D4E7FFF7E5FDE5E7114A01211170D3F8CA
S315020056B01029114B1A60ECE73885012220A1070058
S315020056C0F48401227E850122C8850122C785012232
S315020056D0C4850122C6850122C0850122BC8501221C
S315020056E0B8850122A4850122A49D0022E485012217
S315020056F046840122A8810122AC81012210B582B022
S31502005700224B1C68002C29D0214B1B780093214B7D
S315020057101B68214A12682149097821480088A04756
S315020057200446FF281AD01F4B1B78022B23D017D80A
S31502005730012B04D100221146204604F0B3FA0023BD
S31502005740184A1370164A1380144A1370124A1360C9
S31502005750104A13600E4A13700C4A136002B010BD51
S31502005760033BDBB2012BEAD80A4B1A680A4B1968CB
S3150200577004F098FAE3E70C4B18680028DAD007F031
S315020057803BFD094B00221A60D4E700BFB88501220F
S31502005790C7850122BC850122C0850122C685012258
S315020057A0C4850122C8850122A485012202460A4B2C
S315020057B01B69D3F8100910B1904209D3801A32B18D
S315020057C0064B1B68C21A834234BF1046002070473C
S315020057D0431E981AF4E700BFE4850122CC83012216
S315020057E038B5194B1B69B3F82032184B9B8B184AF4
S315020057F0928B134313F0010F23D00020FFF7D6FF3D
S315020058000446144D284604F001FD134B1B880E4A2C
S315020058101069124A12882946184407F0DDFC0B4B20
S315020058209B8B0B4A928B134313F0010F08D0204631
S31502005830FFF7BCFF064B5B6983423CBF044B5861D2
S3150200584038BD0024DDE700BFE48501223885012248
S31502005850F4840122C48101222A840122388401228D
S3150200586008B50F4B1B783BB90E4B186828B90020B8
S31502005870FFF79CFF0B4B186008BDFFF797FF094B1C
S315020058801860094B5B680BB1984201D2064B58600F
S31502005890064B5B680BB19842E9D2044B5860E6E7C7
S315020058A062840122D483012238850122F4840122F2
S315020058B038B51C4B9B8B1C4A928B134313F0010F7A
S315020058C02DD00020FFF772FF0446184B1860184BC4
S315020058D001221A70174B00221A60FFF7C1FF164DFC
S315020058E0164B1B88164A1169164A1288194428460D
S315020058F007F072FC284604F0C1FC0A4B9B8B0A4A4D
S31502005900928B134313F0010F08D02046FFF74EFF88
S31502005910044B5B6983423CBF024B586138BD00248D
S31502005920DDE700BF38850122F4840122D0830122FB
S31502005930C8830122C4830122C48201222C8401224B
S31502005940E48501223684012208B50D4B00221A8015
S315020059500C4B1B78012B03D00B4B00221A8008BD7F
S315020059600A4B1B88002BF7D0094B5B88032BF3D11C
S31502005970084B1B88002BEFD1FFF732FFECE700BF85
S315020059804E84012265840122488401223884012240
S31502005990F48401224A84012238B56B4B1A787AB113
S315020059A06A4B01221A706A4B00221A70694B1969F6
S315020059B010231F2201F23911002007F0FCFBBDE083
S315020059C065490B8801339BB20B80322B13D0642BB3
S315020059D011D0962B0FD0C82B40F0A2805F490978D0
S315020059E001F00F01023906296AD8DFE801F0A8158D
S315020059F0AA69696967005949097801F00F010239F4
S31502005A00062951D8DFE801F04F080450505006002D
S31502005A10412249E0012247E06021514801701046C7
S31502005A200A4652E012F0400F16D0484C2178B1FADD
S31502005A3081F149092170002850D04A480188013174
S31502005A4089B20180012949D920460024047005291A
S31502005A5044D944490C8041E002F001013B480170FF
S31502005A603CE012F0400F19D0394C2078B0FA80F0A1
S31502005A704009207000294CD03B4C2088013080B26E
S31502005A802080884245D9D409314D2C700431C9B2DF
S31502005A9081423EDA3449002008803AE002F00101F0
S31502005AA02B48017035E040222D490A70C82B0AD0D6
S31502005AB02E4A127812F0200F19D131E00122F3E7B3
S31502005AC027490020087002F01F00294909789142EF
S31502005AD0A8D001211D4801702248018024490A707C
S31502005AE0224A127812F0200F01D1C82B18D112F0D7
S31502005AF01F0102D049000139C9B21E4800789042FE
S31502005B00AFD0D143C1F3C01111480170164901202B
S31502005B10088018490A70C82B02D10F4B00221A803E
S31502005B200B4B1B78002B3FF441AF0A4B19691F231D
S31502005B30102201F23911002007F03DFB38BD402248
S31502005B40B2E74122B0E700BF66840122FA8301224E
S31502005B50F9830122E4850122C081012231840122D6
S31502005B603A840122BC810122B88101223B840122AE
S31502005B70BE810122BA81012208B5154B1B783BB1C1
S31502005B80144BB3F90030002B02DD013B114A13809E
S31502005B90FFF702FF01F0DCFE0F4B1B7823B10F4B20
S31502005BA01B680F4A9A420DD30C4A136851680D4876
S31502005BB01B1841F10001136051600B4A136801334F
S31502005BC0136008BD084B4FF47A621A60F5E700BF0E
S31502005BD03E8401226084012246840122B081012290
S31502005BE040FBE1FF40420F00A881012238B5294B54
S31502005BF0294A1A60294B2A4A1A600023294A136045
S31502005C00294A2A4911602A4A2A4911602A4A1360F6
S31502005C102A4A13602A4A136001F048FFFFF7EEFC96
S31502005C20284B1C69B4F8002512F0010F05D093B277
S31502005C3023F480739BB2A4F80035234B01221A7019
S31502005C400022224B1A70224B1A60224B1A60224BF8
S31502005C501A6015464FF0010C4FF47A7003E01A46AB
S31502005C606546013811D0D4F81039D4F810198B4290
S31502005C7088BF01F1FF31CB1A002AF0D09A4292BFB7
S31502005C801146194665460A46EBE70DB1124B1A60F4
S31502005C90002038BDF48301227D540022F0830122C4
S31502005CA021550022EC830122E8830122AD55002210
S31502005CB0E483012255550022E0830122DC8301227E
S31502005CC0D8830122E4850122C2810122C8830122EE
S31502005CD0D4830122D0830122CC83012208B5084B4A
S31502005CE09B8B084A928B134313F0010F02D0064B8B
S31502005CF01B8813B104F0AEFB08BDFFF7B1FDF9E74F
S31502005D0038850122F48401223684012210B53D4BE6
S31502005D1000221A803C4B1B7843B13C4B1B78012B6B
S31502005D2007D03B4B1B88EBB9FFF7D8FFFFF79CFB6D
S31502005D3010BD384B1B88002BF3D0374A1288002A35
S31502005D40EFD0364A1288934202D9013233490A8089
S31502005D50324A14889C4214BF002401242C4B1B880F
S31502005D60E3B100E000242E4A12889A4224D92D4932
S31502005D700988002935D02C4B1B8D2C4A12899A4250
S31502005D800CD30333284A138508E00023244A1380E0
S31502005D90274A138502E00132214B1A80FFF79EFF44
S31502005DA0002CC3D0FFF71CFD1A4B1B88012BBDD15B
S31502005DB01A4B00221A80B9E71A4909880029EAD142
S31502005DC0154909880029E6D01A490969B1F820124D
S31502005DD011F4006FD9D19A42E0D80132104B1A80E1
S31502005DE0DCE70D4800880028D8D00029D6D1104912
S31502005DF0098D0E4800898842E6D303310C48018595
S31502005E00E2E700BF528401226284012265840122F4
S31502005E105A8401224A8401223884012248840122BA
S31502005E205C840122368401223885012214A80022CC
S31502005E30F4840122E485012230B583B0424B1B690A
S31502005E40B3F820329CB213F0080F63D100253F4B02
S31502005E501B78002B4FD014F4806F28D03C4B1B7854
S31502005E602BB13C4B1B7813B13B4B00221A803B4BA8
S31502005E701B8D13B1013B394A1385384B1A8D384BAA
S31502005E801A85384B01221A70374B1B78002B45D1E5
S31502005E902D4B1969354B18880B5CDBB2344A1370EB
S31502005EA0344B1B880344013BCB5CDBB213702B4B98
S31502005EB05B88012B35D0304B1B78012B34D0224B1B
S31502005EC01A69B2F820329CB213F4806F13D02349B8
S31502005ED04B8D01339BB24B8521494B85234B188849
S31502005EE0135CDBB222490B70224B1B880344013B35
S31502005EF0D35CDBB20B7014F0040F22D135B1002350
S31502005F000193114B1B69D3F88C390193FFF7ACFA55
S31502005F1003B030BDFFF718FD012598E7FFF7C8FC6F
S31502005F20C5E7FFF7DBFEC6E7144B1B88002BC6D07E
S31502005F300B4B5B88012B01D0222BC0D1FFF750FC03
S31502005F40BDE7FFF7E3FEDAE7E48501224584012295
S31502005F505E840122628401225C8401223885012248
S31502005F60F484012264840122668401222C840122A3
S31502005F702584012236840122658401223884012285
S31502005F8008B5304B1B7853B32F4B1B78002B42D0EE
S31502005F902E4B1B782E4A127813430BD12D4807F04D
S31502005FA0BDF8FFF79BFE2C4B1B78012B23D029480B
S31502005FB007F092F8274807F0E8F8B0F57A7F21D281
S31502005FC0264B1B68B3F57A6F22D201F0FFFDFFF76D
S31502005FD095FB01F029FD224B1B6803B1984708BDCA
S31502005FE0204B1B88002BD9D112F4006FD6D0174B49
S31502005FF001221A70D2E71C4B1B88002BD7D0FFF761
S31502006000EFFBD4E7FFF7B8FD124807F0BBF8D7E776
S31502006010FFF7DAF8D9E70E4B1B78002BCAD10D4BE6
S315020060201B69B3F820329AB213F4806FD8D0074BAB
S3150200603001221A700D4B1B78002BAFD0FFF738FCEC
S31502006040ACE700BFC2810122458401226484012299
S3150200605062840122E485012265840122A88101224B
S31502006060D8830122368401223884012266840122E1
S315020060702DE9F04F87B0019299465C4B1B69B3F844
S315020060800055B3F8022592B2ADF8162015F00105B7
S3150200609000F0A78082460C46B9F1020F0ED04FF4EB
S315020060A08072A3F80025002C63D06B0002930A23AA
S315020060B0009300273E46DFF834B123E0BDF81620F0
S315020060C012F0400F0CBF02250425E8E74FF4807357
S315020060D0ADF81630BDF816309BB2A1F8023526E0AF
S315020060E0B9F1020F4ED0BDF8163003F4F043002B7F
S315020060F057D1AA442F44BFB22E44B6B20A23009304
S31502006100A6426CD2DBF81010C1F804A5B9F1020F51
S31502006110DCD0019B33F81630A1F808354FF4007332
S31502006120ADF81630BDF816309BB2A1F802356423DD
S3150200613043F001E0013BDBB20FF005C0B1F80235D6
S315020061409BB2ADF81630BDF8163013F4004FEED1FF
S31502006150B1F802359BB2ADF81630BDF8163003F42D
S31502006160F043002BBCD0BDF8163013F4005FBAD151
S3150200617051241E4B1B690022A3F80025204607B0B6
S31502006180BDE8F08F7B19029AA34202DDE21B5200A0
S3150200619092B201F5A161019B03EB460007F01CF8E0
S315020061A0A1E7009B013B13F0FF0300931BD0584667
S315020061B006F0EBFF42F2107803960646584606F0C2
S315020061C0E4FFB0422EBF831B00F1FF339B1B9BB241
S315020061D0A8EB0308B8F1000FEFDC039E90E700245A
S315020061E0C7E75024C5E75124C3E700BFE48501226F
S315020061F00023024A1360024A13807047FC8301227D
S31502006200A285012208B5C3881B0B013B072B0DD8BB
S31502006210DFE803F00406040404040409042008BDAC
S3150200622003F0DCF9FBE703F0FBFDF8E70520F6E7F0
S3150200623010B5114B186838B1022102F047F8B0B90F
S315020062400D4B00221A6013E04FF4807006F0E0FF57
S31502006250844670B1094C034620686168A26807C388
S31502006260A2891A80604603F0DBFD002000E00020D0
S3150200627010BD0720FCE700BFFC830122A88501228E
S315020062800023034A1380034A1360034A13607047CC
S3150200629008840122148401220484012238B5038869
S315020062A0052B40F24B810446991F89B2C388013BF4
S315020062B0052B00F20781DFE803F003415A76B5C4E5
S315020062C09F4B1B8813B148F2040277E00C306289B7
S315020062D0238943EA0243024601F01AFD0246994B1C
S315020062E00021196047F69573984219D8964B0121F9
S315020062F01960964B1860944B1B680321A17100210B
S31502006300E17123811B0C6381931D2380904B1B88B3
S315020063100C3B9A428A4B0CBF012204221A80B6E039
S3150200632047F6FA73984200F2D080002386490B6042
S3150200633086490B60824B012119809CE0804B1B88A9
S3150200634013B148F2040239E04289038943EA024260
S315020063500C3001F0F1FC024628B97B4B00221A6090
S3150200636047F6FD72B8E0784B002119607AE0744B6B
S315020063701B8823F004039BB2022B02D048F20402CC
S315020063801CE04289038943EA02436F4A12689A4231
S3150200639002D048F2050211E00C3001F0D9FC0246A7
S315020063A00028DDD05EE0664B1B88012B25D0042B2E
S315020063B048F2040247F6FE7308BF1A4612F4004F6B
S315020063C000F0A18000230521A171E3712281A3724D
S315020063D0E372062222706370102103F0FE02224449
S315020063E0928912F0FF0F00F09880FF2A40F2938004
S315020063F00233DBB20139F0D192E0544D00F10C01C7
S31502006400286801F0C1FC02462B684E490B6047F62C
S31502006410957188422BD803442B604B490B68013394
S315020064200B6068E7464B1B8813B948F20402C5E7BE
S315020064304089238943EA004001F0BCFC47F6FF721B
S31502006440BCE73F4B1B88012B04D0042B02D048F239
S315020064500402B3E704F10C023A4B1968208901F0F1
S31502006460A3FC024647F695739A427FF644AF47F677
S31502006470FA739A4229D800230621A171E371A2F583
S31502006480FF42163A2281A372E37221706370314B86
S315020064901D78002D48D0637903F00F032E4A127837
S315020064A012F0070F02D12C4A012111702A490A78EB
S315020064B043EA0213637101320A70204601F0F6FDC7
S315020064C0002038BD48F20402D1E7A2F5FF437C3B27
S315020064D09BB2012B3FF672AF1B490B68581C086032
S315020064E000210420A071E17123811B0C6381062324
S315020064F02370617047F6FD739A42114B0CBF02225C
S3150200650000221A80C3E700250D4B1D80204606F0A7
S3150200651073FE2846D5E70133DBB20733DBB22380AD
S31502006520074B00221A80B2E74021204601F0CEFE38
S315020065300028C6D0094B1C602846C2E70620C0E7E1
S31502006540088401220C84012214840122108401226F
S31502006550EE84012267840122E58401220484012259
S3150200656008B5054B186830B1402101F0AFFE10B9ED
S31502006570014B00221A6008BD0484012238B5084C7A
S315020065802369B3F8043200EA0305204606F0C6FD85
S315020065902369A3F80452204606F09EFD38BD00BFCB
S315020065A0E485012238B5084D2B69B3F80442A4B23A
S315020065B00443284606F0B2FD2B69A3F80442284696
S315020065C006F08AFD38BD00BFE4850122054B1B6932
S315020065D0B3F8023503F4C053B3FA83F35B09024AF4
S315020065E013707047E485012218840122074A00F5D8
S315020065F08070074B196901EBC00C134651F8300045
S31502006600DCF8041003C31046704700BF1C84012245
S31502006610E485012282B001238DF80730C00000F61E
S315020066200700094A11699DF80730DBB20B5412695B
S3150200663002441378DBB28DF807309DF8073013F069
S31502006640010FF6D002B07047E485012282B0002322
S315020066508DF80730C00000F60700094A11699DF857
S315020066600730DBB20B54126902441378DBB28DF8A1
S3150200667007309DF8073013F0010FF6D102B07047CC
S31502006680E4850122F8B57B4B1A8842F6FE739A42DC
S3150200669040F2CE8004460020FFF7A8FF837913F06C
S315020066A0010F00F0C880037903F00C02042A01D01E
S315020066B01625BEE013F0020F00F0BF804388223B8E
S315020066C09BB2DE2B00F2BB800388A3F580539BB2FC
S315020066D0B3F5005F80F0B5800120FFF787FF83796D
S315020066E013F0010F00F0AF80037913F00C0540F0B0
S315020066F0AC8013F0020F00F0AA804388223B9BB2C3
S31502006700DE2B00F2A6800388A3F580539BB2B3F575
S31502006710005F80F0A080032C13D8032C49D0564B7F
S315020067201B78A34240F28580544F534E2046FFF712
S315020067305DFF83793B700134E4B23378A342F5D826
S3150200674077E04F4B01221A700320FFF74FFF438871
S315020067500188827912F0010F27D0002B7DD0494A99
S3150200676012889A4201D01E2563E0B3F5807F76D85F
S31502006770027912F00C0F74D1434B1B78022B05D011
S31502006780424B1B888B4209D01E2552E0A1F580534D
S315020067909BB2B3F5005F01D31E254AE012F0020F49
S315020067A007D0374B00221A7003E0364A1288134389
S315020067B059D10220FFF71AFF43880188827912F025
S315020067C0010F2ED0002B50D0314A12889A4201D0A6
S315020067D01D252EE0B3F5807F49D8027902F00C031D
S315020067E0042B01D01D2524E0274B1B78022B05D054
S315020067F0284B1B888B4209D01D251AE0A1F5805330
S315020068009BB2B3F5005F01D31D2512E0C2F38011DE
S31502006810214B197012F0020F81D0194B00221A7007
S315020068207DE71B4A128813433FF479AF1D2500E02A
S3150200683014252846F8BD1625FBE71625F9E7162581
S31502006840F7E71625F5E71625F3E71625F1E71625E8
S31502006850EFE71625EDE71625EBE71E25E9E71E25E8
S31502006860E7E71E25E5E71E25E3E71D25E1E71D25EA
S31502006870DFE700BF3284012234840122248401220C
S315020068804484012238840122318401222A8401228D
S31502006890368401222C840122638401222DE9F041EF
S315020068A0964B9C89964B9D890023964A1380964A5D
S315020068B013700220FFF79AFE0288944B1A8003791E
S315020068C013F0020F14BF012603260320FFF78EFEE4
S315020068D003888F4A1380027912F0020F14BF012235
S315020068E003228C490F8807FB02328B4909888A42A8
S315020068F005DD8A48008808448342C0F275818848CB
S315020069000088824205DD874A128802449342C0F219
S315020069106D817E4AB2F800C0834A128806FB02C61F
S31502006920B14207DADFF8F4E1BEF800E071448C45C3
S31502006930C0F25E81B04205DA7A49098801448C4583
S31502006940C0F25881B34203DA3B449C45C0F25481FB
S31502006950764B196991F881395FFA83FED1F8A0095D
S31502006960D1F8A489654EB6F802C0654E768813F052
S31502006970090300F051821EF0020F00F03F812C4005
S315020069800CD014F0040F00F03B8114F0080F05D16F
S315020069901EF0040540F0368108B90EE040B1574BAF
S315020069A01B699842C0F03081614B984200F22E81F9
S315020069B00EF00603062B32D000255E4B1B78002B09
S315020069C053D01EF0040F59D1BCF1030F00F02681FB
S315020069D0032E00F025811EF0020F2DD0BCF1020F0E
S315020069E040F02B82454B58625860454B58625860BE
S315020069F0514B1B7813B9002E00F0188101244F4B1E
S31502006A001C70002A67D03F4B4FF480671F80ACF1A1
S31502006A1002039BB2012B40F2C681634646E0B8F1FF
S31502006A20000F00F01582404500F2148214F0100F98
S31502006A3000F0EE800125C0E7BCF1020F00F0F28003
S31502006A40022E00F0F180BCF1030F40F0F68118E04F
S31502006A5032B1002F0CBF3E4622264FF0010CECE16C
S31502006A603E1E18BF01269446E7E1002A00F0A081E7
S31502006A7005F1020C5FFA8CFC3E462FB9BCF1030FFE
S31502006A80ACD14FF0030CADE71EF0040F0CBF02268B
S31502006A900326F3E794460326A0E74CEA06039BB2D5
S31502006AA0002BABD1254C24781E4694B9B71EBFB233
S31502006AB0012F4BD9114F7B80114B5E800023204E54
S31502006AC03380204E3380204E3380012D40F0FB80F0
S31502006AD054E09C4695E71FB10A4B4FF400671F80AE
S31502006AE0ACF102039BB2012B40F2C580B31E9BB2EE
S31502006AF0012B40F2B1816346DCE700BF38850122F3
S31502006B00F484012228840122648401222C84012235
S31502006B102A84012238840122E8840122EE84012299
S31502006B20EA840122EC84012236840122E4850122D0
S31502006B30000050C37E85012244840122458401223D
S31502006B40488401225A8401225C8401229B4F4FF021
S31502006B50010C87F800C0002A00F09180984F7B80D4
S31502006B60984B5E800023984F3B80984F3B80984F0E
S31502006B703B80984F3B80012D40F0A38000EB080339
S31502006B80404511D8B3FBF0F6B5B200FB16332BB174
S31502006B908F4B1D8001358C4B1D8097E06E1C8C4BF4
S31502006BA01E80894B1D8091E0894D01262E80B3FB04
S31502006BB0F0F6B5B2844F3D8000FB1633002B00F091
S31502006BC08580E7E70123D7E001238349098803EBA0
S31502006BD0510382490B80D9E00220FFF737FDD8E046
S31502006BE00320FFF733FDD9E01E20DAE01E20D8E0AD
S31502006BF01D20D6E01D20D4E01D20D2E03020D0E0BA
S31502006C003020CEE03020CCE03620CAE03620C8E084
S31502006C103020C6E03020C4E03020C2E03020C0E0A0
S31502006C203020BEE03020BCE03020BAE02920B8E0B7
S31502006C301F20B6E01F20B4E01EF0040F00F0A6806D
S31502006C404044674B9842BFD943096649A1FB0313E7
S31502006C50DB095B006449A1FB0313DB08B5E7634B61
S31502006C6000211980624B1B78002BE1D1002C55D0F4
S31502006C70002A53D04DE0514B01271F7063465D4FEA
S31502006C804FF0000CA7F800C04D4F7B804D4F7E8021
S31502006C900027DFF834C1ACF80070DFF830C1ACF879
S31502006CA00070DFF82CC1ACF80070DFF828C1ACF830
S31502006CB00070012D3FF462AF022B02D1444B012535
S31502006CC01D80032E02D0404B01251D804A4B002514
S31502006CD01D80B1F82054ADB2002AC0D0002DBED01E
S31502006CE0B1F8001489B20029B9D0023146F2A713CD
S31502006CF001FB0533DB084149A1FB0313C3F30F2351
S31502006D003A490B80002BADD0394B1B78002B91D022
S31502006D1024B138490B8843F480630B8000232E4943
S31502006D200B8037490B8037490B802C490B8036493B
S31502006D300B7036490B7036490B8022490B854B8501
S31502006D4081F840301E490B854B8581F840301EF094
S31502006D50020F1BD000283FF46FAF214B98427FF6FB
S31502006D6031AF43091F49A1FB0313DB095B009BB249
S31502006D701D49A1FB0313DB0817490B801EF0040F04
S31502006D8004D040457FF65CAF14490B80002A7FF49D
S31502006D9023AF204B1B88002B7FF422AFFEF720FD8A
S31502006DA00020BDE8F081054B01271F7063466BE7A3
S31502006DB0002F56D12B463E46BC463DE06284012258
S31502006DC038850122F48401224A8401224884012260
S31502006DD05A8401225C840122508401224C840122BD
S31502006DE01FA10700C55A7C0ACDCCCCCC2E84012229
S31502006DF063840122288401227C85012289B5F81444
S31502006E00528401224E8401225E8401225884012288
S31502006E105684012238840122154C2578002D3FF430
S31502006E2017AEACF10204A4B2012C7FF6F3AEB41E87
S31502006E30A4B2012C7FF6F0AE1D460E4B1B78002B3A
S31502006E407FF42BAEBCF1000F7FF4D5AD2920A8E765
S31502006E500025B2E50025B0E5074B01271F70634602
S31502006E600DE71EF0040F7FF415AE9446022605E6E2
S31502006E707E8501224484012262840122104B1A7803
S31502006E8002F00F024FF48B73D34013F0010F13D1AC
S31502006E900C4B1B782BB10C4BC8221A800B4B0022D1
S31502006EA01A800B4A0023138582F84030094A13855B
S31502006EB082F84030FF207047074B1888704700BFA2
S31502006EC040840122628401225684012254840122D2
S31502006ED038850122F4840122428401220023024AD7
S31502006EE01370024A13707047648401226684012279
S31502006EF008B5214B1B88002B35D1204B1B88002B54
S31502006F0035D14FF2F330FFF739FB00231C4A1370D9
S31502006F101C4A13701C4A13701C4A13701C4A1370C5
S31502006F201C4A13801C4A13801C4A13801C4A138075
S31502006F301C4A13801C4A13801C4A13801C4A138065
S31502006F401C4A1385538582F840301B4A13855385A4
S31502006F5082F84030194A1380194A1370194A13707D
S31502006F60194A137008BD0220FFF754FBC5E7032038
S31502006F70FFF750FBC5E700BF3684012238840122A1
S31502006F806484012245840122628401225E840122F4
S31502006F90588401225A8401225C84012250840122EF
S31502006FA0528401224E8401224C8401224A84012207
S31502006FB04884012238850122F48401225684012262
S31502006FC063840122658401227E850122344B1B786B
S31502006FD083421CBF324B1870324B1B78BBB1304B0D
S31502006FE01B7813F0100F12D1002948D103F00F02BB
S31502006FF0032A3ED02C4A118843F02003284A1370F4
S315020070002A4A1269A2F83411A2F830310FE0244A52
S31502007010137803F0DF0313704FF6FF72914214D018
S31502007020224A1269A2F83411A2F8303189B9002233
S315020070301F4B1A7070471F4B1B7823B91B290CBFB5
S3150200704042224022F4E74122F2E7184A1269A2F8E4
S31502007050303110F0100FEAD0A1F11A039BB2182BAF
S31502007060E9D8154A22FA03F313F0010FE3D04122BD
S31502007070DEE70B4A137803F0DF031370D0E7084A02
S31502007080137803F0DF0313704FF6FF729142DCD0E0
S31502007090064A1269A2F83411A2F83031D9E700BFC4
S315020070A0318401223084012226840122E4850122D0
S315020070B03B84012240840122010008012DE9F041AE
S315020070C084B00E46844B4FF6FF721A80834B012220
S315020070D01A7010F010072AD0814B1C7804F0EF04C6
S315020070E017467F4B1C7000F00F0505EB041404F0E5
S315020070F0FF04482C2FD8212C26D9A4F12203262BB3
S3150200710041D8DFE803F023402F4040404040404052
S315020071104040404040404040404040404040404067
S3150200712040404040404023403740404037006C4B8F
S315020071301C7814F0100F04D000F00F03012B40F05E
S31502007140C98204F00F04CCE7122C1CD10220FFF7EF
S3150200715099FA804613E0842C0CD0882C0AD0822C13
S3150200716011D1F3E75F49604802F0C2FF804600286A
S3150200717040F0EC815D4B1878FFF784FA8046B8F14F
S31502007180000F40F0E3815A4B00221A80A4F111034A
S31502007190772B00F27082DFE813F0B601D700780091
S315020071A038026E026E026E0238026E026E026E02C3
S315020071B06E026E026E026E026E029A01B901380208
S315020071C00A016E026E026E0238026E026E026E02D2
S315020071D06E026E026E026E026E02C10038026E020C
S315020071E038026E026E026E0238026E026E026E0283
S315020071F06E026E026E026E026E028E017801380215
S31502007200B9016E026E026E022C016E026E026E02EF
S315020072106E026E026E026E026E026E026E026E02E6
S315020072206E026E026E026E026E026E026E026E02D6
S315020072306E026E026E026E026E026E026E026E02C6
S315020072406E026E026E026E026E026E026E026E02B6
S315020072506E026E026E026E026E026E026E026E02A6
S315020072606E026E026E026E026E026E026E026E0296
S315020072706E026E026E026E026E0283016D013802AA
S3150200728063016E026E026E02B9011A4B01221A7076
S315020072900020FDF76BFF0220FFF7F4F928B1154B2A
S315020072A000221A704FF01508E7E10020FFF766F991
S315020072B000F00AFE8046F8B1B8F1FF0F04D0074B82
S315020072C01B7843B300F054FE0320FDF70BFF094B76
S315020072D000221A7061E000BF608401223F8401220D
S315020072E03184012236840122388401223484012227
S315020072F03C84012267840122AA4B00221A7002F002
S31502007300EAFE80460028D7D1A74B01221A70032035
S31502007310FDF7E8FE95E002F0E0FED3E7A34B1B780B
S315020073203BB94FF00008FDF7DEFEA14B00221A70B2
S31502007330D6E000209D4B1870FFF720F900F018FEEA
S3150200734002F0CBFE8046EEE7FFF740F9994B1B7839
S31502007350DBB100F0B9FD804640B1B8F1FF0F16D09F
S31502007360904B1B7873B100F003FE10E08D4B0022A8
S315020073701A7002F0B0FE80460028EED18A4B012236
S315020073801A7004E002F0A9FEEDE74FF0510802235D
S315020073906A4608210846FEF76BFEB8F1FF0F40F079
S315020073A0A380854B01221A70844B1C80EFE0FFF705
S315020073B075FA804648B1B8F1FF0F00F04D81794B5E
S315020073C01B789BB1FFF794FD8EE0764B00221A7074
S315020073D07B4802F084FE80460028ECD1784B188860
S315020073E0FFF7E0F8774B01221A702AE002F079FEE5
S315020073F0E8E72FB1744B1B8883B9744B1B888BB992
S31502007400FFF73CFD804688B1B8F1FF0F00F02481FA
S31502007410644B1B780BB3FFF761FD65E00220FFF7B3
S3150200742015F9EDE70320FFF711F9E9E75D4B0022B5
S315020074301A7002F058FE80460028E5D1644B0122FC
S315020074401A70644B187800F00F039D4256D1002142
S31502007450594B1970FFF7BAFD3CE102F046FEDAE736
S3150200746002F043FEFFF73AFD4FF000084D4B83F85A
S31502007470008039E002F039FE8046FFF72FFD494BC6
S3150200748000221A70B8F1000F2AD102F02AFEFFF785
S315020074902FFD4FF00008434B83F80080422423E07F
S315020074A002F023FE8046FFF719FD3E4B00221A70BA
S315020074B0B8F1000F14D102F014FE8046FFF718FD52
S315020074C0384B00221A70B8F1000F40F0D28000F05B
S315020074D04FFD02F002FE8046354B00221A7021242F
S315020074E0B8F1FF0F00F0BE803A4B187800F00F0398
S315020074F09D42ACD0B8F1000F40F0C680002E40F09D
S31502007500A480B046DBE02A4B00221A7077B9314BD1
S315020075101B7813F00C0F00F0E0802B4B1B884BB945
S315020075202A4B1B8863B94FF0FE08A6E0204602F0FC
S31502007530D1FDECE70220FFF789F84FF0FE089CE048
S315020075400320FFF783F84FF0FE0896E0214B1B78E5
S31502007550042B08D0082B02D0022B08D00DE002F033
S31502007560C4FDFFF7BBFC02F0BCFDFFF7C1FCB8F19E
S31502007570160F35D0174B02221A70B8F1FF0F7CD1C5
S315020075800D4B01221A700D4B1C80132C36D84FF46A
S31502007590FA63114A82FB0312A3EBA2030F4A13807A
S315020075A098E000BF3F840122F18401226784012210
S315020075B07E850122188401223E8401223C84012216
S315020075C0288401226584012236840122388401221C
S315020075D0668401223184012267666666608401221E
S315020075E000F0C6FC02F079FD0020FFF713F8012037
S315020075F0FFF710F83A4B01221A7075E7242C01D0D6
S31502007600482C34D142F22833C3E74FF011086BE716
S315020076104FF000083CE002F068FDFFF75FFC3BE03C
S315020076200220FEF7F7FF3FE00320FEF7F3FF3BE001
S315020076302B4B04221A703EE05EB962E7FDF79CFD11
S31502007640012847D1FDF79EFD44E0284310F0080FBC
S31502007650DED145F0100554E7224B01221A70224B67
S315020076601C80CFE71F4B01221A701F4B1C80C823B8
S315020076708FE7412434E74FF01208194B187800F0CF
S315020076800F039D423FF4E3AE284310F0080F0ED0DD
S31502007690164B1B78002BBED1154B1B88002BBFD176
S315020076A0144B1B88002BBFD1B8F1000FC4D00C4B72
S315020076B01B78082BBCD00A4B1D7845F01005084BE9
S315020076C01D70084B00221A7041462846FFF77EFCC1
S315020076D0312CB3D004B0BDE8F0814FF0FE08CCE700
S315020076E0318401223E8401223C84012266840122E5
S315020076F0368401223884012238B5844B1B78002B4C
S3150200770074D0834BB3F90030002B79D1814B1B889F
S31502007710C3F30714242B34D011D8123B9BB2012B8E
S3150200772000F2EE807C4B1B7823B300F021FC7B4BEE
S315020077301B7803F00F03012B1FD001254DE0482BC8
S3150200774040F0DE80764B1B78002B2DD0754B1B78D4
S31502007750002B3CD0744B1B781BB9744B1B88002B37
S3150200776045D1734B1B78002B43D0724B01221A7002
S31502007770082426E002F0B1FCD7E76F4B1D8875B3EB
S315020077802BE0654B1B784BB1FFF7B2FB634B1B78C3
S3150200779003F00F03022B04D001251EE002F0A1FC28
S315020077A0F2E7654B1D88EAE7604B1B881BBB5B4B08
S315020077B01B7803F00F03042B05D05E4B01221A70CF
S315020077C0082400250BE05C4B1D880DB9F9E72D2531
S315020077D0514B1B788BB1FFF781FB44F010044B4BE6
S315020077E000221A7029462046FFF7F0FB38BD1B25FA
S315020077F0EEE71A25ECE71B25EAE702F076FCEAE754
S31502007800444B1B88242B42D017D8123B9BB2012B28
S31502007810ECD8414B1B78002BE8D03F4B00221A7064
S3150200782002F059FC054658BB444B01221A70394BEB
S315020078301C8814F00F04D9D0D1E7482BD6D1364B89
S315020078401B78002BD2D0364B1B78002B3ED03C4BFC
S31502007850B3F90030002BC9DD3A4AB2F900209A4248
S31502007860C4DB0023364A1380364A13802A4A137031
S3150200787002F039FC18BB2F4B01221A70082415E0BE
S31502007880FF28B3D002F029FC00F072FBAEE7224BD0
S315020078901B78002BAAD0204B00221A702A4802F02D
S315020078A01EFC28B9294B01221A700424002596E7EA
S315020078B0FF289BD002F015FCFFF71AFB96E7FF287C
S315020078C094D002F012FCFFF709FB8FE7174B1B88D7
S315020078D01BB1154B1B78002B88D00F4B00221A7058
S315020078E002F001FC20B9134B01221A700824DDE7CD
S315020078F0FF283FF47BAF02F0F8FBFFF7EFFA75E7DC
S31502007900002C3FF473AF002569E700BF3E840122D5
S31502007910608401223C8401223F84012240840122A8
S31502007920628401225E840122648401223684012259
S31502007930588401226684012242840122F1840122B2
S31502007940568401225484012228840122658401225C
S3150200795008B5284805F0E2FB274B1B78002B45D0DB
S31502007960264B1B78002B41D0254B1B8833B1254A69
S315020079701288934231D90132224B1A80224B0122BC
S315020079801A70224B1B8833B1214A1288934224D99A
S3150200799001321F4B1A801F4B1B891BB11E4A128DC7
S315020079A09A420CD21D4B01221A701D4BB3F90030BC
S315020079B0002B1BDD1B4A13880133138016E0174B7D
S315020079C01B789BB1154B00221A70154BB3F9003088
S315020079D093420BDD134B1A8008E00B4B00221A7000
S315020079E00E4B1B7813B10D4B00221A70014805F09D
S315020079F073FB08BDE48501226284012265840122AB
S31502007A0050840122528401225E8401224C84012286
S31502007A104E84012214A800223885012258840122AC
S31502007A20568401225484012208B5184B1B88ABB137
S31502007A30174B1B69B3F8403413F0010F0ED1154BE7
S31502007A401B885BB1144B1B781BB9144B00221A70AE
S31502007A5010E01B210420FFF731FB0BE0104B1B78D3
S31502007A6043B10D4B1B782BB10E4B1B781BB10E4B42
S31502007A701B782BB108BD2C210420FFF71FFBF9E769
S31502007A801A210420FFF71AFBF4E700BF2E84012215
S31502007A90E48501223684012266840122648401225D
S31502007AA0628401225E8401225884012238B52C4B5D
S31502007AB01B695A792B4C2270DB889BB29B0203F618
S31502007AC0FF73294A1380294B00221A80FEF77EFD96
S31502007AD023784BB10024234DE0B2FEF79BFD01341F
S31502007AE02A78E3B29A42F7D800F094F90024204BA0
S31502007AF01C70204B1C70204B1C70204B1C70204BA2
S31502007B001C70204B1C70204B1C70204B1C70204B91
S31502007B101C80204B1C80204B1C80204B1C80204B41
S31502007B201C80204B1C70204B1C70204B1C80204B51
S31502007B301C80204B1C80204B1C8001201F4B187080
S31502007B402146FFF743FA1E4B1C801E4B1C701E4B30
S31502007B501C70FEF74DFB2046FEF710FD38BD00BF38
S31502007B60E485012234840122328401222684012200
S31502007B70678401223F8401223E8401226484012219
S31502007B8066840122658401223084012263840122F3
S31502007B902E84012252840122508401224E84012223
S31502007BA04C84012262840122408401224284012201
S31502007BB0288401223684012238840122318401225A
S31502007BC03C8401223B8401224584012270B500F0E7
S31502007BD07DFC454B1D78002D48D0444B1B6993F81C
S31502007BE00E48E4B293F80D58EDB2404B1A69B2F85A
S31502007BF0203299B213F0010F3FD03D4B1B78002B78
S31502007C006BD192F82031DEB213F0200303D0394B48
S31502007C101B786BB30123374A137000213046FFF7F6
S31502007C204DFA334B1B78002B5AD12F4B1B78E3B1FD
S31502007C3014F0010F34D015F0080F03D12E4B1B7828
S31502007C40002B35D114F002043FD12C4B1B782BB1FB
S31502007C5000F00CFB254B1B6983F80F48234B1B696D
S31502007C60B3F8203213F4807F34D170BD0124BCE70F
S31502007C7002F000FC224B1880CCE711F0100FD0D096
S31502007C801B4B1B7863BB1F4B187810F0100FCCD11F
S31502007C900128CAD0002100F00F00FFF70FFAC0E753
S31502007CA0184B1878002100F00F00FFF707FAC2E719
S31502007CB0154B00221A70154A12880C4909691B785D
S31502007CC0DBB28B5400F07CFABCE70C4B1B78002B22
S31502007CD0C4D1BDE700F07EFBC7E711F0100FA0D0BC
S31502007CE0FFF70AFDA1E700BFF1840122E485012224
S31502007CF03E84012230840122F2840122F084012290
S31502007D00268401223184012225840122E88401226B
S31502007D1030B583B014461A46054B1D682DB1009442
S31502007D20044B1B88A84703B030BD4FF40040FAE766
S31502007D30F48301220084012208B5044B1B680BB1AF
S31502007D40984708BD4FF40040FBE700BFE8830122D5
S31502007D5038B50B4B1D880C3DA94214BF00220122E7
S31502007D60084B1B6843B10C46984720B9AC4247F60C
S31502007D70FC7318BF184638BD4FF40040FBE700BF3E
S31502007D80EC840122E483012208B5054B1B6823B16A
S31502007D900A4604490988984708BD4FF40040FBE7A4
S31502007DA0F08301220084012208B508461146FFF736
S31502007DB0EBFF08BD08B5024B1B6803B1984708BD27
S31502007DC0EC8301224A88531C9BB2B1F804C09C453D
S31502007DD008BF0023B1F800C09C4505D0023241F825
S31502007DE022004B8000207047072070470246038816
S31502007DF0418899420CD0991C50F8210001339BB25C
S31502007E0013809188994200D07047002313807047EF
S31502007E100020F9E71A4B22221A801A4B4FF480727D
S31502007E201A804FF48053184A1380184A1380184A4E
S31502007E300023138053800A219180164A13805380AF
S31502007E409180154A1360154A1360154A1360154A44
S31502007E501360154A1370154A116991F80F2802F03A
S31502007E60FD0281F80F28124A1370124A1370124A41
S31502007E701370124A1370124A1370124A1370704723
S31502007E80EC840122EE840122EA840122E8840122A2
S31502007E906C840122A0840122E0840122D88401227A
S31502007EA0DC840122D4840122F0840122E4850122A9
S31502007EB0F1840122F2840122F3840122E484012264
S31502007EC0E6840122E584012238B50020FEF78EFB06
S31502007ED0204C4388238003881F4D2B800120FEF708
S31502007EE085FB43881D4A138002881D490A8028881B
S31502007EF021880144914202DD1A44904228DB0C3B60
S31502007F00184A13800020FEF7A1FB0120FEF79EFB14
S31502007F10104B188805F07CF9134B186040B1002409
S31502007F20124B1C7005F068F90F4B1C60204638BDD9
S31502007F300E4B01221A700A2005F06AF9B0FA80F493
S31502007F406409640005F058F9074B00221A60EDE750
S31502007F501624EBE7EC840122EA840122EE84012254
S31502007F60E884012200840122E0840122688401223D
S31502007F7010B50020304B1870FEF74CFB0120FEF7BF
S31502007F8049FB2E4B1868E0B105F036F92C4B186800
S31502007F90E8B12A4B1B68984219D016E005F02CF975
S31502007FA02046FFF723FF0028F8D10028F8D1254CF8
S31502007FB001E005F021F92046FFF718FF0028F8D165
S31502007FC010BD1F4B1868002831D005F015F91E4B5D
S31502007FD0186848B1194B1B68984205D0184B1B68A4
S31502007FE0834201D005F008F901F0C8FEFEF748F910
S31502007FF00023164A1360114A1360134A1360104A8B
S315020080001360134A1370134A116991F80F2802F08C
S31502008010FD0281F80F28104A1370104A1370104A95
S315020080201370104A1370104A1370104CB8E7064BBF
S3150200803018680028D2D1D7E7F1840122D884012218
S31502008040D4840122A0840122DC840122E08401225C
S31502008050F0840122E4850122F2840122F3840122C2
S31502008060E4840122E6840122E58401226C84012251
S3150200807008B50D4B1B78012B08D0437903F00F038B
S31502008080032B0BD0042B06D0022009E0437903F020
S315020080900F03042B05D1FEF701F901E0FEF7B2F852
S315020080A008BD0220FCE700BF67840122F0B583B059
S315020080B03A4B1B7803F00F03012B68D00446384B6A
S315020080C01B78002B65D0374B1D78002D63D10288B3
S315020080D0354B1B88991D114489B2344800880344E4
S315020080E0013B9BB232480026067099421BD28C464F
S315020080F030482F4E6FEA010E9E441FFA8EFE0EF195
S31502008100010E013109B21FB2B9423DD8002F3BD050
S315020081104EF001E03378DBB2016901F80C300CF164
S31502008120010C0FF009C8234E1F4B1B88306906321B
S315020081302146184405F050F800238DF807303269BD
S3150200814092F80D38DBB28DF807309DF8073013F040
S31502008150080F0BD1164900230B70134B1B881348CB
S3150200816000880344013B0978C9B2D154124B1B68FB
S3150200817013B1124B00221A600F4B1C60094B0122ED
S315020081801A70284603B0F0BD4FF0010EC0E7F02585
S31502008190F7E7F025F5E70725F3E700BF318401226B
S315020081A0F1840122F2840122E8840122EE84012272
S315020081B025840122E4850122DC840122E084012255
S315020081C008B5234B00221A70224B186810B1224BB5
S315020081D01B68ABB1214B1A681E4B1A601E4B1868FE
S315020081E0A8B1FFF763FF1C4B00221A601C4B1B78D9
S315020081F02BB113F0020F12D113F0400F1FD108BD9D
S31502008200164B1B689842E5D004F0F6FFE2E71548E4
S31502008210FFF7ECFD0028E9D0FFF748FFE6E723F079
S3150200822002030F4A1370104B1868FEF701F8002874
S31502008230E5D00B4A137843F002031370DFE723F00D
S315020082404003074A1370084B1868FEF789F9D6E708
S31502008250F2840122D8840122D4840122DC84012200
S31502008260E4840122A0840122E084012210B5124B8B
S315020082701C685CB1114B1B7813B1114B1B6863B1BF
S315020082802046FFF713FF0C4B00221A600D4A1378A3
S31502008290B3FA83F35B09137010BD0120FEF7BAF936
S315020082A0094B1A68064B1A600120FEF7CFF9034BF9
S315020082B000221A70E4E700BFD8840122F284012268
S315020082C0D4840122F0840122DC84012238B51F4BBA
S315020082D01B7803F00F03012B35D004460D46437974
S315020082E003F00F031A4A127812F0070F02D1184A46
S315020082F001211170164A127843EA0213637120466D
S31502008300FFF7D4FE50B9124B1B780133DBB2104A89
S31502008310137015F0800F0ED1002038BD0D4920468E
S31502008320FFF750FD10B145F0800505E0084B1B78BC
S315020083300133DBB2EBE70020074A05F07F0513782D
S315020083402B431370E9E7F020E7E700BF31840122EF
S31502008350E5840122A0840122E484012210B50446A8
S3150200836043790288B2F5807F0DD81B0903D0174ADC
S3150200837012789A4227D0154A137015492046FFF7FC
S3150200838021FD80B910BD002104220270417023F044
S315020083900F03437101238371C17108230372417272
S315020083A0FFF794FFEEE700210422227061706279E2
S315020083B022F00F0262710122A271E1712081204630
S315020083C0FFF784FFDEE704F017FFDBE7E68401220E
S315020083D06C8401222DE9F04182B0334B1B885B0885
S315020083E0324A126932F81340A4B2314B1B78012B80
S315020083F00BD0304B1B78304909780B431AD02F4BE0
S3150200840001221A7002B0BDE8F0810A2004F000FFD2
S3150200841005460028EDD00021C0F80210042303808F
S315020084200123C38007230381FFF750FF284604F088
S31502008430E3FEDEE7214B00221A70214B1F88A21DA4
S3150200844092B2BA4228BF3A461446384604F0E0FED3
S3150200845005461C4B186018B3144BD3F81080124B08
S315020084601E88224608EB060104F0B6FE00238DF8AC
S31502008470073098F80538DBB28DF807309DF80730DB
S3150200848013F0080F08D0104A002313703E44013E31
S3150200849018F80630DBB213702846FFF75FFFB1E724
S315020084A0064B01221A70ADE7EA840122E485012215
S315020084B068840122F2840122E4840122F3840122E7
S315020084C0EC840122E084012225840122F8B5114DB3
S315020084D0002604272846FFF789FC044690B1FFF7D9
S315020084E0C7FD0028F6D027706670627922F00F0267
S315020084F062710122A271E671208131462046FFF7A0
S31502008500E5FEE7E7044B1B7803B9F8BDFFF762FF08
S31502008510FBE700BF6C840122F384012210B50446F6
S31502008520FCF7A0FE034628B11A89A24202D05B6874
S31502008530002BF9D1184610BD9089C0F3032C002BED
S315020085403FD0BCF1070F59D0BCF1080F2CD000B5B3
S3150200855010F0FF0008BF00201ED01269931D0138DB
S3150200856080B200EB400002F10C0E0EEB400E002032
S31502008570AEEB030EAEF1060E4FEA5E0E224A02FB88
S315020085800EFE2EF0004E0EF1010E4EF001E05A885C
S31502008590104406330FF005C80730C008831C0029B3
S315020085A008BF18465DF804FB1369188993691B789E
S315020085B003FB00F00730C008831C002908BF1846D9
S315020085C07047BCF1070F0FD0D1B1BCF1080F10D024
S315020085D0C0B2884216D3136901EB410103EB410392
S315020085E058880730C0107047136958880730C01082
S315020085F07047136918890730C0107047002070470A
S315020086000120704700207047ABAAAA2A0E4BA3FB93
S3150200861001234FEA531C027802EB531303706423BF
S3150200862003FB1C11C9B2094AA2FB0132D30890F816
S3150200863001C00CEBD202427003EB8303A1EB4301B0
S3150200864030318170704700BF1F85EB51CDCCCCCC49
S315020086502DE9F04184B01D4654699389E1B10F4674
S31502008660C3F30323072B17D0092B24D0002D4AD09E
S31502008670264B6C460FCB07C4237039460DF1090011
S31502008680FFF7C4FF6B4607CB28606960AA601B78B8
S315020086902B734FF00C080AE0204604F0BDFD1FFACA
S315020086A080F825B142462146284604F095FD40460B
S315020086B004B0BDE8F081204604F0AEFD461C264417
S315020086C001243378FD2BD1D8A74209D00134A4B2B4
S315020086D0304604F0A1FD01300644A742F1D2C5E7B7
S315020086E0304604F099FD1FFA80F845B1B8F1000F43
S315020086F0BED042463146284604F06EFDD7E7B8F1B1
S31502008700000FD4D1B2E74FF00C08D0E704A800223C
S315020087108389C3F30323082B05D001EB41010069CA
S3150200872000EB4100704709B90069704700690630DD
S3150200873070472DE9F843804620278740FCF792FDD3
S3150200874018B1BFB20446002612E000263046BDE844
S31502008750F8830135A94508D0E9B22046FFF7D8FFCC
S3150200876083881F42F5D00136B6B26468002CEDD07C
S315020087702389B3F5805FF8D3B8F1000FF3D094F8EC
S315020087800C9009F101090025E6E700002DE9F04FFA
S3150200879083B08346019116469A460B88B3F5805FED
S315020087A00BD0274B1C68FCB1012E14D94FF02008C0
S315020087B008FA0BF81FFA88F82DE0FCF753FD044679
S315020087C00028F1D10C9B13B11B230C9A137030466F
S315020087D04FF6FF7301E023893046019A1380184B46
S315020087E01C6003B0BDE8F08F10464FF6FF73F4E746
S315020087F001354D451CD0E9B22046FFF789FF838833
S3150200880018EA030FF4D02AF8027BB01E86B2646817
S315020088108CB1012EDFD92789B7F5805FF7D3BBF17B
S31502008820000FF0D094F80C9009F101090025E2E757
S315020088306468002CEFD130464FF6FF730024CCE774
S315020088409C8501220A3070472DE9F04FB1F80CE001
S31502008850CEF3032E0446003818BF0120BEF1070FDF
S315020088607AD00001002C78D04FF0060C0122154672
S3150200887040F21146474FDFF8208140F2091947E0DE
S31502008880A3F1030A1FFA8AFABAF1080F5DD805FAAC
S315020088900AFA1AF0320F72D11AEA090F55D000F10C
S315020088A00F0A4FF6F0700AEA0000944229D90B2B00
S315020088B018D1BBF80230034498B222E0B3F5187F10
S315020088C04DD0A3F262239BB2012B3ED800F11F03C7
S315020088D04FF6E0701840944213D9BBF802300344B5
S315020088E098B20EE0B3F5187FE3D0103080B208E0FC
S315020088F000F11F034FF6E0701840944201D9403050
S3150200890080B2531C9BB20CF1060C944225D01A4637
S31502008910BEF1080F0B690CBF03F1060B03EB0C0B40
S31502008920BBF800302F2BC9D8102BA9D9A3F1110AF5
S315020089301FFA8AFA05FA0AFA1AEA060FD8D11AEAC9
S31502008940070F1CD11AEA080F11D19442D9D9BBF8E4
S315020089500230034498B2D4E70020BDE8F08F00F15C
S315020089600F034FF6F07018409442A2D8C9E700F1FF
S315020089700F034FF6F07018409442B6D8C1E700F1E3
S315020089801F034FF6E07018409442BAD9203080B2E5
S31502008990B7E700BF008000400040002022297BD8B4
S315020089A0DFE801F012144A627A7A7A7A7A7A7A7A65
S315020089B07A7A7A7A7A7A7A7A7A7A7A7A7A7A7A7A0F
S315020089C07A7A7A7A7A7A38000020704741F6324308
S315020089D0984213D041F63343984261D1364B9B8974
S315020089E013F0020F5ED0354B1B88002B5CD1344B43
S315020089F01B88002B14BF0020122070472F4B1B88A8
S31502008A00002B4BD02F4B9B8913F0020F14BF002073
S31502008A101220704741F63343984201D01220704724
S31502008A20254B9B8913F0020F40D0244B1B88002B49
S31502008A3014BF00201220704741F6324398420BD0F1
S31502008A4041F63343984233D11B4B9B8913F0040FF3
S31502008A5014BF0020122070471A4B9B8913F0040F93
S31502008A6014BF00201220704741F6324398420BD0C1
S31502008A7041F6334398421DD10F4B9B8913F0080FE1
S31502008A8014BF0020122070470E4B9B8913F0080F6B
S31502008A9014BF002012207047122070471220704720
S31502008AA0122070471220704712207047122070471A
S31502008AB01220704712207047F48401223684012264
S31502008AC038840122388501222DE9F04F8BB00590BA
S31502008AD0069114461F46149E9DF8545004959B8990
S31502008AE0C3F303220892DBB207938946072A00F0F2
S31502008AF0B681B0F5805FC0F0AD81BB6993F800A086
S31502008B00CDF81CA0002D00F0AD81944B1B681BB163
S31502008B10049A069905989847FD696DB1049B0093DE
S31502008B203346224606990598A847844660460BB006
S31502008B30BDE8F08FCA46E8E7059BB3F5805F04D22D
S31502008B40069B8BB99C464D4609E0CA4538BF4FF095
S31502008B50000CEBD34D464FF0000CCDF818C04FF089
S31502008B600008CDF824C017E1BC69069D294638469F
S31502008B70FFF7CEFD42880732D21005F1804A0AF18C
S31502008B80FF3A54F82A100B8833804B887380043AD4
S31502008B900431301D04F020FB4FF0000CC6E7089BA1
S31502008BA0072B00F09581079B26F8023BEFE0102B7E
S31502008BB000F0B581202B00F097804FF0180CB5E736
S31502008BC01B2B2ED8082B18D9093B122B00F2278112
S31502008BD0DFE813F0AA002F002F0025012501250149
S31502008BE02501250198002501250125019800250169
S31502008BF025012501250125019800C3B3012000FAAC
S31502008C0003F313F4C87F6FD113F0260F45D113F087
S31502008C10480F40F084814FF0180C87E74FF0180C8C
S31502008C2084E7372B1DD9A3F518739BB2032B00F2E9
S31502008C30F980039B13F00F0F40F00381628807321D
S31502008C40D210304604F0C8FA63881A0906EB4206C7
S31502008C5013F00F0F00F0CF80337833800123069391
S31502008C6095E01D2B00F244814FF0180C5EE7049B41
S31502008C70002B00F0DA80638813F00F0F06D00399F9
S31502008C801944B21C11F00F0F08BF1646C3F30313A3
S31502008C9006EB43060123069379E0039B03F00F01DB
S31502008CA060882F4B33F810308B401FFA83FC3BF859
S31502008CB0120009B9002232803288049B73B10CEA91
S31502008CC00003134333806388039A1A4412F00F0F8A
S31502008CD040F08E8002360123069358E00CEA000328
S31502008CE00B4113439BB2EDE7039B13F00F0F40F0CA
S31502008CF0A2803BF8123033804B88738004360123FE
S31502008D00069344E0039B13F00F0F40F097803BF865
S31502008D10123033804B8873808B88B380CB88F38084
S31502008D2008360123069332E0039B13F00F0F40F03F
S31502008D308B8062880732D210304604F04DFA63887F
S31502008D401A0906EB420613F00F0F57D03378338019
S31502008D50012306931BE0A6F800803CE0E083012293
S31502008D6040940022638813F0F00F09D0434626F898
S31502008D70028F0133DBB26288C2F303129342F6DB3F
S31502008D80A38813F0070F14BF1A23062309936B1C3B
S31502008D909BB2AA4535D01D46D7F818B0002D7BD018
S31502008DA0059BB3F5805F77D3ECB239462046FFF7D1
S31502008DB04BFD039021463846FFF7AAFC04468288FB
S31502008DC05C4B1B7803EA420313F00E0F74D1039B2C
S31502008DD013F00F0FBFD0638813F00F0FC2D0039AA0
S31502008DE0134413F00F0F04BFA6F802800236B9E748
S31502008DF001230693CBE701230693C8E701230693D3
S31502008E00C5E7DDF824C0069B002B18BF4FF0000C07
S31502008E108CE64FF0110C89E64FF0050C86E64FF012
S31502008E20180C83E64FF0180C80E64FF0180C7DE61E
S31502008E304FF0050C7AE64FF0050C77E64FF0050C7D
S31502008E4074E64FF0050C71E64FF0050C6EE64FF036
S31502008E50050C6BE6049B2BB14FF0050C66E6049BF2
S31502008E60002BF4D1079B4B45D3D306993846FFF71F
S31502008E704FFC8388002BCFD02E4A127802EA430297
S31502008E8012F00E0F7FF456AE13F0070F14BF4FF019
S31502008E901A0C4FF0060C49E6E9B23846FFF738FCE1
S31502008EA004468288234B1B7803EA4203CDF80C80E2
S31502008EB013F00E0F3FF44FAFA94506D0049B002BCB
S31502008EC03FF465AFA9453FF662AF002D3FF467AEAA
S31502008ED0039BC3F30F120BEB42012388B3F5E06F3A
S31502008EE0FFF46EAE6388082B3FF661AE2F339BB25A
S31502008EF01E3B9BB2012000FA03F300F17F7000F5DE
S31502008F000040184000287FF4C8AE0B4818400028DD
S31502008F107FF4EAAE0949194000293FF47FAE039B6C
S31502008F2013F00F0F84D13BF8123026F8023B0123CF
S31502008F3006932CE73184012204000200020001009C
S31502008F402DE9F04F8BB00590894614461E46DDF892
S31502008F5050809DF854300493B389C3F303220892D8
S31502008F60D9B20691072A00F09D82B36993F800B040
S31502008F70BBF1000F40F08582A0F5E052103A92B2A2
S31502008F801F2A40F27C82A0F5B05292B2B2F5007F5F
S31502008F90C0F08282A0F5D05292B2B2F5007FC0F044
S31502008FA07E824FF23002904208BF8B4669E2B9F1E7
S31502008FB0000F36D0CB46059BA3F5E052103A92B28B
S31502008FC01F2A11D9A3F5B05292B2B2F5007F0BD384
S31502008FD0A3F5D05292B2B2F5007F05D34FF230021A
S31502008FE0934201D0002304E0B2691278131E18BF1F
S31502008FF00123356AC5B1049E009643462246494678
S31502009000059C2046A8470390002840F068829B4BA7
S315020090101B68002B00F06382324649462046984779
S315020090205DE2CB464B46E4E7002C00F0D581CB450A
S31502009030C0F0D5814C46072203920022079209937B
S3150200904040E1102B00F08581202B00F0D1801823FF
S31502009050039344E21B2B2FD8082B18D9093B122B5A
S3150200906000F2C381DFE813F0FA0030003000C101DC
S31502009070C101C101C101C101E300C101C101C101B7
S31502009080E300C101C101C101C101C101E3008BB30A
S31502009090012202FA03F313F4C87F40F0A98013F009
S315020090A0260F3BD113F0480F40F053811823039348
S315020090B015E21823039312E2372B15D9A3F5187379
S315020090C09BB2032B00F2948110F00F0F40F0AE8199
S315020090D06A880732D2104146504604F07DF86B8802
S315020090E01B0908EB4308BCE11D2B00F21B81182368
S315020090F00393F4E1049B002B00F07D816B8813F04F
S315020091000F0F06D0184408F1020210F00F0F08BF25
S315020091109046C3F3031308EB4308A2E16A88584B4F
S3150200912033F8122000F00F0C02FA0CF1BAF80030F4
S3150200913023EA01031BB20793049B83B1B8F800200C
S315020091401140079B0B439BB2AAF800306B8803447D
S3150200915008F1020213F00F0F08BF904681E1B8F83A
S31502009160001031EA020E40F049810A4002FA0CF27E
S31502009170079B13439BB2E7E7059BA3F5E153123B1B
S315020091809BB2012B03D8012C07D0082C16D0079BC3
S31502009190AAF8003008F1020863E1BAF80030079A2B
S315020091A0934207D011460598FFF7F8FB0390002873
S315020091B040F09581334B01221A70E8E7324A0023C8
S315020091C05361324911615360314A536111615360EF
S315020091D0079B13F0020FDAD02B4A0023538513851F
S315020091E082F840302A4A5385138582F84030CEE70A
S315020091F010F00F0F40F00B81099B6BB1BAF80020FB
S31502009200B8F800309A4240F00581BAF80220B8F860
S3150200921002309A4240F00181B8F80030AAF80030D4
S31502009220B8F80230AAF8023008F1040819E110F081
S315020092300F0F40F0F580B8F80030AAF80030B8F801
S315020092400230AAF80230B8F80430AAF80430B8F8A6
S315020092500630AAF8063008F1080802E110F00F0FEE
S3150200926040F0E1806A880732D2104146504603F048
S31502009270B3FF6B881B0908EB4308F2E0DC8301228B
S31502009280409400227E8501223885012220A1070012
S31502009290F4840122002C00F085806B8813F00F0FF6
S315020092A006D0184408F1020210F00F0F08BF9046CC
S315020092B01B0908EB430818230393631C9BB2A345BF
S315020092C075D01C46D6F818A0E7B239463046FFF7E5
S315020092D01FFA054631463846FFF7B6FAAA88824B88
S315020092E01B7803EA920313F00E0FD3D0002C00F082
S315020092F0A680C0F30F130AEB430AA14507D0049BCD
S31502009300002BDAD0A145D8D8002C00F09C802B88FF
S31502009310B3F5E06FFFF49EAE6B88082B3FF691AE75
S315020093202F339BB21E3B9BB2012202FA03F302F1D8
S315020093307F7202F500421A40002A7FF4EFAE6B4AB2
S315020093401A40002A7FF454AF694A1A40002A3FF4B1
S31502009350B0AE10F00F0F54D1B8F800200792099B57
S315020093601BB1BAF8003093424ED1059BA3F5E053E8
S31502009370103B9BB21F2B3FF6FFAE079AA2F5B053E6
S315020093809BB2B3F5007FFFF402AFA2F5D0539BB2B6
S31502009390B3F5007FFFF4FBAE002A3FF4F8AE1223CA
S315020093A003939CE008F102081823039385E7079BC1
S315020093B0002B00F094804F4B1B68002B39D0049A87
S315020093C04946059898470023039388E0112303939F
S315020093D085E01A23039382E0002303937FE00723A9
S315020093E003937CE01323039379E01823039376E037
S315020093F01823039373E01823039370E01223039355
S315020094006DE0052303936AE01C23039367E00523BB
S31502009410039364E01C23039361E01C2303935EE041
S31502009420052303935BE00523039358E00523039387
S3150200943055E00023039352E0052303934FE0B9F16D
S31502009440000F7FF43AAF089B072B3FF460AFB8F8E2
S315020094500030DAB206999142C4D3AAF8003008F174
S315020094600208AB880122079213F4807F3FF425AFEE
S3150200947031463846FBF7DCFF012307931DE7DDF88B
S3150200948018B0049B9BB1B9F1000F7FF494AD0CB1F7
S3150200949098F800B04B46ACE5DDF818B0F1E7DDF818
S315020094A018B0EEE7049B002BC6D14FF0000BD9454E
S315020094B08CD849463046FFF72BF982880A4B1B782F
S315020094C003EA920313F00E0F7FF471AD12F0380F18
S315020094D07FF47FAF002A14BF072305230393039863
S315020094E00BB0BDE8F08F00BF3184012204000200F8
S315020094F002000100DC83012210B5039C60294DD0D5
S31502009500A9B34FF0000C84F808C0002848D1E088BF
S31502009510C0F30B0040F44050E080402920D102996C
S31502009520013903290DD80A23237084F801C0029B4E
S31502009530DBB2C3F1040342EA830343F0430323721B
S3150200954040E002998B4228BF029B0A339BB22380DA
S31502009550029BA3811B0CE38142F04102227231E09D
S315020095600A23237000236370602323722AE0B8B9AA
S31502009570E388C3F30B0343F44053E3800A232370C7
S3150200958000236370237A43F0200323721AE0E388F0
S31502009590C3F30B0343F44053E38013E00028F6D0F1
S315020095A00A23237000236370E388C3F30B0343F497
S315020095B00053E380237A63F07F032372054B53F84B
S315020095C02030E36002212046FEF780FE08B1024BFE
S315020095D01C6010BD60940022FC8301222DE9F04F2D
S315020095E089B0077A924B1E78002E40F0F382044629
S315020095F007F0E005B0F800A007F01009402D03D0EF
S315020096001BD8002D00F02983A37A94F8098008EB71
S3150200961003281FFA88F894F80BB04046FEF77EFF3F
S315020096200590002800F0DE82037B9B451BD90023B0
S31502009630049303934FF0110A07E0602D00F018839C
S315020096400023049303934FF0030A0194039B0093B0
S31502009650BDF810304A4629465046FFF74DFF3046C0
S3150200966009B0BDE8F08F4B46024659464046FEF722
S3150200967063FF0390402D51D017F0020F00F0AD802A
S31502009680BAF10A0F40F0AA82C7F38103C3F10403B9
S31502009690049304F10C030793B9F1000F40F0BC8068
S315020096A0B9F1000318BF01230693039B43B9614B2B
S315020096B0A3F80080604B83F800B0604B059A1A60ED
S315020096C0402D00F01A81069B0193079B0093059B90
S315020096D0049A59464046FFF733FC8246FF28B4D126
S315020096E00123574A1370574A06991170564A82F84F
S315020096F000B0564AA2F80080554A04991160554AAC
S3150200970007991160059A116A534A1160484A137003
S31502009710524B1C6027F00F072772A0E7BAF10A0F17
S3150200972040F05A82431E032B4AD804F10C030793D6
S315020097300023A381E38133460490B9F1000F6CD173
S31502009740B9F1000118BF01210691002BADD001230A
S31502009750434A1370434A1370434B1970354BA3F8AF
S315020097600080354B83F800B0344B059A1A60402DC1
S31502009770049B039A18BF1A463C4B1A603C4B186866
S3150200978008B103F039FD394B1868013020F00100A9
S3150200979003F03EFD364B1860002844D0402D71D0B0
S315020097A0AAF10A0304931A4604F1100103F014FD08
S315020097B0304B00221A70B2462F4B049A1A6044E7C5
S315020097C02E4B1B88103B0493039A9A4200F2418265
S315020097D004F1100307933346AFE7E289A38903EB4B
S315020097E002420492264B1B8810329A420ED9063B3D
S315020097F09A4540F0F58104F110030793AAF10A0392
S31502009800049A93422CBF0023012396E7049B0A3352
S315020098109A45F0D0082622E73346BBF1010F8FD9CD
S315020098204FF0050A11E7069B03F1040A0DE700BF94
S315020098309785012292850122908501228085012247
S31502009840C8850122C7850122C6850122C485012257
S31502009850C0850122BC850122B88501229885012294
S31502009860958501228885012294850122848501221B
S31502009870A4850122968501228C850122EE8401228D
S31502009880EC840122069B01930090059B039A59469C
S315020098904046FFF719F9824620B3FF288CD19D4B2B
S315020098A004221A709C4B069A1A709C4B83F800B0DD
S315020098B09B4BA3F800809B4B039A1A609A4B1A683B
S315020098C09A4B1A60059BDA69994B1A60994B0122E9
S315020098D01A70994B1C6027F00F072772974B60226C
S315020098E01A70BCE6049A904B196804F1100003F052
S315020098F073FC924B60221A705EE7069B0193079BEC
S315020099000093059B039A59464046FFF7DDF88246C7
S31502009910FF287FF49AAE7F4B03221A707E4B069A7B
S315020099201A707E4B83F800B07D4BA3F800807D4B06
S31502009930039A1A607D4B079A1A60059BDA697C4B7B
S315020099401A607C4B01221A707B4B1C6027F00F07B2
S31502009950277284E67A4B1B784B4500F0B380794B2D
S315020099601B88774A82F800906F4A1068002800F038
S31502009970BE80093B9BB2744AD2F800C0734A126891
S31502009980A2EB0C0217F0010F18D09A4200F2B28035
S31502009990AAF1030A524500F2B0806FEA670303F0A8
S315020099A007039A4205D0072A40F2AA80524540F0A0
S315020099B0AA80674B00211970174606E06449012701
S315020099C00F701F469A4240F2A1803A4604F10901FD
S315020099D0604403F001FC5E4B93F80080B8F1000F7F
S315020099E01DD00A23237000236370E388C3F30B039D
S315020099F043F44053E380524B1B78002B0CBF2023C9
S31502009A0030232372524B1B78012B52D000234E4A2D
S31502009A1013604A4A1370AA460493039315E64D4B04
S31502009A201B780193404B1B6800934B4B1B68474ABC
S31502009A3012684A4909784A480088FFF781FA82463D
S31502009A40FF280CD0DFF8E080D8F8000003F0D4FB42
S31502009A500023C8F80030BAF1000FC2D034E02D4B13
S31502009A6002221A703B4B1A782B4B1A703B4B1A7810
S31502009A702A4B1A703A4B1A88294B1A80334B1A68AA
S31502009A80284B1A60284B1A68284B1A60324B1B68FF
S31502009A901A6A274B1A60274B01221A70264B1C6042
S31502009AA000232B4A1370254A1370274A1360464631
S31502009AB0D5E5254A13683B441360AA46002304935E
S31502009AC00393C2E54FF0010A0023214A13701B4A91
S31502009AD01370154B186820B103F08EFB124B00224F
S31502009AE01A600023184A136004930393ADE54FF0FE
S31502009AF0030AE9E74FF00E0AE6E74FF00E0AE3E73C
S31502009B004FF00E0AE0E74FF00E0ADDE74FF00E0ABD
S31502009B10DAE700BFC8850122C7850122C685012270
S31502009B20C4850122C0850122A4850122BC850122A9
S31502009B30B885012297850122988501229685012200
S31502009B4088850122EC8401228C85012284850122EA
S31502009B509585012294850122808501229085012224
S31502009B6092850122484B1B784B4541D0474B1A88B8
S31502009B70093A92B2444B83F800901746444B1B684D
S31502009B8044490968D018884238D9CF1A424A002176
S31502009B901170424A11683A46194404F1090003F069
S31502009BA01BFBE388C3F30B0343F4405349F0010262
S31502009BB0B24635E0FB1C23803FE0384F386803F09D
S31502009BC01BFB00233B60324A1360354A1370049331
S31502009BD003933AE5092642E5082640E508263EE5CE
S31502009BE008263CE50023049303934FF0080A2CE56C
S31502009BF00023049303934FF0010A26E54FF0010A6E
S31502009C00254981F800A025490968194404F109008B
S31502009C1003F0E2FAE388C3F30B0343F440534A46E4
S31502009C20E3802272062FC5D80A23237000236370AD
S31502009C30C7F1070342EA43022272BAF1010FBCD10D
S31502009C40134A13683B441360B246002304930393FA
S31502009C50FBE40123002207926FE5114B1B78AB420E
S31502009C603FF478AE0023049303934FF0030AECE427
S31502009C700B4B1B78AB423FF475AF0023049303935F
S31502009C804FF0030AE1E400BF88850122EE84012237
S31502009C908C8501228485012295850122A4850122D3
S31502009CA0968501222B4B1B78002B51D02DE9E047DC
S31502009CB083B006460D461146274BD3F8009099F815
S31502009CC0082002F0E00A02F01008BAF1400F0FD0A5
S31502009CD00027204B00221A70CDF8049000953B46CF
S31502009CE0424651463046FFF707FC03B0BDE8E0871F
S31502009CF01A4B1F88103FBFB2AF420AD36B1E032B0B
S31502009D001ED809F10C008842E3D02A4603F064FA11
S31502009D10DFE70123124A1370124A1370124B83F8BB
S31502009D200080124B1D60124B60221A70114B196093
S31502009D303A4609F1100003F04FFA0F4B1F60C8E7CD
S31502009D4009F110008842C4D02A4603F045FAC0E75A
S31502009D50704700BF9785012298850122EE84012271
S31502009D609585012288850122948501228485012216
S31502009D7096850122A48501228C85012208B51A4BFB
S31502009D801B78012B1ED00023184A1370184A137031
S31502009D90184A1380184A1370184A1360184A136037
S31502009DA0184A1360104A1370174B186820B103F053
S31502009DB023FA154B00221A600023144A1360144A30
S31502009DC0137008BD134B18680028DCD0124B1B68B1
S31502009DD09842D8D0114B1B689842D4D003F00CFAA3
S31502009DE00C4B00221A60CEE797850122C885012214
S31502009DF0C7850122C4850122C6850122C0850122AA
S31502009E00BC850122B8850122A48501228C85012206
S31502009E109685012298850122D8840122D4840122C2
S31502009E20F0B585B0044600238DF80F30058905F09C
S31502009E307F05052D22D00388072B40F23781012D9D
S31502009E402BD18389052B00F233819B4D0068616813
S31502009E50A26807C5A2892A8013F0FF0342D1002512
S31502009E60964B1D8004F10C06E8B2FEF762FC26F85A
S31502009E70020F0135052DF7D1122057E00388092B71
S31502009E8040F21281A38998B2ADF80C30B0F5805F2A
S31502009E907FD205238DF80F3003E005BB03238DF82F
S31502009EA00F309DF80F1000220A2323706270238957
S31502009EB023F07F0343F007032381A272E272804BF1
S31502009EC053F82130E3607D4B1A8002212046FEF7CB
S31502009ED0FDF910B17B4B1C60002005B0F0BD032DCF
S31502009EE0DCD1CFE7013BDDB2744B1E88002E35D0A4
S31502009EF0754B1A880C3A92B204F10C03734909881D
S31502009F00ADF80C10013EB6B26C490E800DF10F0190
S31502009F10009103A92846FEF739FC6C4BBDF80C20CC
S31502009F201A80694B1B88063B181A80B220809DF85E
S31502009F300F30002BB5D1238923F07F0242F00202B3
S31502009F4022815E4A12886281002A00F0B38023F0E1
S31502009F50FF0343F0820323818221B7E72846FEF7F7
S31502009F60E8FB4FF48053ADF80C30574B1988A1F13A
S31502009F700E0292B204F10E034700B2EB400FC3DAAF
S31502009F800C3989B2B81A4E1E304490FBF1F18EB2EA
S31502009F90BAE7FEF7C3FA0646002800F08180032DD1
S31502009FA00BD0E789FFB2FEF74DFC4388DBB29F4236
S31502009FB034D911238DF80F3073E7FEF743FC03689B
S31502009FC0C4F80E30002332461946BDF80C00FEF7DF
S31502009FD03FFB00F10C039BB23B4A1288063A9342BE
S31502009FE010D90C239DF80F20002A7FF45AAFA272D3
S31502009FF0E2722380238923F07F0301351D432581E5
S3150200A000022163E704F1120332460021BDF80C0077
S3150200A010FEF71EFB00F10C039BB2E3E7394630461E
S3150200A020FEF776FB036823618388A382E389DBB2AA
S3150200A030E3813046FEF706FC4388C3F30323083B5D
S3150200A0409BB2012B0FD877B9214B186859689A68C9
S3150200A050C4F81600C4F81A10C4F81E201B7B84F834
S3150200A06022301C23BEE7002332463946BDF80C00D7
S3150200A070FEF7EEFA00F110039BB2134A1288063A73
S3150200A080934201D91023ADE704F11603324639464D
S3150200A090BDF80C00FEF7DCFA00F110039BB2A1E753
S3150200A0A008238DF80F30FCE6062016E7062014E793
S3150200A0B002210BE7022109E7A8850122A2850122D6
S3150200A0C060940022FC830122EE840122A0850122F3
S3150200A0D004A8002270470020704700207047002025
S3150200A0E0704700207047002070470020704700002C
S3150200A0F02DE9F04F85B007460E46424B1D889DB3AB
S3150200A1009A464FF000094D469B460190029107E0A0
S3150200A11009F10109BBF800201FFA89F39A421ED9F8
S3150200A1203AF8020FFEF7FAF90646002853D0836979
S3150200A130B3F80080B8F1000FEAD00124B7693146BE
S3150200A140E0B2FEF781FBC0F30E1017F810302B4475
S3150200A1509DB223460134A4B29845EFD1D8E7019FB8
S3150200A160029E0735C5F3CF05274B188800283FD036
S3150200A17099464FF00008C3469A4601950297039600
S3150200A18007E008F10108BAF800201FFA88F39A429C
S3150200A1901CD939F8020FFEF7C1F9054650B3836997
S3150200A1A01E88002EEDD00124AF692946E0B2FEF7E3
S3150200A1B04BFBC0F30E1017F810305B441FFA83FBFB
S3150200A1C023460134A4B2B342EED1DAE7019D029FDF
S3150200A1D0039E002004E0019F029E0025AB46252037
S3150200A1E00BF10703DB103B80358005B0BDE8F08F2D
S3150200A1F08346F5E7019D029F039E4FF0000B242044
S3150200A200EEE700BFF8980022F098002230B5164B10
S3150200A21003F1040E41F6FF35144C4FF6F51C1449B2
S3150200A22008E0134A12881AB1CA88B2F5C04F14D090
S3150200A2309E4517D033F8022FB2F5D05FF1D0AA426D
S3150200A240F6D10A4A1288002AF2D0E2886245EFD194
S3150200A250084A927800F8012BEAE7074A126840F8A2
S3150200A260042BE5E730BD00BFF0980022309B0022A8
S3150200A2700099002294990022D06F01222DE9F04123
S3150200A280184B1E1D184AD488184AB2F806C041F265
S3150200A290016541F2FF774FF6F51E47F2100106E01F
S3150200A2A0124A12880AB18C4513D09E4217D033F84F
S3150200A2B0022FAA42F4D0BA42F7D10B4A1288002AD8
S3150200A2C0F3D07445F1D110F8018B094A82F8028065
S3150200A2D0EBE750F8048B074AC2F80080E5E7BDE8D1
S3150200A2E0F08100BFF8980022389B002208990022CC
S3150200A2F094990022CC6F0122F8B50446214B5E6880
S3150200A300EFF31082012383F310881F4B1B6823B9D6
S3150200A3101E4B00211975402119751B4F3B680133ED
S3150200A3203B6082F310881A4B1D6804F001023188E3
S3150200A330284601F015F9C4F34002B188284601F017
S3150200A3400FF9C4F380023189284601F009F9C4F3F2
S3150200A350C002B189284601F003F9EFF31083012206
S3150200A36082F310883A6812B13A68013A3A60064AAC
S3150200A370126822B9054A002111758021117583F3ED
S3150200A3801088F8BD54980022E8860122000D40404C
S3150200A3908818010270B582B02A4B5E68EFF310810D
S3150200A3A0012383F31088284B1B6823B9274B00220D
S3150200A3B01A7540221A75244A13680133136081F311
S3150200A3C01088234B1D6801AA3188284601F0A2F89D
S3150200A3D00DF10502B188284601F09CF89DF804406B
S3150200A3E0B4FA84F464099DF80520234644F0020475
S3150200A3F0002A18BF1C460DF106023189284601F0D3
S3150200A40089F89DF80620234644F00404002A18BF62
S3150200A4101C46EFF31083012282F310880A4A12685F
S3150200A4201AB109490A68013A0A60074A126822B94A
S3150200A430064A002111758021117583F31088204682
S3150200A44002B070BD4C980022E8860122000D404001
S3150200A4508818010208B5FFF79DFF00F00F00034BB5
S3150200A4601860034B1888FFF747FF08BDD06F01221B
