S01A000072613864315F636F72656D61726B5F6763632E737265632B
S31502000000E0810022713E0002053D00026D3E0002C3
S315020000106D3E00026D3E00026D3E00026D3E000224
S315020000200000000000000000000000006D3E00021B
S315020000306D3E0002000000006D3E0002C118000085
S31502000040B1320002D53100029933000215340002A2
S315020000502DE9F041B0F9005014462A060E4682B048
S3150200006024D505F07F07B6F900502B0606D505F014
S315020000707F08A7EB080002B0BDE8F081C5F3C30113
S3150200008001EB011215F007039446218F35D0012B9F
S315020000905AD10A4604F12800614601F065FBA38F96
S315020000A00FFA80F803B9A087218F3CE0C5F3C3019C
S315020000B001EB011215F0070380461746218F46D041
S315020000C0012B17D10A4604F12800394601F04CFBF0
S315020000D0A38F07B203B9A087218F01F079FE07F03B
S315020000E07F0725F0FF053D4345F080052087A8F8E8
S315020000F00050B8E72F46A8B2EFE7212A98BF4FF083
S31502000100220C0191B4F90230B4F90020D4E90510A9
S31502000110CDF800C001F074FDE38F0FFA80F8002BD2
S31502000120C2D1218FE08701F053FE08F07F0825F047
S31502000130FF0548EA0505208745F08005A7EB08007C
S31502000140358002B0BDE8F081A846A8B2EBE7212AC5
S3150200015098BF22270191B4F90230B4F90020D4E9FC
S315020001600510009701F04CFDE38F07B2002BB3D1C7
S31502000170218FE087B1E700BF2DE9F04F8E46B0F937
S3150200018004800546B8F1000F4FF000017646446A36
S3150200019085B040F380818C4689460B468246002E06
S315020001A0CFB2C0F2E280002C00F07981204601E055
S315020001B0006820B14268B2F90220B242F8D10025A5
S315020001C000E01446226825602546002AF9D1002857
S315020001D000F0D9804268B2F90020D50703D5C2F3F0
S315020001E0402213449BB2026822B11568056020685A
S315020001F01060226009F101091FFA89F9002EA8BFD1
S31502000200013601F10101A8BF36B24145C7D15546B3
S31502000210CCEB890C634499B2BEF1000F00F3D08097
S31502000220002223689642D3F800905D68D9F804004C
S315020002305860C9F804501868254600681860C9F85D
S3150200024000205CDB6B68B3F90230B34208D02D683C
S31502000250002D00F016816B68B3F90230B342F6D175
S315020002606368B3F9000001F05FFF2D680146002DB7
S31502000270F6D125686A68D9F80430C9F804206B609B
S315020002802B684FF0010CC9F800304FF00008C5F892
S3150200029000908946002C66D0002007468646012536
S315020002A0BCF1000F0CEB050221464FF00003B8BF6C
S315020002B02A46AE4402E00968013309B1013AFAD18D
S315020002C0002B254666460C4608DDEEB92A462D6801
S315020002D0013B68B102601046002BF6DC002E36DDCB
S315020002E0002C36D093B92246013E24680028F1D16B
S315020002F017461046F0E72D68002D00F0C2806B68A5
S315020003001B789F42F7D1ABE7002CDFD0D5F804A0CB
S315020003106168BAF9002022F0FF0BC2F307224BEA0A
S31502000320020BAAF800B0B1F9002022F0FF0BC2F3CB
S3150200033007224BEA020BA1F800B0BAF902A0B1F902
S3150200034002209245C2DD2246013E2468C1E7002C06
S31502000350A5D1BEF1010FC0F8008021D03C464FEA7C
S315020003604C0C002C98D12460FFDE002C00F0978004
S31502000370204603E0006800283FF421AF4268127865
S315020003809742F7D11BE722680CF1010C52681FFA5B
S315020003908CFC92F9012002F0010213449BB22DE774
S315020003A03C68494644B17B68B3F9000001F0BCFEE3
S315020003B024680146002CF6D1084605B0BDE8F08F48
S315020003C0CDE901764FF001092646AA460391002E91
S315020003D063D000243546A04622460126B9F1000F15
S315020003E009EB060328464FF0000BB8BF33463244EA
S315020003F003E000680BF1010B08B1013BF9D12E466F
S3150200040037465E46002E05469346CDF800900ADD35
S31502000410B9F1000F15D13A463F68013E74B1226028
S315020004201446002EF4DCB9F1000F18DDF5B156B909
S315020004302A4609F1FF392D68002CF0D19046144660
S31502000440EFE7002DE7D0524669687868FFF700FEAD
S315020004500028E0DD2A4609F1FF392D68DEE75A4613
S31502000460DDF80090002DB8D1594602E05946DDF874
S31502000470009000230129236008D046464FEA490925
S31502000480A5E72568002D7FF4EBAEF3E64446DDE9E9
S3150200049001760399C4E60F46BEE63660FFDE002308
S315020004A01B68FFDE00232DE9F04748F280056F4CFA
S315020004B09646A4FB00421209023A01EBC2060B6001
S315020004C04E6073804B6801F108001D8001F1100532
S315020004D0AE4206F1040406EB82080CD906F10807BF
S315020004E0B8450B6808D9C1E902346FF000430860C9
S315020004F03C46284673600B68002547F6FF792AB307
S3150200050000F10807BE4221D904F1040CE04540F28D
S31502000510A5800FFA85FA03608AEA0E03DB0003F070
S3150200052078030AF0070A43EA0A0303EB03230135B9
S315020005300860AA4244602380A4F802900B6805D0A2
S31502000540384600F10807BE426446DDD81868D8B1BD
S31502000550464C4FF40070A4FB02420126920807E0C3
S315020005606E801B6800F580701C68013680B25CB133
S31502000570B2425D68F4D800F4E0648EEA06073C43B2
S31502000580C4F30D046C80ECE700240125A64626463A
S31502000590A0460120002D05EB000C0B464FF0000291
S315020005A0B8BF8446064402E01B68013213B1BCF1AF
S315020005B0010CF9D1002A284608DD98B90F68013ADC
S315020005C074B12160002A0C463946F6DC00282DDD7E
S315020005D07BB34AB90F46013819461B68002CF0D185
S315020005E08E46EFE7002BE9D0D1F804905F68B9F99F
S315020005F000C02CF0FF0ACCF3072C4AEA0C0CA9F82F
S3150200060000C0B7F900C02CF0FF0ACCF3072C4AEA67
S315020006100C0CA7F800C0B9F90290B7F902C0E1457F
S31502000620CCDD0F46013819461B68C9E70BB11946DE
S31502000630AFE7012EC4F800800AD06D00BEF1000FAC
S3150200064009D073464FF0000E194674467646A0E767
S315020006507046BDE8F087CEF800E0FFDE0135AA421B
S315020006603FF474AFA44607466AE700BFCDCCCCCCB4
S31502000670366B20706572666F726D616E636520728D
S31502000680756E20706172616D657465727320666F36
S315020006907220636F72656D61726B2E00366B207607
S315020006A0616C69646174696F6E2072756E20706127
S315020006B072616D657465727320666F7220636F7204
S315020006C0656D61726B2E000050726F66696C6520F3
S315020006D067656E65726174696F6E2072756E2070E1
S315020006E06172616D657465727320666F7220636FE5
S315020006F072656D61726B2E00324B20706572666F89
S31502000700726D616E63652072756E20706172616DC5
S31502000710657465727320666F7220636F72656D61B0
S31502000720726B2E00324B2076616C69646174696F5C
S315020007306E2072756E20706172616D65746572737A
S3150200074020666F7220636F72656D61726B2E000098
S315020007505B25755D4552524F5221206C6973742098
S3150200076063726320307825303478202D2073686FC9
S31502000770756C64206265203078253034780A000072
S315020007805B25755D4552524F5221206D6174726927
S31502000790782063726320307825303478202D2073D8
S315020007A0686F756C64206265203078253034780A6B
S315020007B0000000005B25755D4552524F52212073A1
S315020007C07461746520637263203078253034782032
S315020007D02D2073686F756C64206265203078253031
S315020007E034780A00436F72654D61726B2053697AE1
S315020007F065202020203A20256C750A00546F74610A
S315020008006C207469636B732020202020203A2025F7
S315020008106C750A00546F74616C2074696D652028CA
S3150200082073656373293A2025660A00004974657266
S315020008306174696F6E732F5365632020203A2025F9
S31502000840660A00004552524F5221204D757374209C
S315020008506578656375746520666F72206174206CB5
S3150200086065617374203130207365637320666F721D
S3150200087020612076616C696420726573756C7421DF
S3150200088000000000497465726174696F6E732020FE
S3150200089020202020203A20256C750A004743433148
S315020008A0332E332E3120323032343036313400009A
S315020008B0436F6D70696C65722076657273696F6ECF
S315020008C0203A2025730A0000506C6561736520701A
S315020008D0757420636F6D70696C657220666C6167F2
S315020008E07320686572652028652E672E202D6F6637
S315020008F06173742900000000436F6D70696C657244
S3150200090020666C6167732020203A2025730A000056
S31502000910535441434B0000004D656D6F7279206C54
S315020009206F636174696F6E20203A2025730A000096
S3150200093073656564637263202020202020202020B6
S31502000940203A203078253034780A00005B25645D31
S315020009506372636C697374202020202020203A2061
S315020009603078253034780A005B25645D6372636DE6
S31502000970617472697820202020203A203078253050
S3150200098034780A005B25645D63726373746174650F
S315020009902020202020203A203078253034780A0082
S315020009A05B25645D63726366696E616C202020203C
S315020009B020203A203078253034780A00436F72724C
S315020009C0656374206F7065726174696F6E207661FB
S315020009D06C6964617465642E2053656520524541D5
S315020009E0444D452E6D6420666F722072756E2061CD
S315020009F06E64207265706F7274696E672072756CB0
S31502000A0065732E00436F72654D61726B20312E3015
S31502000A10203A202566202F2025732025730000000A
S31502000A20202F20257300000043616E6E6F742076BE
S31502000A30616C6964617465206F7065726174696F57
S31502000A406E20666F722074686573652073656564CF
S31502000A502076616C7565732C20706C6561736520F8
S31502000A60636F6D7061726520776974682072657351
S31502000A70756C7473206F6E2061206B6E6F776E20BB
S31502000A80706C6174666F726D2E0000004572726F33
S31502000A9072732064657465637465640054302E3322
S31502000AA0652D3146000000002D542E542B2B547117
S31502000AB0000000003154332E3465347A0000000001
S31502000AC033342E30652D545E00000000352E35304D
S31502000AD030652B33000000002D2E313233652D3266
S31502000AE0000000002D3837652B3833320000000035
S31502000AF02B302E36652D31320000000033352E356F
S31502000B0034343030000000002E3132333435303088
S31502000B10000000002D3131302E3730300000000049
S31502000B202B302E363434303000000000353031326E
S31502000B300000000031323334000000002D38373413
S31502000B40000000002B313232000000002DE9F04F88
S31502000B502DED028B00239DB009AA08A90DF16A00AA
S31502000B60089300F0CDFE012001F00EF903460220A3
S31502000B70ADF8283001F008F903460320ADF82A3013
S31502000B8001F002F903460420ADF82C3001F0FCF81E
S31502000B9003460520119301F0F7F8002808BF072045
S31502000BA00A9B1290002B40F0F880BDF92C30002BE6
S31502000BB000F09881002100F0010310F00206994A24
S31502000BC01C4618BF5C1C10F00400ADF868100C92AD
S31502000BD04FF4FA6140F0CD80B1FBF4F11091002B95
S31502000BE040F0E982002E40F08181129BDE0707D594
S31502000BF0BDF928200D991098FFF754FC129B13900B
S31502000C009D0748D4580705D50F9ABDF928101098A4
S31502000C1000F086FE119B002B4ED1012300240025F5
S31502000C2003EB83035B00119300F022FE119F002663
S31502000C30CDE91845CFB101210AA8FFF79DFABDF803
S31502000C40601001F0C5F803464FF0FF310AA8ADF86F
S31502000C506030FFF791FABDF8601001F0B9F8ADF80F
S31502000C60600096B10136B742E5D100F027FE00F0EA
S31502000C702FFE00F035FEB7EE007BB4EEC70BF1EEA9
S31502000C8010FA40F19880119BCAE7012FADF8620075
S31502000C90EBD00126CFE7BDF92A40BDF9282014ABD7
S31502000CA042EA04420E99109800F06EFD129B5C0710
S31502000CB0AAD4119B002BB0D000F0DAFD002200234B
S31502000CC0119D0024CDE91823D5B101210AA8FFF709
S31502000CD053FABDF8601001F07BF803464FF0FF317E
S31502000CE00AA8ADF86030FFF747FABDF8601001F0C8
S31502000CF06FF8ADF86000002C49D00134A542E4D16A
S31502000D0000F0DCFD00F0E4FD00218046BDF928007C
S31502000D1001F00AFA0146BDF92A0001F005FA014678
S31502000D20BDF92C0001F000FA0146BDF9400001F0C0
S31502000D30FBF947F605339842064600F0D2814AD9B6
S31502000D4048F60223984200F023824EF6F5139842A3
S31502000D5040F0DB80344801F077FA032248F63A6322
S31502000D6041F6D77C4EF2147007929B46E246024643
S31502000D7049E0671CB1FBF7F11091002B40F0BA80F5
S31502000D80002E40F0148201FB04220F922DE7012D62
S31502000D90ADF86200B4D0012497E7012B7FF40AAFC5
S31502000DA0BDF92C30002B7FF405AF66231F4AADF840
S31502000DB02C300A92FEE6FCEEC07B17EE903A012B2F
S31502000DC04FF00A0138BF0123B1FBF3F3119A03FB7B
S31502000DD00222119270E741F6F203984200F09081E6
S31502000DE044F6AF63984240F09080114801F02CFA25
S31502000DF002224EF2A45345F2086C46F67920079277
S31502000E009B46E24602460B4F3D68002D00F083806A
S31502000E100024CDE9058691462646CDE9020C0493C7
S31502000E2022E000BF0C000020A8060000153415348D
S31502000E30780600000000002035F80A2C5A454ED0EC
S31502000E40049B3146B64801F00BFA35F8083C0133EB
S31502000E509BB225F8083C3A68711C8EB2234496422E
S31502000E609DB21CB280F01181002306EB06181CAA63
S31502000E7002EB880828F8083C58F8283C3501D907BF
S31502000E800FD538F80E2C4A450BD0029B3146A548A1
S31502000E9001F0E6F938F8083C013328F8083C58F81E
S31502000EA0283C9A0714D51CAA05EB060802EB88080B
S31502000EB038F80C2C52450BD0039B31469A4801F068
S31502000EC0CFF938F8083C013328F8083C58F8283C92
S31502000ED0354413F0040F1CAB03EB8505ACD135F892
S31502000EE0083CB8E76623ADF82C3063E601FB032223
S31502000EF00E927AE60D92002E3FF445AF01FB0323D4
S31502000F000E9300283FF471AE3DE74FF0FF334FF6E4
S31502000F10FF75864F079301F095F9109905448448A9
S31502000F2001F09EF94146834801F09AF9404600F0E5
S31502000F30D7FC814853EC102B01F092F9404600F0A1
S31502000F40CFFCB5EEC00BF1EE10FAADB211DD3A6888
S31502000F50119B404602FB03F307EE903AB8EE678B0D
S31502000F6000F0BEFC88EE007B744853EC172B01F0B0
S31502000F7077F9404600F0B4FCB2EE047BB4EEC70B40
S31502000F80F1EE10FA00F18480119B39686C4803FB7C
S31502000F9001F101F065F96B496B4801F061F96B49A2
S31502000FA06B4801F05DF96B496B4801F059F931461E
S31502000FB06A4801F055F9129A3B68D0072DB214D54A
S31502000FC0002B51D00024664E04EB04131CAA02EB3C
S31502000FD08303214633F80E2C304601F041F90134E1
S31502000FE03B68A4B29C42EFD3129A910714D500240F
S31502000FF0002B39D05B4E04EB04131CAA02EB8303CD
S31502001000214633F80C2C304601F02AF901343B68AC
S31502001010A4B29C42EFD3129A520712D500241BB3F4
S31502001020514E04EB04131CAA02EB8303214633F848
S315020010300A2C304601F014F901343B68A4B29C42F2
S31502001040EFD38BB10024494E04EB04131CAA02EB26
S315020010508303214633F8102C304601F001F901349E
S315020010603B68A4B29C42EFD3002D16D0D4BF4048B1
S31502001070404801F0E9F80DF16A0000F045FC002055
S315020010801DB0BDEC028BBDE8F08FDDE9058642E7B7
S31502001090394801F0D9F8013576E7384801F0D4F835
S315020010A0079B032BE7D13A68119B404602FB03F3E9
S315020010B007EE903AB8EE678B00F012FC88EE007BE2
S315020010C02049224B009101932D4853EC172B01F036
S315020010D0C7F820492B4801F0C3F80A2001F0B8F8F6
S315020010E0C9E7294801F0B0F8012243F6BF1341F2DD
S315020010F0991C4FF44D5007929B46E246024682E601
S31502001100224801F0A1F8042248F6845340F2477CB3
S315020011104EF2C13007929B46E246024673E600BF94
S3150200112064070000000700003007000000000020EE
S3150200113094070000AC070000C4070000DC070000AB
S31502001140340800004C08000060080000780800001F
S31502001150A8080000C0080000C8080000E008000057
S31502001160FC080000180900003409000050090000BC
S31502001170D80900003C0A0000F40700006C090000D0
S31502001180B4090000D00900004C060000D406000095
S315020011900B4801F059F8002245F647634BF6526CAC
S315020011A04DF2B04007929B46E24602462BE601FB11
S315020011B003230E93E7E50D92002E3FF416AD9DE64E
S315020011C0200600002DE9F04F8FB08046CDE90113CD
S315020011D0BDF96070002800F0B48215460021C208ED
S315020011E008F1FF3C120128F00706BCF1060FA4EE37
S315020011F0307BBBB200972846B34692460F460B9207
S3150200120008954FEA48040A9608F007095AD9AAF13E
S31502001210100E4FEA1E1E0EF1010E4EF001E00246BE
S3150200122092ED807E16EF4468A2EC887E0FF009C02C
S31502001230B9F1000F3DD05A4602EB010E35F81E6099
S315020012401E4425F81E60561CB04532D90E4435F8A8
S3150200125016E09E4425F816E0961CB04529D90E44A0
S3150200126035F816E09E4425F816E0D61CB04520D97E
S315020012700E4435F816E09E4425F816E0161DB045D4
S3150200128017D90E4435F816E09E4425F816E0561D89
S31502001290B0450ED90E4435F816E006329E44904506
S315020012A025F816E005D90A4435F812601E4425F8D9
S315020012B012607E1CB0454144204405D0BCF1060FA5
S315020012C03746A4D80022B7E74FF000090198C6EBCB
S315020012D0867291000438C8468B468446BA460597FC
S315020012E00391009F2A1904900093101BA2EB000E93
S315020012F0AEF1020E4FEA5E0E0EF1010E4EF001E065
S3150200130001460CEB890231F9023B07FB03F342F873
S31502001310043F0FF009C0D045B144A0EB0B0208F11F
S31502001320010301D09846E0E74FF000096FEA07573C
S315020013300399019A009B521A099206936FEA17576C
S315020013401346484622464946CA464C46DDF81480AC
S31502001350DDF804E0DDF80CB000960EEB890CA3EB89
S315020013600C03043B9B08013305E0B44250EAD090DB
S31502001370013B00B20CD026465CF8044B80B22144F5
S31502001380B942F2DD0A30013B4FF0000100B2F2D160
S31502001390009EC245ACEB0B03B1440AF1010C01D02D
S315020013A0E246DAE7069B002114460D9300F0BCFEE6
S315020013B0029A049BA2F1020A039AA5F1020B9A1A57
S315020013C0DC46CDF800B098469346069007930AEBA2
S315020013D004090C960023A9EB0A0EAEF1020E4FEA9F
S315020013E05E0E0EF1010E4EF001E0504661461A46BF
S315020013F048F8043F31F8023F30F8026F13FB062229
S31502001400C8F800200FF00BC0C345A444E2D14FF048
S315020014100009DDE90C6348464946CA464A46DDF8F4
S3150200142000B0DDF804E0CDF830B0DDF80CB0DDF840
S3150200143024C0DDF814800096059309940EEB890406
S31502001440ACEB0403043B9B08013305E0B24250EACD
S31502001450D090013B00B20CD0164654F8042B80B251
S315020014601144B942F2DD0A30013B4FF0000100B2ED
S31502001470F2D1009BC2459944ACEB0B0C0AF1010375
S3150200148001D09A46DAE7059B0699DDF830B0009E50
S31502001490099C009300F048FE0021D9468A46009B2B
S315020014A0CDE90C75049A039D0590CDF818B0099301
S315020014B090464FF0000BCDE90012DDF808C0002E71
S315020014C014BFB6464FF0010E6246494600234EF05F
S315020014D001E048F804AF178831F8020F224410FBE6
S315020014E00733C8F800300FF00BC00BF1010B5E4555
S315020014F00CF1020CE3D8DDE9001201318E42A1445F
S31502001500A2EB0502D4D80020DDE90C75014602469D
S315020015108246DDF818B0099BCDF800B0DDF81090D0
S31502001520DDF80CB0002ECE4614BFB4464FF0010CC7
S3150200153006E0414550EAD090BCF1010C00B20DD054
S3150200154088465EF8041F80B20A44BA42F1DD0A30C8
S31502001550BCF1010C4FF0000200B2F1D10AF1010A0E
S315020015605645A9EB0B09DDD84FF0000A0599DDF8BF
S3150200157000B0D146009300F0D7FD009B0995CDE956
S31502001580053704990490DDE90230CDF808A01F461C
S315020015908C464FF000089A46CDE900B1002E14BFE2
S315020015A0B6464FF0010E394600224EF001E0009D8C
S315020015B04CF8049FB1F800B035F8023F214413FB02
S315020015C00BF3C3F3830BC3F3461303FB0B22CCF8D3
S315020015D000200FF011C808F10108464507F102077D
S315020015E0DCD85346DDE900B1DDF808A0A3440AF1D0
S315020015F0010A5645A1EB0001C7D80020DDE90537EF
S31502001600014602468146099DDDF81CA0DDF80CB0B4
S31502001610002ED64614BFB4464FF0010C06E04145F3
S3150200162050EAD090BCF1010C00B20DD088465EF8AB
S31502001630041F80B20A44BA42F1DD0A30BCF1010C41
S315020016404FF0000200B2F1D109F101094E45AAEBB1
S315020016500B0ADDD80499009300F066FDDDE90A89DC
S315020016600021009B0F46A4EE303BDDF820C0072E7A
S3150200167065D9A9F1100E4FEA1E1E0EF1010E624641
S315020016804EF001E092ED807E16FF4468A2EC887E61
S315020016900FF009C0464549D0424602EB010A35F829
S315020016A01AE0AEEB030E25F81AE002F1010EB6457A
S315020016B03CD28E4435F81EA0AAEB030A25F81EA0DA
S315020016C002F1020EB64531D28E4435F81EA0AAEBBF
S315020016D0030A25F81EA002F1030EB64526D28E4451
S315020016E035F81EA0AAEB030A25F81EA002F1040E85
S315020016F076451BD98E4435F81EA0AAEB030A25F8B7
S315020017001EA002F1050E764510D98E4435F81EA0AC
S315020017100632AAEB030A964225F81EA006D90A4407
S3150200172035F812E0AEEB030E25F812E00137B742A8
S315020017303144A4449BD300B20FB0BDE8F08F00221F
S31502001740ABE7014600F0F0FC0146404600F0ECFC37
S315020017500146404600F0E8FC0146404600F0E4FC43
S3150200176000B20FB0BDE8F08F10B5144682B00091FA
S31502001770C168D0E901230068FFF724FD214602B0C3
S31502001780BDE8104000F0D0BC2DE9F04F002A08BF9A
S31502001790012287B0002860D0002406462046013484
S315020017A004FB04F5B6EBC50FF8D800FB00F60139C9
S315020017B021F00307391D4FEA460B054601EB4606A3
S315020017C0002848D0012400FA04FC05954FF0000ACF
S315020017D06546CDE9031B00EB0409A6F10208A9EB55
S315020017E0040E4EF001E0C446CDE901A4E24604FB34
S315020017F002F2D2F1000B1FFA8BFB92B2A1B252EAAD
S315020018004BB201EB020B1FFA8BFB5944BA44C9B225
S31502001810AAEB060A2CF802BF0134AAF806100FF04A
S315020018201BC8DDE901AB0AF1010A504500EB0B04C6
S315020018308144A844D3D1059DDDE9031B06EB0B02C7
S31502001840013A22F003020432C3E90116DA601D608E
S3150200185007B0BDE8F08F8346F0E74FF0FF35294425
S3150200186021F003074FF0020B2846391DBE1DA9E7DA
S3150200187000210E4B0E4A1B680E48A2FB03239B094E
S31502001880013BB3F1807F01600ED24FF0E0224FF0B0
S31502001890F00C072010B4084C536184F823C0916100
S315020018A010615DF8044B7047704700BFD08200227A
S315020018B0D34D6210E807002000ED00E04FF0E02370
S315020018C000211A6922F001021A619961704700BF6C
S315020018D0014B1868704700BFE807002000000000AF
S315020018E007EE100A9FED040BB8EE477B27EE000BBE
S315020018F0704700BFAFF30080FCA9F1D24D62503FA2
S3150200190001230370704700BF00230370704700BFB6
S31502001910024A136801331360704700BFE8070020CC
S315020019202DE9F04F06461046721E012A40F28380C8
S3150200193001318BB203F0070107294FF0000C4FF07B
S315020019402C08DFF800B1DFF800A1DFF80091C3F33D
S31502001950C1043BD0042963D8033901294ED859F86A
S3150200196024100CF109040133A2429BB236D900EBD2
S315020019700C0E4D1CAEEB0505062D54D808250F7826
S3150200198000F80C700CF1010791F801C0042D00F863
S3150200199007C08F788EF80270CF788EF803700CD05D
S315020019A008250F798EF804704F798EF805708F79B5
S315020019B08EF80670C9798EF8071003F00701072919
S315020019C0A4460EF80580C3F3C104C3D15BF8241004
S315020019D00CF109040133A2429BB2C8D8B4452DD2F8
S315020019E00CF101039E42A6EB0C024FF00001BDE88A
S315020019F0F04F38BF0122604400F02EBC104901337B
S31502001A0051F824100CF10504A2429BB20CF1010715
S31502001A10E4D90D7800EB0C0E00F80C500425B3E760
S31502001A205AF824109DE70D68496840F80C500825BD
S31502001A30CEF80410C1E74FF0000CD1E7BDE8F08FF5
S31502001A40281D0000F81C0000081D0000181D0000DB
S31502001A50036884461878002800F0B5802C2800F028
S31502001A60B0802B3830B40E2828D8DFE800F0922751
S31502001A7092332708080808080808080808000868B2
S31502001A805A1C013008605B78ABB12C2B00F09E80AB
S31502001A902E2B74D0303B092B09D901200B69034444
S31502001AA00B611318CCF8003030BC70478C6012F80A
S31502001AB0013F002BE9D113460420F3E7D1E90020C8
S31502001AC0441C012001320344C1E90024CCF8003051
S31502001AD030BC704708685A1C013008605B786BB1ED
S31502001AE02C2B00F0838003F0DF00452809D0303B21
S31502001AF0092B48D812F8013F002BF1D113460520D5
S31502001B00D0E74869531C013048615078002863D0F9
S31502001B102C2863D02B280AD02D2808D00120CB6888
S31502001B200344CB60931CCCF8003030BC7047C868C5
S31502001B30931C0130C860907800284BD02C284FD0D7
S31502001B408C693038092804F1010406D9D31C8C614A
S31502001B50CCF80030012030BC70478C611C4613F86B
S31502001B60012FA2F13000002A3CD02C2A3CD00928B1
S31502001B70F4D901204B6803444B60A31C92E70B691E
S31502001B8001330B61B6E701204B6903444B6113181D
S31502001B9088E708685A1C013008605D7865B32C2D09
S31502001BA027D08C68A5F13000092804F101047FF6DC
S31502001BB07DAF2E2D03D001208C60023372E78C603C
S31502001BC098E700200133CCF8003070471346042012
S31502001BD0013367E7062065E7032063E70320F7E79B
S31502001BE00620F5E707205DE70720F1E71346052003
S31502001BF0EEE713460220EBE71346022052E700BF48
S31502001C002DE9F0430C4693B00021804691460AA87E
S31502001C1020221E46BDF96870BDF86C50019400F092
S31502001C201BFB2022002102A800F016FB2378002BC2
S31502001C3000F086800AA901A8FFF70AFF12AA02EBA2
S31502001C40800C019B5CF8402C1B7801324CF8402C2E
S31502001C50002BEFD1A0444445019417D2012F21460F
S31502001C604DD1621C9045A8EB040363D3B8F1000F73
S31502001C7060D00A7801312C2A1CBF82EA090201F8D7
S31502001C80012C013BF5D12378002B55D00AA901A8D6
S31502001C90FFF7DEFE12AA02EB8002019B52F8401CFD
S31502001CA01B78013142F8401C002BEFD1A04501946C
S31502001CB012D9012F33D1621C9045A8EB040337D306
S31502001CC0B8F1000F34D0227801342C2A1CBF72409E
S31502001CD004F8012C013BF6D109AE374601AC294680
S31502001CE054F8040F00F000F9014656F8040F00F00C
S31502001CF0FBF8BC420546F2D113B0BDE8F083234699
S31502001D001A782C2A1CBF82EA09021A703B44434500
S31502001D10F6D32378002BB9D144450194DCD223783B
S31502001D202C2B1CBF734023703C444445F7D3D3E7A6
S31502001D300123C8E701239CE744450194BBD3CBE7C3
S31502001D40A04444458AD3C7E74C0A0000580A00005B
S31502001D50640A0000700A00007C0A0000880A00007B
S31502001D60940A0000A00A0000AC0A0000B80A0000AB
S31502001D70C40A0000D00A0000DC0A0000E40A0000DF
S31502001D80EC0A0000F40A00000138042813D8DFE840
S31502001D9000F006090C0F0300084B18687047084B41
S31502001DA018687047074B18687047074B18687047E2
S31502001DB0064B186870470020704700BFDC070020FA
S31502001DC0E4070020E00700200800002004000020AD
S31502001DD0C3B2444A83EA010C4CF3000C0CEA020C2F
S31502001DE08CEA510189B281EA530C4CF3000C0CEADD
S31502001DF0020C8CEA510C1FFA8CFC8CEA930141F31B
S31502001E000001114081EA5C0189B281EAD30C4CF3EC
S31502001E10000C0CEA020C8CEA510C1FFA8CFC8CEAC0
S31502001E20131141F30001114081EA5C0189B281EA92
S31502001E30531C4CF3000C0CEA020C8CEA510C1FFAF0
S31502001E408CFC8CEA931141F30001114081EA5C019A
S31502001E5089B281EAD31343F30003134083EA5103A1
S31502001E609BB283EA102141F30001114081EA530338
S31502001E709BB283EA502141F30001114081EA5301EA
S31502001E8089B281EA902343F30003134083EA5103A4
S31502001E909BB283EAD02141F30001114081EA53014A
S31502001EA089B281EA103343F30003134083EA5103F4
S31502001EB09BB283EA503141F30001114081EA53019A
S31502001EC089B281EA903343F30003134083EA510354
S31502001ED09BB283EAD03040F30000104080EA530000
S31502001EE080B2704701A0FFFFC2B28E4B82EA010C9C
S31502001EF04CF3000C0CEA030C8CEA510C1FFA8CFC16
S31502001F008CEA520141F30001194081EA5C0189B26F
S31502001F1081EA920C4CF3000C0CEA030C8CEA510C8D
S31502001F201FFA8CFC8CEAD20141F30001194081EAC6
S31502001F305C0189B281EA121C4CF3000C0CEA030C18
S31502001F408CEA510C1FFA8CFC8CEA521141F3000107
S31502001F50194081EA5C0189B281EA921C4CF3000CB9
S31502001F600CEA030C8CEA510C1FFA8CFC8CEAD21197
S31502001F7041F30001194081EA5C01C0F3072289B2EC
S31502001F8082EA010C4CF3000C0CEA030C8CEA510CAD
S31502001F901FFA8CFC8CEA520141F30001194081EAD6
S31502001FA05C0189B281EA920C4CF3000C0CEA030C38
S31502001FB08CEA510C1FFA8CFC8CEAD20141F3000127
S31502001FC0194081EA5C0189B281EA121C4CF3000CC9
S31502001FD00CEA030C8CEA510C1FFA8CFC8CEA5211A7
S31502001FE041F30001194081EA5C0189B281EA921C3F
S31502001FF04CF3000C0CEA030C8CEA510C1FFA8CFC15
S315020020008CEAD21141F30001194081EA5C01C0F366
S31502002010074289B282EA010C4CF3000C0CEA030C6B
S315020020208CEA510189B281EA520C4CF3000C0CEA9B
S31502002030030C8CEA510C1FFA8CFC8CEA920141F3D8
S315020020400001194081EA5C0189B281EAD20C4CF3A3
S31502002050000C0CEA030C8CEA510C1FFA8CFC8CEA7D
S31502002060121141F30001194081EA5C0189B281EA49
S31502002070521C4CF3000C0CEA030C8CEA510C1FFAAE
S315020020808CFC8CEA921141F30001194081EA5C0151
S3150200209089B281EAD21242F300021A4082EA51025E
S315020020A092B282EA106141F30001194081EA5202BA
S315020020B092B282EA506141F30001194081EA52016B
S315020020C089B281EA906242F300021A4082EA510220
S315020020D092B282EAD06141F30001194081EA5201CB
S315020020E089B281EA107242F300021A4082EA510270
S315020020F092B282EA507141F30001194081EA52011B
S3150200210089B281EA907242F300021A4082EA5102CF
S3150200211092B282EAD07040F30000184080EA520080
S3150200212080B2704701A0FFFFC3B2454A83EA010CA1
S315020021304CF3000C0CEA020C8CEA510189B281EADA
S31502002140530C4CF3000C0CEA020C8CEA510C1FFAED
S315020021508CFC8CEA930141F30001114081EA5C0197
S3150200216089B281EAD30C4CF3000C0CEA020C8CEA1D
S31502002170510C1FFA8CFC8CEA131141F30001114039
S3150200218081EA5C0189B281EA531C4CF3000C0CEA29
S31502002190020C8CEA510C1FFA8CFC8CEA931141F367
S315020021A00001114081EA5C0189B281EAD31343F34B
S315020021B00003134083EA5103C0F307209BB280EA6F
S315020021C0030141F30001114081EA53039BB283EA02
S315020021D0500141F30001114081EA530189B281EABB
S315020021E0900343F30003134083EA51039BB283EA4D
S315020021F0D00141F30001114081EA530189B281EA1B
S31502002200101343F30003134083EA51039BB283EA9C
S31502002210501141F30001114081EA530189B281EA6A
S31502002220901343F30003134083EA51039BB283EAFC
S31502002230D01040F30000104080EA530080B270478D
S3150200224001A0FFFF002070475FF800F0F94D000281
S315020022505FF800F03D4D00025FF800F0B94F000252
S30D020022605FF800F0194D0002BF
S3110200226801000000803801006600000042
S31502002274104000000000000003000000D482002287
S315020022841400002200000000D48200223C830022B3
S31502002294A4830022000000000000000000000000E9
S315020022A40000000000000000000000000000000022
S315020022B40000000000000000000000000000000012
S315020022C40000000000000000000000000000000002
S315020022D443000000000000000000000000000000AF
S315020022E400000000000000000000000000000000E2
S315020022F4430000000000000000000000000000008F
S3150200230400000000000000000000000000000000C1
S31502002314430000000000000000000000000000006E
S3150200232400000000000000000000000000000000A1
S31502002334430000000000000000000000000000004E
S315020023440000000000000000000000000000000081
S31502002354430000000000000000000000000000002E
S315020023640000000000000000000000000000000061
S31502002374430000000000000000000000000000000E
S315020023840000000000000000000000000000000041
S3150200239443000000000000000000000000000000EE
S315020023A40000000000000000000000000000000021
S315020023B4296C0002056C000200000000506C000249
S315020023C43944000225440002254400022544000241
S315020023D42544000225440002254400022544000245
S315020023E42544000225440002FFFFFFFFFFFFFFFF13
S315020023F4FFFFFFFFFFFF000001004153434949006D
S3150200240400000000000000000000000000000000C0
S315020024140000000000000000000041534349490047
S3150200242400000000000000000000000000000000A0
S3110200243400000000000000000000000094
S31502002440F1EE103A43F08073E1EE103A704700BFA6
S315020024500348044B834202D0034B03B1184770472B
S31502002460208400222084002200000000064B074937
S31502002470C91A891048BF0131491003D0044B0BB168
S3150200248001481847704700BF20840022208400229A
S315020024900000000010B5064C237843B9FFF7D8FFB9
S315020024A0044B13B10448AFF300800123237010BD1F
S315020024B0108200220000000084A2000308B5054B2A
S315020024C01BB105490548AFF30080BDE80840FFF798
S315020024D0CDBF00BF000000001482002284A20003C8
S315020024E070B5161E07DD0C468D19AFF3008004F891
S315020024F0010BA542F9D1304670BD00BF4FF0FF3047
S31502002500704700BF4FF4005300204B60704700BF76
S31502002510012070470020704710469AB110B50A4A4A
S3150200252001F1FF3C516A0CEB00044B681CF801EF09
S315020025306EF308034B60516A8B6C9B00FCD56445B5
S31502002540F3D110BD704700BF348200224D50552092
S31502002550737570706F727473202575207265676962
S315020025606F6E730A00000000526567696F6E202560
S31502002570753A203078253038582D3078253038583D
S315020025802C2041747472496E6465783D25750A0083
S31502002590526567696F6E2025753A204469736162D8
S315020025A06C65640A0000000031332E332E3120326E
S315020025B030323430363134000A546F6F6C636861DE
S315020025C0696E207665723A25730A00005379737430
S315020025D0656D436F7265436C6F636B3A20256420A9
S315020025E0487A0A002E2E2F7372632F68616C5F651C
S315020025F06E7472792E63000031373A31333A3331D1
S31502002600000000004D617220333020323032360035
S31502002610646174653A25730A74696D653A25730AAD
S3150200262066696C653A25730A66756E633A25732C7C
S315020026306C696E653A25640A68656C6C6F20776F03
S31502002640726C64210A000000737461727420636FF5
S3150200265072656D61696E21007465726D696E617471
S31502002660656420636F72656D61696E21000000000A
S3150200267072756E6E696E6721000000002DE9F043E7
S31502002680184D83B0D5F890601748C6F30726314631
S3150200269002F042FB16B30024DFF85090DFF85080B8
S315020026A006E040460097013402F036FBA64215D0FA
S315020026B0C5F89840D5F89C20D5F8A030214613F0ED
S315020026C0010FC3F3420722F01F0223F01F03E8D1D2
S315020026D04846013402F020FBA642E9D103B0BDE828
S315020026E0F08300BF00ED00E04C25000290250002B9
S315020026F0682500022DE9F047484B82B0B3F8008006
S31502002700B8F1000F00F089804FF47A72444C5F688A
S315020027102368B3FBF2F3013BB3F1807F0AD24FF099
S31502002720E022F026002007213E4D536185F8236002
S31502002730906111613C493D4800F024FB3C493D480B
S3150200274002F0EAFA2168A9243B4D3C4802F0E4FA79
S315020027503B4B3C4A3C49CDE900543C4802F0DCFA8A
S31502002760FFF78CFF3A4802F047FB04F06DFA39484E
S3150200277002F042FB384802F03FFB00254FF0010A07
S31502002780364EDFF8E490364C07EB4808EFF310823A
S315020027908AF31088336823B9402189F8143089F8FE
S315020027A0141033680133336082F31088A8EB070EE6
S315020027B0AEF1020E4FEA5E0E0EF1010E39464EF0F2
S315020027C001E0284831F8022B130A1B0153FA82F260
S315020027D054F8223003402B4343F0040344F82230DA
S315020027E00FF011C0EFF310828AF31088336813B129
S315020027F03368013B3360336823B9802189F814308A
S3150200280089F8141082F310884FF47A714FF4FA7033
S3150200281085F0010501F032FAB8E7FEE7DC41000275
S31502002820D082002200ED00E09028000234820022CD
S31502002830A8250002B82500026C280002CC25000259
S31502002840E4250002F82500020426000210260002F2
S31502002850482600025826000270260002A88200229C
S3150200286000084040FE3FFEFF000D404068616C5F7D
S31502002870656E747279000000022800D07047024922
S31502002880024800F0BBBF00BFD02800022C82002203
S31502002890090200000C000C010C020C0300000000EF
S315020028A0000000000000000000000000B028000246
S315020028B000010000000000220F00FFFF00000001DF
S315020028C00100000008B5FFF715FF002008BD00BF94
S315020028D094000000DC2800020000000000800000D6
S315020028E002000000008000000300000000800000DB
S315020028F004000000008000000500000000800000C7
S3150200290007000000008000000B00000000800000AD
S315020029100E000000008000000F0000000008011CED
S31502002920000100000008011C010100000008011C52
S31502002930020100000008011C03010000000C011C3A
S31502002940040100000000011C050100000000011C3A
S31502002950060100000400000007010000000C010B44
S315020029600C010000000C010B0D010000000C010B14
S315020029700E010000000C010B0F0100000000011FF8
S31502002980060200000004011907020000000001000F
S315020029900802000000000100090200000000010018
S315020029A00A020000000001000B020000000C010BED
S315020029B000030000000C010B01030000000C010BD8
S315020029C002030000000C010B03030000000C010BC4
S315020029D004030000000C010B05030000000C010BB0
S315020029E006030000000C010B07030000000C010B9C
S315020029F008030000000C010B09030000000C010B88
S31502002A000A030000000C010B0B030000000C010B73
S31502002A100C030000000C010F000400000004011763
S31502002A20010400000004011702040000000001175F
S31502002A3003040000000C011705040000000C011736
S31502002A40060400000000011307040000000C010543
S31502002A5008040000000C010509040000000C010630
S31502002A600A040000000C01060B040000000C01061B
S31502002A700C040000000C01060D0400000400000016
S31502002A800E040000000C010F0F04000000000113E9
S31502002A90000500000000011301050000000000000F
S31502002AA0040500000000000005050000000000000B
S31502002AB006050000040000000705000000040107E7
S31502002AC00B050000000401070C05000000040119B3
S31502002AD00D050000000C01190E0500000004011985
S31502002AE00F0500000400000000060000000C010BA8
S31502002AF001060000000C010B02060000000C010B8F
S31502002B0003060000000C010B04060000000C010B7A
S31502002B1005060000000C010B06060000000C010B66
S31502002B2007060000000C010B09060000000C010B51
S31502002B300A060000000C010B0B060000000C010B3C
S31502002B400C060000000C010B0D060000000C010B28
S31502002B500E060000000C010B0F060000000C011708
S31502002B6000070000000C011701070000000C011706
S31502002B7002070000000C011703070000000C0117F2
S31502002B8004070000000C01170507000004000000FE
S31502002B90060700000004011907070000000C010FD8
S31502002BA008070000000C010F09070000000C010FC6
S31502002BB00A070000000401190B07000000040119AE
S31502002BC00C070000000401190D070000000401199A
S31502002BD00E070000000401190F0700000008011C7F
S31502002BE0000800000008011C010800000008011C82
S31502002BF0020800000008011C030800000008011C6E
S31502002C00040800000004011905080000000C01195F
S31502002C100608000000040119070800000008011C4C
S31502002C200808000004000000090800000000000077
S31502002C300A080000000000000B0800000400000063
S31502002C400D080000000001130E0800000000011329
S31502002C500F0800000004011902090000000401190E
S31502002C60030900000004011904090000000C010B0D
S31502002C7005090000000C010B060900000000000017
S31502002C8007090000000C010B08090000000C010BEB
S31502002C9009090000000401190A09000000040119CB
S31502002CA00B090000000401190C09000000040119B7
S31502002CB00D090000000401190E09000000040119A3
S31502002CC00F090000000C010B000A000000000000C2
S31502002CD0010A0000000C0104020A0000000C0104B3
S31502002CE0030A0000000C0104040A0000000C01049F
S31502002CF0050A000000000000060A000000000000AD
S31502002D00070A0000000C010B080A00000008010B6C
S31502002D10090A0000000C010B0A0A0000000000006C
S31502002D200B0A0000040000000D0A0000000C010559
S31502002D300E0A0000000C01050F0A0000000401192A
S31502002D40000B000000040119010B00000004011928
S31502002D50020B000000040119030B00000004011914
S31502002D60040B000000040119050B00000004011900
S31502002D70060B000000040119070B00006301640141
S31502002D8065016601F8B500274FF0010E0B78016266
S31502002D9003F5800303F556531B02077043624B6922
S31502002DA00D4683628B690446C0E90B738378CE694C
S31502002DB06EF3010383704B78DFF884C3BB4214BF02
S31502002DC072460222837862F30103837091F90B3013
S31502002DD08A7A580903F01F0120300EFA01F14CF8E5
S31502002DE02010BFF34F8FBFF36F8FCB4903F5C65049
S31502002DF051F820E067F3104E41F820E051F8201018
S31502002E00BB42C0F27B811201D2B29C448CF80023F1
S31502002E100127C249DFF828E341F8234095F9053036
S31502002E202A79580903F01F0C203007FA0CF74EF8DE
S31502002E302070BFF34F8FBFF36F8FB74803F5C657A6
S31502002E4050F827C02CF4803C40F827C050F82700E1
S31502002E501201002BD2B2C0F281810EEB030080F880
S31502002E600023012741F8234095F90730DFF8D0E225
S31502002E70580903F01F0C203007FA0CF7AA794EF80E
S31502002E802070BFF34F8FBFF36F8FA34803F5C6576A
S31502002E9050F827C02CF4803C40F827C050F8270091
S31502002EA01201002BD2B2C0F253810EEB030080F85E
S31502002EB00023012741F8234095F90930DFF880E223
S31502002EC0580903F01F0C203007FA0CF72A7A4EF83D
S31502002ED02070BFF34F8FBFF36F8F8F4803F5C65C29
S31502002EE050F82C7027F4803740F82C7050F82C00DC
S31502002EF01201002BD2B2C0F225810EEB030080F83C
S31502002F00002341F82340EFF31087012181F3108853
S31502002F104FF000402A78824BD0405A6822EA0002DB
S31502002F205A605B68962000F0A9FE87F310884FF47A
S31502002F308062636A9A606B78E978EA691B028903A0
S31502002F4001F4804103F440730B431178506809067B
S31502002F5001F040710B435178C90389B20B43517B8F
S31502002F60490501F400110B43616A43F480534B6136
S31502002F701378991E012940F2C8800368616A0B61C1
S31502002F80117BAB7801F0030141F0300133B1022B22
S31502002F9014BF4FF440734FF48073194300209378A3
S31502002FA01B0703F080530B43616ACB60616A0123FE
S31502002FB0886140F21F21287883400B4202D0636A5F
S31502002FC0584959620021937BD07B127C00F01F0086
S31502002FD003F0010343EA002302F01F02606A43EA98
S31502002FE002430363C4E90411C4E90611236ADD69D5
S31502002FF0A1606B7C002B40F0B7807189636A4A4AF4
S31502003000A1819A66226A444B92F9051001F5C652CD
S3150200301053F8220020F4803043F8220053F822208D
S31502003020BFF35F8F01204A09920001F01F0102F1EE
S31502003030604202F5614200FA01F1C2F880111160A4
S31502003040226A92F90B1001F5C65253F8225025F462
S31502003050803543F8225053F82220BFF35F8F4A0986
S31502003060920001F01F0102F1604200FA01F102F53D
S315020030706142C2F880111160226A92F9071001F5C5
S31502003080C65253F8225025F4803543F8225053F89D
S315020030902220BFF35F8F4A09920001F01F0102F15D
S315020030A0604200FA01F102F56142C2F88011116034
S315020030B0226A92F9092002F5C65153F8215025F4E5
S315020030C0803543F8215053F82130BFF35F8F5309FF
S315020030D09B0002F01F0203F16043904003F5614337
S315020030E0C3F880011860114A636A9A60626A137FA4
S315020030F0DB07FCD50E4B00206360F8BD0D491201BB
S3150200310003F00F00D2B20A5482E60B49022B0B4B94
S3150200311018BF0B4632E700BF00600040B0820022B3
S315020031200030204000001F1F1000079D11040100FF
S315020031304249435314ED00E004FF00FF24FF00FF61
S3150200314000E100E0204803F00F0738440276D8E693
S315020031501D4803F00F0738440276AAE61A4803F020
S315020031600F07384402767CE6184B93F8543003F086
S315020031700F03072B24D8DFE803F0040404211F19E8
S315020031801B1D01279F40114B93F8550000F00F00BD
S3150200319000F00EFDB0FBF7F00D4B1A686B7C02FBDC
S315020031A003F3B3FBF0F30133A36026E70327EAE751
S315020031B00527E8E70A27E6E70827E4E70627E2E71E
S315020031C01027083B9F40DEE7FCEC00E000E00140F0
S315020031D0D082002270B584B0EFF30383103B324AEB
S315020031E05BB203F5C65152F8210020F4803042F852
S315020031F0210052F821202D4A52F82340236A1B69E6
S31502003200002B2FD063690BB104B070BD636A9D6851
S31502003210A06825F4801545F4001500283AD100224D
S315020032209D60A36A2261002BEED0E56A6E46002DF0
S315020032302ED095E80F0086E80F0000228023216A2F
S3150200324028460978AA6029602B71236BEB60A36A72
S315020032509847E46A002CD7D096E80F0084E80F005E
S3150200326004B070BD6269636A002AD0D0A27821696F
S3150200327002F00302022A11D00A781A71A278D4E95E
S31502003280041302F003029B1A1144C4E90413BAE7B9
S315020032903546D2E700F0ECFC636AC0E70A8822F4FE
S315020032A0DC4292B25A60E9E700600040B082002236
S315020032B0F0B587B0EFF30383103B354A5BB203F5F3
S315020032C0C65152F8210020F4803042F8210052F80B
S315020032D02120304A52F82340A27802F00303022B3F
S315020032E0636A0CBF1D681D78E3690CBFC5F3080548
S315020032F0EDB20195E3B9A36AC3B1E66A02AF002E45
S3150200330041D096E80F0087E80F000423226A304670
S315020033101278B56032603371236BF360A36A984703
S31502003320E46A1CB197E80F0084E80F0007B0F0BD0D
S3150200333002F0030201A9A06901F0A7FED4E906136F
S31502003340A27802F0030211449B1AC4E90613002B69
S31502003350ECD1A36A002BE9D0E56A02AFADB195E8DC
S315020033600F0087E80F0000220123216A2846097808
S31502003370AA6029602B71236BEB60A36A9847E46A03
S31502003380002CCFD1D2E73E46BFE73D46EBE700BF72
S3150200339000600040B0820022F0B585B0EFF30383EF
S315020033A01A4A103B5CB252F824506A6A936823F4B4
S315020033B0401323F010039360AB6AC3B1EE6A6F4603
S315020033C016B396E80F0087E80F0000220223296A47
S315020033D030460978B260316033712B6BF360AB6AA9
S315020033E09847ED6A1DB197E80F0085E80F00084A75
S315020033F004F5C65352F8231021F4803142F8231003
S3150200340052F8233005B0F0BD3E46DEE7B082002218
S31502003410006000402DE9F04184B0EFF303832A4AAD
S31502003420103B5CB252F82450AB78696A03F003038E
S31502003430022B0CBF0E680E788A6C08BFC6F308060C
S31502003440C2F30073C2F300604FEA031343EA401368
S31502003450C2F3C06243EAC20018BFF6B2DA06844675
S3150200346004D58B6C1B0458BF40F0400C8B6E43F0A6
S31502003470C8538B66AB6ABBB1EF6AE84617B397E8E7
S315020034800F0088E80F002B6A38461B78BE603B6047
S3150200349087F804C02B6BFB60AB6A9847ED6A1DB1D7
S315020034A098E80F0085E80F00084A04F5C65352F85B
S315020034B0231021F4803142F8231052F8233004B04D
S315020034C0BDE8F0814746DEE7B08200220060004098
S315020034D02DE9F84380460088002800F08E800024FB
S315020034E040F20246964D974F05E0B8F800000134C7
S315020034F0A04240F28280D8F804104FEAC40901EBD8
S31502003500C4039A88B24241D040F203418A421DD096
S3150200351040F204418A42E8D11B6803F0B853B3F182
S31502003520807F95F84C3C52D05B0700F1E58097F816
S315020035304430DB09D9D097F84430012123F08003C7
S31502003540C82087F8443000F099FBCEE71B6803F0E9
S31502003550B853B3F1807F95F84C3C67D0990700F1D8
S31502003560B480784B93F84230DB09BED0754A01210C
S3150200357092F84230C82023F0800382F8423000F0ED
S315020035807DFBD8F804304B449A88C1E751F83430B1
S3150200359003F0B853B3F1807F95F84C3C2FD0DB078C
S315020035A000F1B780674B93F84030DB099FD0654A3C
S315020035B0012192F84030C82023F0800382F840307F
S315020035C000F05CFBD8F804304B449A889CE75A0713
S315020035D06ED597F84430DB0987D197F84430C82076
S315020035E043F08003012187F8443000F047FBB8F826
S315020035F000000134A0423FF67EAFBDE8F883DA0749
S3150200360041D597F84030DB097FF471AF4D4A01216D
S3150200361092F84030C82043F0800382F8403000F030
S315020036202DFBD8F804304B449A886DE7980714D5D9
S3150200363097F84230DB097FF458AF424A012192F8EB
S315020036404230C82043F0800382F8423000F016FB75
S31502003650D8F804304B449A885AE7012000F0BEFBA2
S3150200366095F84C3C012043F0020385F84C3C00F0EF
S3150200367085FB344B93F84230DB09DED0D8F80430B0
S315020036804B449A8844E7012000F0A8FB012095F8F4
S315020036904C3C034385F84C3C00F070FB294B93F8F5
S315020036A04030DB09B2D0D8F804304B449A882BE775
S315020036B0012000F093FB95F84C3C012043F00403F3
S315020036C085F84C3C00F05AFB83E7012000F086FBAC
S315020036D095F84C3C012003F0FD0385F84C3C00F0C4
S315020036E04DFB184B93F84230DB097FF43FAFD8F815
S315020036F004304B449A880BE7012000F06FFB95F8E3
S315020037004C3C012003F0FB0385F84C3C00F036FBF1
S315020037100DE7012000F062FB95F84C3C012003F016
S31502003720FE0385F84C3C00F029FB064B93F840302B
S31502003730DB097FF43CAFD8F804304B449A88E3E6C1
S3150200374000E001400020204070B50546FFF7C0FEAC
S31502003750EFF31082012383F31088254E33681BB9D9
S31502003760402024490B75087533680133336082F3B0
S3150200377010882B880022FBB11F4C6B6803EBC2003A
S3150200378053F83210838811F4803F4FEA132EDBB2CE
S3150200379021F4803003EB0E1C21D054F82C30013278
S315020037A023F4803344F82C3044F82C0044F82C10CF
S315020037B0298893B29942E0D8EFF31082012383F36A
S315020037C01088336813B13368013B336033681BB921
S315020037D0802008490B75087582F3108870BD44F87D
S315020037E02C102988013293B29942C6D8E4E700BF69
S315020037F0A8820022000D40400008404008B5034B55
S3150200380003600846FFF7A0FF002008BD54524F5040
S3150200381008000000303900020F00000040380002A4
S31502003820030000002838000200000068000000685B
S315020038300000008000000080E0010022E00100227A
S315020038400000006800000068000000900001090DF9
S315020038500000006800000068000000270001020D59
S315020038600000006800000068500000020001010D1F
S31502003870000000800000008000000090000109089E
S3150200388000000080000000800000002700010208FE
S3150200389000000080000000805000000200010108C4
S315020038A00000000000000000000000900101090570
S315020038B000000000000000000000002701000205D1
S315020038C0000000001822000050000002010001055D
S315020038D00000002000000020000000900101090401
S315020038E00000002000000020000000270100020462
S315020038F0000000200C0000206822000201000104E2
S3150200390000000022000000220000009000010903CE
S31502003910000000220000002200000027000002032F
S3150200392000000022CC0100227422000200000103E2
S3150200393000000068000000680001000D0000006839
S31502003940000000680001000D0000008000000080F9
S31502003950000100080000008000000080000100084D
S31502003960182200001822000001000005DC070020D2
S31502003970EC07002001000004CC010022E001002235
S3150200398000000003108200222084002200000003AF
S315020039901E4A92F8263092F82420DBB202F00F0279
S315020039A0A2F1080103292BD8DFE801F020160C0248
S315020039B01749184A51F82330A2FB03231B09164A5A
S315020039C0136070471249134A51F82330A2FB0323AE
S315020039D0114ADB08136070470D490E4A51F823302D
S315020039E0A2FB03230C4A9B08136070470849094A45
S315020039F051F82330A2FB0323074A5B081360704782
S31502003A00034951F82330D340D9E700BF00E0014013
S31502003A10E0810022ABAAAAAAD0820022704700BF88
S31502003A20F8B54AF2035001235B495C4AA1F8FA034E
S31502003A30938093889BB2002BFBD101244FF4004064
S31502003A409FED516B9FED527B554B5649C3E90711CA
S31502003A505961148083ED007F1861FFF799FF0922EF
S31502003A6006214D4B83F8501A83F8A22093F8002CB6
S31502003A701AB993F8013C98077ED0474C94F8003C5B
S31502003A80002B6ED00022444B83F8012C83F8002CC5
S31502003A900023414A82F8323092F83C301907FBD5AE
S31502003AA045F6017040F2111100233B4C1085A2F835
S31502003AB04C1082F82A3094F83C309B06FBD504223F
S31502003AC001250526354B384F1A77276284F824508C
S31502003AD084F82660FFF75CFF2946962000F0CEF8B0
S31502003AE0002384F824302762FFF752FF29469620E6
S31502003AF000F0C4F884F82660FFF74AFF4AF2015242
S31502003B002A4B1A80BFF35F8F1D72BFF35F8F4FF48C
S31502003B102541198084F8305084F8525084F8535065
S31502003B2094F855301C4A43F0400384F8553092F815
S31502003B305530DB09FBD0C523022082F8540082F8F7
S31502003B40553092F85530144903F0BF0382F85530C8
S31502003B5091F85530DB09FBD14FF42543A1F8FA332E
S31502003B60F8BD0121C82084F8001C00F087F894F8FB
S31502003B70003C012BFBD185E74FF47A70FFF74EFF2D
S31502003B8086E700BFAFF30080006CDC0200127A0009
S31502003B9000800000002D310100E0014000C101401B
S31502003BA0E081002200389C1C3223123100200040A2
S31502003BB0014B53F820007047E081002238B50025FA
S31502003BC0284C0121C82084F8285000F057F884F8C0
S31502003BD0245094F82430002BFBD194F82430214948
S31502003BE043F0020384F8243091F82430C3F34000F2
S31502003BF09B07F9D41B4A81F8220092F8223003F07F
S31502003C00FF00002BF9D192F84030164960F3C71332
S31502003C1082F8403091F84030DB09FBD191F842003E
S31502003C20104A63F3C71081F8420092F84230DB096A
S31502003C30FBD192F844000B4963F3C71082F84400A3
S31502003C4091F84430C3F3C014DB09F9D1012000F026
S31502003C50C5F8054B012083F84C4CBDE8384000F00E
S31502003C608DB800BF0020204000E0014000BEFEE704
S31502003C70A0F101000028FBD1704700BF1E4B1F4A6E
S31502003C801B6800FB01F1934213D302F1854202F550
S31502003C90071203F5742302F6834203F23F23A2FBC3
S31502003CA003239B0CA3FB01314FF0FF30E1B1FFF779
S31502003CB0DFBF4FF47A7210B4114C4FF0FF30B4FBF1
S31502003CC0F3F3A1FB02C434B9BCFBF3F080B15DF897
S31502003CD0044BFFF7CDBFB1FBF3F1A1FB0212002AA1
S31502003CE0F5D1084620B1F2E71846002BDFD170471E
S31502003CF05DF8044B704700BFD082002200127A00A2
S31502003D0000CA9A3B70B500240D4B0E4EB3F8002143
S31502003D10B3F82051ADB2154025FA04F3DB0704D5FA
S31502003D2056F82430E0B203B198470134102CF3D18F
S31502003D30034AA2F81051B2F820311D42FBD170BDE0
S31502003D4000C00040688200220A4B1A8812B10A4952
S31502003D50C1F800235A8812B10749C1F804239A8888
S31502003D6012B10549C1F80823DB8813B1024AC2F829
S31502003D700C3370477C2D000200C00040EFF3108127
S31502003D80012383F31088124B33F8102092B22AB122
S31502003D9033F81020013A92B223F8102033F810308B
S31502003DA09BB293B910B40B4A0B4CB2F8FA3334F8FF
S31502003DB010009BB243F4254323EA0003A2F8FA3328
S31502003DC081F310885DF8044B704781F310887047C1
S31502003DD0C082002200E00140303E000230B4EFF320
S31502003DE01081012383F310880E4A32F810309BB2F9
S31502003DF06BB90D4C0D4DB4F8FA3335F810C09BB2C1
S31502003E0043EA0C0343F425439BB2A4F8FA3332F88F
S31502003E10103001339BB222F8103081F3108830BC87
S31502003E20704700BFC082002200E00140303E00021F
S31502003E3001000200080010002000000008B5094930
S31502003E400A688318B3F5804F03D807480B601044FD
S31502003E5008BD01F003F90C2203461A604FF0FF3049
S31502003E6008BD00BFCC820022E001002200BE7047DE
S31502003E7008B500F035F8FEF725FDFEE7F8B5174F51
S31502003E8005463E68A6B17C6806EB460604EB860646
S31502003E9002E00C34A6420BD0637AAB42F9D1D4E9E4
S31502003EA000020021121A0C3401F086F8A642F3D160
S31502003EB0BE6896B1FC6804EB061602E01034A64210
S31502003EC00BD0637BAB42F9D1D4E90002A168121A86
S31502003ED0103401F0DAF8A642F3D1F8BD1038000228
S31502003EE0B24BB34A2DE9F0415A61BFF34F8FBFF38C
S31502003EF06F8F1B6803F47002B2F5801F00F02F81EA
S31502003F0013F4600F00F0FE80AA4A136843F004031C
S31502003F101360BFF34F8FBFF36F8F4FF47002A64B40
S31502003F20A24C0020C4F88820A360FEF7A5FC002559
S31502003F30FFF776FD4AF202514FF425429F4B0120CC
S31502003F40A3F8FA1383F8B05AA3F8FA23FEF794FCFF
S31502003F509B4B83F30A88974B1A68920704D5A2688B
S31502003F60B2F1007F00F0FF8000240020FFF786FFF9
S31502003F70FFF70EFDFFF722FE0320FFF72FFF914BFF
S31502003F8003201C869C861C879C87A3F84040A3F8C6
S31502003F904440A3F84840A3F84C40A3F85040A3F885
S31502003FA05440A3F85840A3F85C40FFF7E7FE03200D
S31502003FB0FFF714FF844B7D4D5C6003209C60DC6040
S31502003FC01C61FFF7DBFE814FD5F8C0303E6923F056
S31502003FD0FF0343F04403C5F8C0301EB32346D7F8A7
S31502003FE014C00CEBC40252685CF83410203A22F07A
S31502003FF01F02500921F01F012030B0EB511F03F1BF
S31502004000010E41F0010842F0010274D93E695FFADD
S315020040108EF3B342C5F89840C5F89C801C46C5F895
S31502004020A020DED3BFF35F8F05236049C1F8943029
S315020040304B6A43F480334B62BFF34F8FBFF36F8FEC
S315020040404B6913F4803328D1C1F88430BFF34F8F04
S3150200405043F6E076D1F88050C5F34E346401C5F3D9
S31502004060C90505F1010E2B464EF001E004EA0600F1
S3150200407040EA8372C1F86022013B0FF007C8203C78
S3150200408014F1200FEDD1BFF34F8F4B6943F4803308
S315020040904B61BFF34F8FBFF36F8F484CD4F8D833C1
S315020040A09B0743D5D4F8D8330220FEF7E5FB01205F
S315020040B0FFF7E4FEBFF34F8FBFF36F8F00243B4B36
S315020040C0C3F85042BFF34F8FBFF36F8F404A414B45
S315020040D015469B1AA3424FEAA30605DD55F8043B93
S315020040E001349847A642F9DCFFF72EFEBDE8F041FF
S315020040F0002000F071B85FFA8EF3B3421C46FFF45B
S3150200410070AF8FE72B4A136843F004031360BFF3C3
S315020041104F8FBFF36F8F4FF0E022936843F48033E3
S315020041209360BFF34F8FBFF36F8FF6E694F81031AB
S31502004130002BB9D00120FFF751FE94F8103103F09D
S31502004140C003802BF9D100231C4A84F8103192F85F
S3150200415010313F2BFBD80120FFF710FEA4E7190709
S315020041607FF4D2AECCE601211A695869C2F3C302C2
S31502004170093201FA02F300260027DB0843F005C0E4
S31502004180E5E802670FF005C0C0F3C303093301FA7D
S3150200419003F34FF00052DB0843F007C0AFF3008091
S315020041A0E2E802670FF005C0DEE600BF00ED00E0C0
S315020041B001020E0000E001E00000000200E0014002
S315020041C0E0410022000D404000402040103800022D
S315020041D0AC6D0002B46D0002704700BF0300000020
S315020041E0E441000200060E040701F0B52DED028B34
S315020041F0B0EE408B85B017460C460D9D18EE902A00
S315020042000C9E25F02005002AB6BF2D220022B1EE13
S31502004210408B462D1A7004D0452D00D1013402215F
S3150200422000E0032103ABB0EE480B2246019302AB3A
S315020042300093334600F0CCFF472D14D1FB070AD575
S315020042400219B5EE408B3021F1EE10FA08BF039247
S31502004250039B934219D3039B0E9A1B1A136005B054
S31502004260BDEC028BF0BD462D00EB0402E9D10378CA
S31502004270302B07D1B5EE408BF1EE10FA1CBFC4F11C
S315020042800104346033681A44DBE75C1C039419703A
S31502004290DEE7F7B500290270BABF49422D232B2368
S315020042A00929437028DD0DF107030A271D461A4620
S315020042B0013BB1FBF7F607FB1614303402F8014C4A
S315020042C00C463146632CF2DC3031941E03F8011C95
S315020042D0411C2346AB420AD30DF109039B1AAC4299
S315020042E088BF002302330344181A03B0F0BD13F843
S315020042F0016B01F8016FEDE7302330318370031D46
S31502004300C170F1E7494E4600696E66004E414E00A5
S315020043106E616E003000303132333435363738391B
S31502004320414243444546003031323334353637381C
S315020043303961626364656600496E66696E6974799D
S31502004340004E614E005245454E54206D616C6C6FB5
S315020043506320737563636565646564002F646174C5
S31502004360612F6A656E6B696E732F776F726B7370EE
S315020043706163652F474E552D746F6F6C6368616973
S315020043806E2F61726D2D31332F7372632F6E6577C7
S315020043906C69622D63796777696E2F6E65776C69D2
S315020043A0622F6C6962632F7374646C69622F647422
S315020043B06F612E630042616C6C6F63207375636379
S315020043C06565646564002F646174612F6A656E6B4E
S315020043D0696E732F776F726B73706163652F474EC9
S315020043E0552D746F6F6C636861696E2F61726D2DE6
S315020043F031332F7372632F6E65776C69622D637921
S315020044006777696E2F6E65776C69622F6C69626376
S315020044102F7374646C69622F6D707265632E63000C
S31502004420232D302B2000686C4C0065666745464795
S31502004430004300504F534958002E00000000000070
S315020044402DE9F04F8DB00C4616461F46DDF8588012
S31502004450054600F0B9FDD0F800B0584600F022FE3D
S31502004460002394F818900A93D8F80030226807338C
S31502004470059023F0070303F10801C8F8001093ED35
S31502004480000B9FED976BB0EEC07B84ED120BB4EE82
S31502004490467BF1EE10FA24DDB5EEC00BF1EE10FA12
S315020044A002D52D2384F843308F49904BB9F1470F3B
S315020044B08CBF8846984622F0040203234FF0000A76
S315020044C02260236133460BAA21462846009700F054
S315020044D0D1F9013040F089804FF0FF300DB0BDE8D0
S315020044E0F08FB4EE400BF1EE10FA09D710EE903AC7
S315020044F07F49002BBCBF2D2384F843307D4BD5E783
S31502004500636809F0DF0A591C39D10623636042F455
S31502004510806200232846226003930AABCDE9019309
S3150200452009AB00930DF123036168FFF75EFEBAF152
S31502004530470F8046099929D1C81C02DB6368994254
S3150200454041DDA9F102095FFA89F901394A4604F106
S3150200455050000991FFF79DFE0A9A82461318012A16
S31502004560236102DC2268D20701D5013323619DF85B
S315020045702330002BA6D02D2384F84330A2E7BAF1CC
S31502004580470FC4D1002BC2D10123BFE7B9F1650F92
S31502004590DBD9B9F1660F18D1002963680BDD2161F9
S315020045A013B92268D00702D501330B4423614FF0B9
S315020045B0000AA165DBE713B92268D20701D50233E7
S315020045C0F4E70123F2E74FF067090A9B994205DBFC
S315020045D023682161D807EAD54B1CE7E70029D4BF37
S315020045E0C1F1020201221344E0E723685A0507D407
S315020045F02369424631462846B84701302AD16BE73D
S31502004600B9F1650F40F2E08094ED127BB5EE407B86
S31502004610F1EE10FA33D10123374A31462846B8471C
S3150200462001303FF459AFDDE90938434502DB23681F
S31502004630D8070FD5059B5A4631462846B84701305A
S315020046403FF44AAF4FF0000908F1FF3804F11A0AA5
S31502004650C84509DC23689B0700F10781E0680B9BCC
S315020046609842B8BF184639E70123524631462846D2
S31502004670B84701303FF430AF09F10109E8E7099B79
S31502004680002B3BDC01231C4A31462846B847013041
S315020046903FF422AFDDE9093959EA030302D123685F
S315020046A0D907D7D5059B5A4631462846B847013021
S315020046B03FF412AF4FF0000A04F11A0B099B5B425A
S315020046C0534501DC4B4694E701235A4631462846B8
S315020046D0B84701303FF400AF0AF1010AEEE700BF26
S315020046E0FFFFFFFFFFFFEF7F0843000204430002C4
S315020046F0104300020C43000214430002A36DDDF8CE
S3150200470028A05345A8BF5346002B994637DC002301
S3150200471029EAE97904F11A020793A36D0799069328
S31502004720A3EB09038B4231DC099B9A453BDC2368E8
S31502004730DA0738D4099BAAEB0309069BAAEB030303
S315020047409945A8BF9946B9F1000F34DC4FF000082D
S3150200475029EAE97904F11A0B099BAAEB0303A3EBF5
S31502004760090343457FF776AF01235A463146284669
S31502004770B84701303FF4B0AE08F10108ECE7424613
S3150200478031462846B8470130C1D1A5E60123314654
S3150200479028460692B84701303FF49EAE079B069A1A
S315020047A001330793B9E7059B5A4631462846B8476F
S315020047B00130BFD190E6069A4B463146284642441E
S315020047C0B8470130C2D187E6DDF82890B9F1010F6A
S315020047D001DCDB0736D50123424631462846B84777
S315020047E001303FF479AE059B5A4631462846B84712
S315020047F001303FF471AE09F1FF3994ED127BB5EE4B
S31502004800407BF1EE10FA18D04B4608F10102314610
S315020048102846B84701300CD15EE601235A46314696
S315020048202846B84701303FF457AE08F10108C8459B
S31502004830F3DB534604F15002DCE64FF0000804F1C4
S315020048401A0BF4E701234246E1E701234A463146C1
S315020048502846B84701303FF43FAE08F10108E36845
S315020048600B995B1A4345F0DCF8E64FF0000804F1B9
S315020048701909F4E72DE9F047164698468A6807466D
S315020048800B690C46DDF820909342B8BF134633609D
S3150200489091F843200AB1013333602368990642BF77
S315020048A0336802333360256815F0060506D104F134
S315020048B0190AE36832689B1AAB422BDC94F8433040
S315020048C02268003B18BF0123920630D404F143024A
S315020048D041463846C847013023D023681A3454F873
S315020048E00A2C03F00603042B0ABF54F80E5C0025BB
S315020048F033684FF0000608BFED1A54F8123C08BFA1
S3150200490025EAE5759342C4BF9B1AED18B5421AD142
S31502004910002008E00123524641463846C847013086
S3150200492003D14FF0FF30BDE8F0870135C1E7E1184A
S315020049305A1C30200233224481F8430094F8451071
S3150200494082F84310C2E70123224641463846C84749
S315020049500130E6D00136D9E72DE9FF470F7E9146B1
S3150200496080460C46782F9A460C9E01F1430207D8E0
S31502004970622F0AD8002F00F0D180582F00F0B8809D
S3150200498004F1420684F842703AE0A7F16303152B5C
S31502004990F6D801A151F823F0F1490002054A0002B6
S315020049A081490002814900028149000281490002CF
S315020049B0054A00028149000281490002814900023A
S315020049C081490002034B00022F4A0002BD4A00023F
S315020049D08149000281490002254B000281490002F9
S315020049E02F4A00028149000281490002C54A00029B
S315020049F033681A1D1B68326004F1420684F842309D
S31502004A0001239CE033682068191D3160060601D532
S31502004A101D6803E04506FBD5B3F90050002D03DA05
S31502004A202D236D4284F8433058480A2311E0216849
S31502004A303368080653F8045B02D4490648BFADB290
S31502004A406F2F3360514814BF0A230823002184F8CC
S31502004A5043106668002EA66005DB21682E4321F00E
S31502004A60040121604BD01646B5FBF3F103FB115747
S31502004A70C75D06F8017D2F460D46BB42F4D9082BC9
S31502004A800BD12368DF0708D5236961689942DEBF27
S31502004A90302306F8013C06F1FF36921B22614B4693
S31502004AA003AA21464046CDF800A0FFF7E3FE0130F7
S31502004AB04AD14FF0FF3004B0BDE8F087236843F0D7
S31502004AC02003236078273248236884F845701F063E
S31502004AD0316851F8045B02D45F0648BFADB231605B
S31502004AE0D90744BF43F0200323601DB11023ADE76D
S31502004AF02648E9E7236823F020032360F6E71646F3
S31502004B00BDE733682568181D616930602E061B688B
S31502004B1001D5196002E06806FBD519800023164606
S31502004B202361BCE7336800211A1D32601E68626881
S31502004B30304600F09CFA08B1801B6060636823610E
S31502004B40002384F84330AAE72369324649464046A1
S31502004B50D0470130ADD023689B0713D4E068039B8E
S31502004B609842B8BF1846A6E7012332464946404650
S31502004B70D04701309DD00135E36803995B1AAB42F9
S31502004B80F2DCEBE7002504F11906F5E7164300020D
S31502004B9027430002002310B504468360818119462B
S31502004BA04366C28108228361C0E90033C0E9043347
S31502004BB05C3000F001FA0D4B246263620C4BA36277
S31502004BC00C4BE3620C4B23630C4B9C4206D003F165
S31502004BD06802944202D0D0339C4205D104F15800B7
S31502004BE0BDE8104000F040BA10BD00BF094E0002F9
S31502004BF02B4E0002634E0002874E0002D482002230
S31502004C00024A0349034800F069B800BF04000022C3
S31502004C10FD6900021400002241680C4B994210B54E
S31502004C20044601D001F0EAFEA168094B994202D07E
S31502004C30204601F0E3FEE168064B994204D0204685
S31502004C40BDE8104001F0DABE10BD00BFD4820022DA
S31502004C503C830022A483002210B50B4B04210B4C8B
S31502004C600B4A20461A600022FFF794FF04F16800FF
S31502004C7001220921FFF78EFF04F1D0000222122140
S31502004C80BDE81040FFF786BF0C840022D4820022C2
S31502004C90014C0002014800F0E8B900BF1584002269
S31502004CA0014800F0E3B900BF1584002210B504469E
S31502004CB0FFF7F0FF236A1BB1BDE81040FFF7F0BF14
S31502004CC0044B2362044B1B68002BF5D1FFF7C4FF8C
S31502004CD0F2E700BF194C00020C8400222DE9F843CA
S31502004CE00746884614460026D4E90195B9F101091A
S31502004CF005D52468002CF7D13046BDE8F883AB8988
S31502004D00012B07D9B5F90E30013303D029463846AF
S31502004D10C04706436835E9E70FB407B5064904AB51
S31502004D20086853F8042B8168019301F0CBFC03B0A9
S31502004D305DF804EB04B0704710000022024B0146F6
S31502004D401868826801F0E3BE10000022036A70B59B
S31502004D5005460E4684680BB9FFF7A8FF636EDB07AC
S31502004D6005D4A389980502D4A06D00F07EF9A38923
S31502004D70190702D52369002B35D12146284600F0B2
S31502004D80C5F880B34FF0FF35636EDA0705D4A38901
S31502004D909B0502D4A06D00F069F9284670BD002B70
S31502004DA004DAA2699A4217DC0A2915D023685A1C2A
S31502004DB022601970A36816F8011F013BA36000293F
S31502004DC0EDD1002B11DA22460A21284600F05FF8BF
S31502004DD00130D7D00A25D7E72246284600F057F8F1
S31502004DE00130E7D1CEE7013EE4E723685A1C226090
S31502004DF00A221A70EEE70000024B01461868FFF716
S31502004E00A5BF00BF1000002210B50C46B1F90E1066
S31502004E1000F000F90028ABBF636DA3891B1823F4C9
S31502004E208053ACBF6365A38110BD2DE9F0411F46D7
S31502004E308B8905460C46DB05164605D5022300225C
S31502004E40B1F90E1000F0D4F8A3893246B4F90E1067
S31502004E50284623F48053A3813B46BDE8F04100F087
S31502004E60EBB810B50C46B1F90E1000F0C1F8431CB0
S31502004E70A38915BF606523F4805343F48053A3814D
S31502004E8018BFA38110BDB1F90E1000F0A1B8F8B594
S31502004E900E461446054618B1036A0BB9FFF706FF1C
S31502004EA0A369A360A3891A0701D5236943B92146D9
S31502004EB0284600F02BF818B14FF0FF373846F8BDF8
S31502004EC02368F6B222693746981A6369834205DC7B
S31502004ED02146284601F092FD0028EDD1A368013B48
S31502004EE0A36023685A1C22601E70431C62699A42A0
S31502004EF004D0A389DB07E1D50A2EDFD12146284655
S31502004F0001F07CFD0028D9D0D6E7000038B5294B40
S31502004F1005460C46186818B1036A0BB9FFF7C6FEB8
S31502004F20B4F90C30190722D4DA0607D409222A600A
S31502004F3043F040034FF0FF30A38133E0580712D508
S31502004F40616B41B104F14403994202D0284600F054
S31502004F508DFE00236363A38923F02403A381002328
S31502004F60636023692360A38943F00803A38123694D
S31502004F704BB9A38903F42073B3F5007F03D021460E
S31502004F80284601F088FDB4F90C3013F001020AD06C
S31502004F900022A26062695242A261226942B913F0FA
S31502004FA08000C5D138BD990758BF6269A260F4E78F
S31502004FB00020F7E71000002202440346934200D184
S31502004FC0704703F8011BF9E70048704750010022B9
S31502004FD038B50023054D044608462B60FDF78EFAC8
S31502004FE0431C02D12B6803B1236038BD1084002212
S31502004FF038B50446064D0846114600222A601A466E
S31502005000FDF788FA431C02D12B6803B1236038BD31
S315020050101084002238B50446064D08461146002281
S315020050202A601A46FDF75CFA431C02D12B6803B1CB
S31502005030236038BD1084002238B50446064D084662
S31502005040114600222A601A46FDF766FA431C02D16F
S315020050502B6803B1236038BD10840022014B186807
S31502005060704700BF10000022704770477047C9B2F0
S315020050700346024410B59342184601D1002003E0CC
S31502005080047801338C42F6D110BD0A44431E914284
S3150200509000D1704710B511F8014B914203F8014F48
S315020050A0F9D110BD034613F8012B002AFBD1181AB9
S315020050B0013870472DE9F74F036907460C69A34289
S315020050C0C0F28380013C00F1140501F11408A3002B
S315020050D055F8242008EB8409009305EB8403019319
S315020050E058F8243001339A42B2FBF3F631D34FF02B
S315020050F0000AC446AE46D3465CF8043B98B2E14584
S315020051004FEA134306FB00A04FEA104280B206FBA9
S315020051100323DEF8002092B24FEA134AA2EB000202
S315020051209BB2DEF800005A44C3EB224392B203EB71
S31502005130104342EA03424FEA234B4EF8042BDBD2DA
S31502005140009BEB582BB9019B043B9D421A4630D378
S315020051503C61384601F000F9002826DB294600208A
S3150200516058F8042BD1F800C01FFA82FEC1451FFA77
S315020051708CF34FEA1242A3EB0E030344C2EB234223
S315020051809BB202EB1C4243EA02434FEA224041F839
S31502005190043BE5D255F8242005EB840322B9043BEF
S315020051A09D421A460BD33C610136304603B0BDE838
S315020051B0F08F1268043B002ACAD1013CC5E7126887
S315020051C0043B002AEFD1013CEAE70020EEE70000AB
S315020051D02DE9F04FC76981462DED028B91B055EC52
S315020051E0104B1C9E069109920C938DED020B7FB912
S315020051F0102000F085FD0246C9F81C0020B99E4B1E
S31502005200EF219E48FEF732FDC0E901770760C760CD
S31502005210D9F81C30196859B15A6801234846934097
S315020052204A608B6000F062FED9F81C3000221A60D8
S315020052302B1EB7BF23F00043002301220393ACBF0A
S31502005240336032608E4B039EB34310D142F20F732A
S315020052500C9A1360C6F31303234300F0D5841D9BF7
S31502005260884F002B00F0D784FB1C00F0D2BC9DEDCA
S31502005270028BB5EE408BF1EE10FA0AD101230C9A9D
S3150200528013601D9B13B1804B1D9A13607F4F00F074
S31502005290C2BC0EAAB0EE480B0FA9484601F010F99F
S315020052A0C6F30A530E9A0190002B45D018EE901AB7
S315020052B0B0EE487BA3F2FF330025C1F3130141F0A0
S315020052C07F5141F44011B7EE086B07EE901A9FED3D
S315020052D0645B37EE467B9FED646BA7EE056B07EECC
S315020052E0903AB8EEE74B9FED625BB0EE467BA4EEDA
S315020052F0057BB5EEC07BFDEEC76BF1EE10FA16EE3E
S31502005300908A08D5B8EEE66BB4EE476BF1EE10FA6A
S3150200531018BF08F1FF38B8F1160F2DD85C4901EB1A
S31502005320C80191ED007BB4EEC78BF1EE10FA01D500
S3150200533008F1FF38002120E00F9B0125134403F2F8
S3150200534032412029C9BFC1F14001C1F120018E407D
S3150200535003F21241D8BF04FA01F103F1FF33C4BFCD
S3150200536024FA01F1314307EE901AB8EE677B17EE85
S31502005370901AA1F1F871A6E70121D21A0B91531ED8
S31502005380059345BFC2F10103002200230592B8F13D
S31502005390000F17DB059ACDF82880424405920022B9
S315020053A00792069A092A42D8052AC5BF043A00245A
S315020053B001240692069A023A032A43D8DFE802F04B
S315020053C03335160AC8F10002A3EB0803079200223E
S315020053D00A92E6E701220892099A08EB020B0BF100
S315020053E0010A5246012AB8BF012206E001220892AA
S315020053F0099A002A29DD93469246D9F81C700021A3
S31502005400042000F11406964226D979604846049390
S3150200541000F02CFD049B074600283DD11D4B024699
S3150200542040F2AF11EDE60022E1E70022D3E70124C4
S315020054300022089406924FF0FF3B00211222DA4620
S315020054400991DAE701220892F5E74FF0010BDA46F5
S315020054505A46CDF824B0D0E701314000D1E700BF6B
S3150200546061436F63A787D23FB3C8608B288AC63F62
S31502005470FB799F501344D33F454300025C4300022D
S315020054800000F07F4143000215430002144300026C
S31502005490A8650002B5430002D9F81C20BAF10E0F26
S315020054A010606ED8002C6CD0B8F1000F40F3B480B7
S315020054B008F00F01C74A18F4807F02EBC1024FEAD7
S315020054C0281192ED007B00F09B80C34A01F00F0188
S315020054D092ED086B032288EE066B8DED026BBE48D9
S315020054E0002940F08F809DED026B86EE077B8DEDE5
S315020054F0027B0B999DED027B002900F0B380B7EE8B
