S01A000072613874325F636F72656D61726B5F6763632E737265631A
S31502000000E0810022F53A00028D390002F13A00023F
S31502000010F13A0002F13A0002F13A0002F13A000224
S31502000020000000000000000000000000F13A00029B
S31502000030F13A000200000000F13A0002F11300005A
S31502000040ED2D00021D2D0002D52E0002512F0002B9
S315020000502DE9F041B0F9005014462A060E4682B048
S3150200006024D505F07F07B6F900502B0606D505F014
S315020000707F08A7EB080002B0BDE8F081C5F3C30113
S3150200008001EB011215F007039446218F35D0012B9F
S315020000905AD10A4604F12800614601F0FFF8A38FFF
S315020000A00FFA80F803B9A087218F3CE0C5F3C3019C
S315020000B001EB011215F0070380461746218F46D041
S315020000C0012B17D10A4604F12800394601F0E6F859
S315020000D0A38F07B203B9A087218F01F0F1FB07F0C6
S315020000E07F0725F0FF053D4345F080052087A8F8E8
S315020000F00050B8E72F46A8B2EFE7212A98BF4FF083
S31502000100220C0191B4F90230B4F90020D4E90510A9
S31502000110CDF800C001F00CFBE38F0FFA80F8002B3C
S31502000120C2D1218FE08701F0CBFB08F07F0825F0D2
S31502000130FF0548EA0505208745F08005A7EB08007C
S31502000140358002B0BDE8F081A846A8B2EBE7212AC5
S3150200015098BF22270191B4F90230B4F90020D4E9FC
S315020001600510009701F0E4FAE38F07B2002BB3D132
S31502000170218FE087B1E700BF2DE9F04F8E46B0F937
S3150200018004800546B8F1000F4FF000017646446A36
S3150200019085B040F380818C4689460B468246002E06
S315020001A0CFB2C0F2E280002C00F07981204601E055
S315020001B0006820B14268B2F90220B242F8D10025A5
S315020001C000E01446226825602546002AF9D1002857
S315020001D000F0D9804268B2F90020D50703D5C2F3F0
S315020001E0402213449BB2026822B11568056020685A
S315020001F01060226009F101091FFA89F9002EA8BFD1
S31502000200013601F10101A8BF36B24145C7D15546B3
S31502000210CCEB890C634499B2BEF1000F00F3D08097
S31502000220002223689642D3F800905D68D9F804004C
S315020002305860C9F804501868254600681860C9F85D
S3150200024000205CDB6B68B3F90230B34208D02D683C
S31502000250002D00F016816B68B3F90230B342F6D175
S315020002606368B3F9000001F0D7FC2D680146002D42
S31502000270F6D125686A68D9F80430C9F804206B609B
S315020002802B684FF0010CC9F800304FF00008C5F892
S3150200029000908946002C66D0002007468646012536
S315020002A0BCF1000F0CEB050221464FF00003B8BF6C
S315020002B02A46AE4402E00968013309B1013AFAD18D
S315020002C0002B254666460C4608DDEEB92A462D6801
S315020002D0013B68B102601046002BF6DC002E36DDCB
S315020002E0002C36D093B92246013E24680028F1D16B
S315020002F017461046F0E72D68002D00F0C2806B68A5
S315020003001B789F42F7D1ABE7002CDFD0D5F804A0CB
S315020003106168BAF9002022F0FF0BC2F307224BEA0A
S31502000320020BAAF800B0B1F9002022F0FF0BC2F3CB
S3150200033007224BEA020BA1F800B0BAF902A0B1F902
S3150200034002209245C2DD2246013E2468C1E7002C06
S31502000350A5D1BEF1010FC0F8008021D03C464FEA7C
S315020003604C0C002C98D12460FFDE002C00F0978004
S31502000370204603E0006800283FF421AF4268127865
S315020003809742F7D11BE722680CF1010C52681FFA5B
S315020003908CFC92F9012002F0010213449BB22DE774
S315020003A03C68494644B17B68B3F9000001F034FC6D
S315020003B024680146002CF6D1084605B0BDE8F08F48
S315020003C0CDE901764FF001092646AA460391002E91
S315020003D063D000243546A04622460126B9F1000F15
S315020003E009EB060328464FF0000BB8BF33463244EA
S315020003F003E000680BF1010B08B1013BF9D12E466F
S3150200040037465E46002E05469346CDF800900ADD35
S31502000410B9F1000F15D13A463F68013E74B1226028
S315020004201446002EF4DCB9F1000F18DDF5B156B909
S315020004302A4609F1FF392D68002CF0D19046144660
S31502000440EFE7002DE7D0524669687868FFF700FEAD
S315020004500028E0DD2A4609F1FF392D68DEE75A4613
S31502000460DDF80090002DB8D1594602E05946DDF874
S31502000470009000230129236008D046464FEA490925
S31502000480A5E72568002D7FF4EBAEF3E64446DDE9E9
S3150200049001760399C4E60F46BEE63660FFDE002308
S315020004A01B68FFDE00232DE9F04748F28006734CF5
S315020004B09446A4FB00421209023A01EBC2050B6004
S315020004C04D606B804B6801F11004A5421E8005F158
S315020004D0040001F1080305EB820E0DD905F10806A9
S315020004E0B645D1F800A009D90B6023466FF0004447
S315020004F0C1E902A030466C60D1F800A062B303F1F4
S315020005000806B5424FF0000447F6FF791FFA8CF849
S3150200051022D9071DBE4540F2A980C3F800A01FFAE2
S3150200052084FA0B6058608AEA0803DB000AF0070ABD
S3150200053003F0780343EA0A0303EB03230134A0F82A
S31502000540029003809442D1F800A005D0334603F10D
S315020005500806B5423846DCD8DAF800005346D8B168
S31502000560464C4FF40070A4FB02420126920807E0B3
S315020005706E801B6800F580701C68013680B25CB123
S31502000580B2425D68F4D800F4E0648CEA06073C43A4
S31502000590C4F30D046C80ECE700240125A64626462A
S315020005A0A0460120002D05EB000C0B464FF0000281
S315020005B0B8BF8446064402E01B68013213B1BCF19F
S315020005C0010CF9D1002A284608DD98B90F68013ACC
S315020005D074B12160002A0C463946F6DC00282DDD6E
S315020005E07BB34AB90F46013819461B68002CF0D175
S315020005F08E46EFE7002BE9D0D1F804905F68B9F98F
S3150200060000C02CF0FF0ACCF3072C4AEA0C0CA9F81E
S3150200061000C0B7F900C02CF0FF0ACCF3072C4AEA57
S315020006200C0CA7F800C0B9F90290B7F902C0E1456F
S31502000630CCDD0F46013819461B68C9E70BB11946CE
S31502000640AFE7012EC4F800800AD06D00BEF1000F9C
S3150200065009D073464FF0000E194674467646A0E757
S315020006607046BDE8F087CEF800E0FFDE0134A24214
S315020006703FF472AF07461E4668E700BFCDCCCCCC2E
S315020006802DE9F04F2DED028B00239DB009AA08A992
S315020006900DF16A00089300F0CBFE012001F0ECF8A0
S315020006A003460220ADF8283001F0E6F8034603209F
S315020006B0ADF82A3001F0E0F803460420ADF82C30FC
S315020006C001F0DAF803460520119301F0D5F8002867
S315020006D008BF07200A9B1290002B40F0F880BDF954
S315020006E02C30002B00F09881002100F0010310F05D
S315020006F00206994A1C4618BF5C1C10F00400ADF8AD
S3150200070068100C924FF4FA6140F0CD80B1FBF4F11F
S315020007101091002B40F0E982002E40F08181129B5D
S31502000720DE0707D5BDF928200D991098FFF7BAFE06
S31502000730129B13909D0748D4580705D50F9ABDF909
S315020007402810109800F084FE119B002B4ED1012335
S315020007500024002503EB83035B00119300F022FEC5
S31502000760119F0026CDE91845CFB101210AA8FFF74E
S3150200077003FDBDF8601001F0A3F803464FF0FF3108
S315020007800AA8ADF86030FFF7F7FCBDF8601001F07B
S3150200079097F8ADF8600096B10136B742E5D100F0A0
S315020007A027FE00F02FFE00F033FEB7EE007BB4EE1C
S315020007B0C70BF1EE10FA40F19880119BCAE7012FA0
S315020007C0ADF86200EBD00126CFE7BDF92A40BDF9AC
S315020007D0282014AB42EA04420E99109800F06EFDEE
S315020007E0129B5C07AAD4119B002BB0D000F0DAFD55
S315020007F000220023119D0024CDE91823D5B1012141
S315020008000AA8FFF7B9FCBDF8601001F059F80346D3
S315020008104FF0FF310AA8ADF86030FFF7ADFCBDF826
S31502000820601001F04DF8ADF86000002C49D001349B
S31502000830A542E4D100F0DCFD00F0E4FD0021804693
S31502000840BDF9280001F0E8F90146BDF92A0001F0D8
S31502000850E3F90146BDF92C0001F0DEF90146BDF9C6
S31502000860400001F0D9F947F605339842064600F0F2
S31502000870D2814AD948F60223984200F023824EF6E4
S31502000880F513984240F0DB80344801F059FA03220E
S3150200089048F63A6341F6D77C4EF2147007929B46AD
S315020008A0E246024649E0671CB1FBF7F11091002BC4
S315020008B040F0BA80002E40F0148201FB04220F920F
S315020008C02DE7012DADF86200B4D0012497E7012B84
S315020008D07FF40AAFBDF92C30002B7FF405AF6623F7
S315020008E01F4AADF82C300A92FEE6FCEEC07B17EEEC
S315020008F0903A012B4FF00A0138BF0123B1FBF3F303
S31502000900119A03FB0222119270E741F6F203984212
S3150200091000F0908144F6AF63984240F0908011480F
S3150200092001F00EFA02224EF2A45345F2086C46F684
S31502000930792007929B46E24602460B4F3D68002D00
S3150200094000F083800024CDE9058691462646CDE94E
S31502000950020C049322E000BF10000020246700026C
S3150200096015341534F46600020000002035F80A2C0E
S315020009705A454ED0049B3146B64801F0DDF935F8AA
S31502000980083C01339BB225F8083C3A68711C8EB2CA
S31502000990234496429DB21CB280F01181002306EBDD
S315020009A006181CAA02EB880828F8083C58F8283CC6
S315020009B03501D9070FD538F80E2C4A450BD0029BC4
S315020009C03146A54801F0B8F938F8083C013328F851
S315020009D0083C58F8283C9A0714D51CAA05EB0608C9
S315020009E002EB880838F80C2C52450BD0039B314693
S315020009F09A4801F0A1F938F8083C013328F8083C76
S31502000A0058F8283C354413F0040F1CAB03EB85055C
S31502000A10ACD135F8083CB8E76623ADF82C3063E66E
S31502000A2001FB03220E927AE60D92002E3FF445AFA9
S31502000A3001FB03230E9300283FF471AE3DE74FF00E
S31502000A40FF334FF6FF75864F079301F073F910993E
S31502000A500544844801F070F94146834801F06CF977
S31502000A60404600F0D5FC814853EC102B01F064F9A6
S31502000A70404600F0CDFCB5EEC00BF1EE10FAADB279
S31502000A8011DD3A68119B404602FB03F307EE903AEA
S31502000A90B8EE678B00F0BCFC88EE007B744853EC22
S31502000AA0172B01F049F9404600F0B2FCB2EE047B86
S31502000AB0B4EEC70BF1EE10FA00F18480119B39688F
S31502000AC06C4803FB01F101F037F96B496B4801F001
S31502000AD033F96B496B4801F02FF96B496B4801F00A
S31502000AE02BF931466A4801F027F9129A3B68D0077A
S31502000AF02DB214D5002B51D00024664E04EB0413FC
S31502000B001CAA02EB8303214633F80E2C304601F071
S31502000B1013F901343B68A4B29C42EFD3129A9107AF
S31502000B2014D50024002B39D05B4E04EB04131CAA07
S31502000B3002EB8303214633F80C2C304601F0FCF815
S31502000B4001343B68A4B29C42EFD3129A520712D5E3
S31502000B5000241BB3514E04EB04131CAA02EB8303BD
S31502000B60214633F80A2C304601F0E6F801343B6898
S31502000B70A4B29C42EFD38BB10024494E04EB04137A
S31502000B801CAA02EB8303214633F8102C304601F0EF
S31502000B90D3F801343B68A4B29C42EFD3002D16D0A1
S31502000BA0D4BF4048404801F0CBF80DF16A0000F08E
S31502000BB043FC00201DB0BDEC028BBDE8F08FDDE9E1
S31502000BC0058642E7394801F0BBF8013576E7384831
S31502000BD001F0B6F8079B032BE7D13A68119B404612
S31502000BE002FB03F307EE903AB8EE678B00F010FCB7
S31502000BF088EE007B2049224B009101932D4853EC4D
S31502000C00172B01F099F820492B4801F095F80A2094
S31502000C1001F09EF8C9E7294801F092F8012243F64D
S31502000C20BF1341F2991C4FF44D5007929B46E24680
S31502000C30024682E6224801F083F8042248F68453EB
S31502000C4040F2477C4EF2C13007929B46E24602468C
S31502000C5073E600BFE06700027C670002AC67000231
S31502000C6000000020106800022868000240680002A6
S31502000C7058680002B0680002C8680002DC68000218
S31502000C80F4680002246900023C6900024469000219
S31502000C905C6900027869000294690002B069000288
S31502000CA0CC690002546A0002B86A00027068000247
S31502000CB0E8690002306A00024C6A0002C466000259
S31502000CC0506700020B4801F03BF8002245F64763E5
S31502000CD04BF6526C4DF2B04007929B46E2460246F4
S31502000CE02BE601FB03230E93E7E50D92002E3FF45C
S31502000CF016AD9DE6986600022DE9F04F8FB080464C
S31502000D00CDE90113BDF96070002800F0B4821546E2
S31502000D100021C20808F1FF3C120128F00706BCF1C7
S31502000D20060FA4EE307BBBB200972846B346924626
S31502000D300F460B9208954FEA48040A9608F00709EF
S31502000D405AD9AAF1100E4FEA1E1E0EF1010E4EF0EE
S31502000D5001E0024692ED807E16EF4468A2EC887EA0
S31502000D600FF009C0B9F1000F3DD05A4602EB010E51
S31502000D7035F81E601E4425F81E60561CB04532D951
S31502000D800E4435F816E09E4425F816E0961CB0454A
S31502000D9029D90E4435F816E09E4425F816E0D61CED
S31502000DA0B04520D90E4435F816E09E4425F816E0E3
S31502000DB0161DB04517D90E4435F816E09E4425F89F
S31502000DC016E0561DB0450ED90E4435F816E0063229
S31502000DD09E44904525F816E005D90A4435F8126076
S31502000DE01E4425F812607E1CB0454144204405D0BD
S31502000DF0BCF1060F3746A4D80022B7E74FF0000928
S31502000E000198C6EB867291000438C8468B46844622
S31502000E10BA4605970391009F2A1904900093101B66
S31502000E20A2EB000EAEF1020E4FEA5E0E0EF1010EBD
S31502000E304EF001E001460CEB890231F9023B07FB59
S31502000E4003F342F8043F0FF009C0D045B144A0EBCA
S31502000E500B0208F1010301D09846E0E74FF00009C2
S31502000E606FEA07570399019A009B521A0992069351
S31502000E706FEA17571346484622464946CA464C4623
S31502000E80DDF81480DDF804E0DDF80CB000960EEB18
S31502000E90890CA3EB0C03043B9B08013305E0B44227
S31502000EA050EAD090013B00B20CD026465CF8044BC7
S31502000EB080B22144B942F2DD0A30013B4FF0000113
S31502000EC000B2F2D1009EC245ACEB0B03B1440AF16B
S31502000ED0010C01D0E246DAE7069B002114460D9387
S31502000EE000F09AFE029A049BA2F1020A039AA5F165
S31502000EF0020B9A1ADC46CDF800B098469346069045
S31502000F0007930AEB04090C960023A9EB0A0EAEF12D
S31502000F10020E4FEA5E0E0EF1010E4EF001E0504651
S31502000F2061461A4648F8043F31F8023F30F8026F2C
S31502000F3013FB0622C8F800200FF00BC0C345A444D9
S31502000F40E2D14FF00009DDE90C6348464946CA463C
S31502000F504A46DDF800B0DDF804E0CDF830B0DDF841
S31502000F600CB0DDF824C0DDF81480009605930994D0
S31502000F700EEB8904ACEB0403043B9B08013305E04A
S31502000F80B24250EAD090013B00B20CD0164654F859
S31502000F90042B80B21144B942F2DD0A30013B4FF014
S31502000FA0000100B2F2D1009BC2459944ACEB0B0C96
S31502000FB00AF1010301D09A46DAE7059B0699DDF8A4
S31502000FC030B0009E099C009300F026FE0021D9460F
S31502000FD08A46009BCDE90C75049A039D0590CDF8CF
S31502000FE018B0099390464FF0000BCDE90012DDF8D8
S31502000FF008C0002E14BFB6464FF0010E624649469F
S3150200100000234EF001E048F804AF178831F8020FCA
S31502001010224410FB0733C8F800300FF00BC00BF167
S31502001020010B5E450CF1020CE3D8DDE90012013139
S315020010308E42A144A2EB0502D4D80020DDE90C754C
S31502001040014602468246DDF818B0099BCDF800B08B
S31502001050DDF81090DDF80CB0002ECE4614BFB44673
S315020010604FF0010C06E0414550EAD090BCF1010C6C
S3150200107000B20DD088465EF8041F80B20A44BA4216
S31502001080F1DD0A30BCF1010C4FF0000200B2F1D1E1
S315020010900AF1010A5645A9EB0B09DDD84FF0000A01
S315020010A00599DDF800B0D146009300F0B5FD009B2E
S315020010B00995CDE9053704990490DDE90230CDF8AA
S315020010C008A01F468C464FF000089A46CDE900B1AB
S315020010D0002E14BFB6464FF0010E394600224EF0DE
S315020010E001E0009D4CF8049FB1F800B035F8023FCC
S315020010F0214413FB0BF3C3F3830BC3F3461303FB26
S315020011000B22CCF800200FF011C808F10108464561
S3150200111007F10207DCD85346DDE900B1DDF808A085
S31502001120A3440AF1010A5645A1EB0001C7D80020E3
S31502001130DDE90537014602468146099DDDF81CA018
S31502001140DDF80CB0002ED64614BFB4464FF0010CA3
S3150200115006E0414550EAD090BCF1010C00B20DD038
S3150200116088465EF8041F80B20A44BA42F1DD0A30AC
S31502001170BCF1010C4FF0000200B2F1D109F10109F4
S315020011804E45AAEB0B0ADDD80499009300F044FD04
S31502001190DDE90A890021009B0F46A4EE303BDDF80B
S315020011A020C0072E65D9A9F1100E4FEA1E1E0EF1B8
S315020011B0010E62464EF001E092ED807E16FF446813
S315020011C0A2EC887E0FF009C0464549D0424601EBA3
S315020011D0020A35F81AE0AEEB030E25F81AE002F120
S315020011E0010EB6453CD28E4435F81EA0AAEB030A80
S315020011F025F81EA002F1020EB64531D28E4435F80C
S315020012001EA0AAEB030A25F81EA002F1030EB6459C
S3150200121026D28E4435F81EA0AAEB030A25F81EA094
S3150200122002F1040E76451BD98E4435F81EA0AAEBB0
S31502001230030A25F81EA002F1050E764510D98E4442
S3150200124035F81EA00632AAEB030A964225F81EA01E
S3150200125006D90A4435F812E0AEEB030E25F812E081
S315020012600137B7423144A4449BD300B20FB0BDE864
S31502001270F08F0022ABE7014600F0CEFC0146404665
S3150200128000F0CAFC0146404600F0C6FC0146404654
S3150200129000F0C2FC00B20FB0BDE8F08F10B51446E4
S315020012A082B00091C168D0E901230068FFF724FDEE
S315020012B0214602B0BDE8104000F0AEBC2DE9F04F69
S315020012C0002A08BF012287B0002860D00024064603
S315020012D02046013404FB04F5B6EBC50FF8D800FB33
S315020012E000F6013921F00307391D4FEA460B054680
S315020012F001EB4606002848D0012400FA04FC0595B5
S315020013004FF0000A6546CDE9031B00EB0409A6F17E
S315020013100208A9EB040E4EF001E0C446CDE901A491
S31502001320E24604FB02F2D2F1000B1FFA8BFB92B2E9
S31502001330A1B252EA4BB201EB020B1FFA8BFB5944E4
S31502001340BA44C9B2AAEB060A2CF802BF0134AAF8BB
S3150200135006100FF01BC8DDE901AB0AF1010A504580
S3150200136000EB0B048144A844D3D1059DDDE9031BA0
S3150200137006EB0B02013A22F003020432C3E901161C
S31502001380DA601D6007B0BDE8F08F8346F0E74FF0E4
S31502001390FF35294421F003074FF0020B2846391D79
S315020013A0BE1DA9E700210E4B0E4A1B680E48A2FB82
S315020013B003239B09013BB3F1807F01600ED24FF0FC
S315020013C0E0224FF0F00C072010B4084C536184F869
S315020013D023C0916110615DF8044B7047704700BFEE
S315020013E0E0820022D34D6210EC07002000ED00E0FF
S315020013F04FF0E02300211A6922F001021A61996175
S31502001400704700BF014B1868704700BFEC07002009
S3150200141007EE100A9FED040BB8EE477B27EE000B92
S31502001420704700BFAFF30080FCA9F1D24D62503F76
S3150200143001230370704700BF00230370704700BF8B
S31502001440024A136801331360704700BFEC0700209D
S315020014502DE9F04F06461046721E012A40F283809D
S3150200146001318BB203F0070107294FF0000C4FF050
S315020014702C08DFF800B1DFF800A1DFF80091C3F312
S31502001480C1043BD0042963D8033901294ED859F83F
S3150200149024100CF109040133A2429BB236D900EBA7
S315020014A00C0E4D1CAEEB0505062D54D808250F78FB
S315020014B000F80C700CF1010791F801C0042D00F838
S315020014C007C08F788EF80270CF788EF803700CD032
S315020014D008250F798EF804704F798EF805708F798A
S315020014E08EF80670C9798EF8071003F007010729EE
S315020014F0A4460EF80580C3F3C104C3D15BF82410D9
S315020015000CF109040133A2429BB2C8D8B4452DD2CC
S315020015100CF101039E42A6EB0C024FF00001BDE85E
S31502001520F04F38BF0122604400F00EBC104901336F
S3150200153051F824100CF10504A2429BB20CF10107EA
S31502001540E4D90D7800EB0C0E00F80C500425B3E735
S315020015505AF824109DE70D68496840F80C50082592
S31502001560CEF80410C1E74FF0000CD1E7BDE8F08FCA
S31502001570C06C0002906C0002A06C0002B06C00020B
S31502001580036884461878002800F0B5802C2800F0FD
S31502001590B0802B3830B40E2828D8DFE800F0922726
S315020015A09233270808080808080808080800086887
S315020015B05A1C013008605B78ABB12C2B00F09E8080
S315020015C02E2B74D0303B092B09D901200B69034419
S315020015D00B611318CCF8003030BC70478C6012F8DF
S315020015E0013F002BE9D113460420F3E7D1E900209D
S315020015F0441C012001320344C1E90024CCF8003026
S3150200160030BC704708685A1C013008605B786BB1C1
S315020016102C2B00F0838003F0DF00452809D0303BF5
S31502001620092B48D812F8013F002BF1D113460520A9
S31502001630D0E74869531C013048615078002863D0CE
S315020016402C2863D02B280AD02D2808D00120CB685D
S315020016500344CB60931CCCF8003030BC7047C8689A
S31502001660931C0130C860907800284BD02C284FD0AC
S315020016708C693038092804F1010406D9D31C8C611F
S31502001680CCF80030012030BC70478C611C4613F840
S31502001690012FA2F13000002A3CD02C2A3CD0092886
S315020016A0F4D901204B6803444B60A31C92E70B69F3
S315020016B001330B61B6E701204B6903444B611318F2
S315020016C088E708685A1C013008605D7865B32C2DDE
S315020016D027D08C68A5F13000092804F101047FF6B1
S315020016E07DAF2E2D03D001208C60023372E78C6011
S315020016F098E700200133CCF80030704713460420E7
S31502001700013367E7062065E7032063E70320F7E76F
S315020017100620F5E707205DE70720F1E713460520D7
S31502001720EEE713460220EBE71346022052E700BF1C
S315020017302DE9F0430C4693B00021804691460AA853
S3150200174020221E46BDF96870BDF86C50019400F067
S31502001750FBFA2022002102A800F0F6FA2378002BD9
S3150200176000F086800AA901A8FFF70AFF12AA02EB77
S31502001770800C019B5CF8402C1B7801324CF8402C03
S31502001780002BEFD1A0444445019417D2012F2146E4
S315020017904DD1621C9045A8EB040363D3B8F1000F48
S315020017A060D00A7801312C2A1CBF82EA090201F8AC
S315020017B0012C013BF5D12378002B55D00AA901A8AB
S315020017C0FFF7DEFE12AA02EB8002019B52F8401CD2
S315020017D01B78013142F8401C002BEFD1A045019441
S315020017E012D9012F33D1621C9045A8EB040337D3DB
S315020017F0B8F1000F34D0227801342C2A1CBF724073
S3150200180004F8012C013BF6D109AE374601AC294654
S3150200181054F8040F00F0E0F8014656F8040F00F001
S31502001820DBF8BC420546F2D113B0BDE8F08323468D
S315020018301A782C2A1CBF82EA09021A703B444345D5
S31502001840F6D32378002BB9D144450194DCD2237810
S315020018502C2B1CBF734023703C444445F7D3D3E77B
S315020018600123C8E701239CE744450194BBD3CBE798
S31502001870A04444458AD3C7E70138042813D8DFE8D1
S3150200188000F006090C0F0300084B18687047084B56
S3150200189018687047074B18687047074B18687047F7
S315020018A0064B186870470020704700BFE00700200B
S315020018B0E8070020E40700200800002004000020BA
S315020018C0C3B2444A83EA010C4CF3000C0CEA020C44
S315020018D08CEA510189B281EA530C4CF3000C0CEAF2
S315020018E0020C8CEA510C1FFA8CFC8CEA930141F330
S315020018F00001114081EA5C0189B281EAD30C4CF302
S31502001900000C0CEA020C8CEA510C1FFA8CFC8CEAD5
S31502001910131141F30001114081EA5C0189B281EAA7
S31502001920531C4CF3000C0CEA020C8CEA510C1FFA05
S315020019308CFC8CEA931141F30001114081EA5C01AF
S3150200194089B281EAD31343F30003134083EA5103B6
S315020019509BB283EA102141F30001114081EA53034D
S315020019609BB283EA502141F30001114081EA5301FF
S3150200197089B281EA902343F30003134083EA5103B9
S315020019809BB283EAD02141F30001114081EA53015F
S3150200199089B281EA103343F30003134083EA510309
S315020019A09BB283EA503141F30001114081EA5301AF
S315020019B089B281EA903343F30003134083EA510369
S315020019C09BB283EAD03040F30000104080EA530015
S315020019D080B2704701A0FFFFC2B28E4B82EA010CB1
S315020019E04CF3000C0CEA030C8CEA510C1FFA8CFC2B
S315020019F08CEA520141F30001194081EA5C0189B285
S31502001A0081EA920C4CF3000C0CEA030C8CEA510CA2
S31502001A101FFA8CFC8CEAD20141F30001194081EADB
S31502001A205C0189B281EA121C4CF3000C0CEA030C2D
S31502001A308CEA510C1FFA8CFC8CEA521141F300011C
S31502001A40194081EA5C0189B281EA921C4CF3000CCE
S31502001A500CEA030C8CEA510C1FFA8CFC8CEAD211AC
S31502001A6041F30001194081EA5C01C0F3072289B201
S31502001A7082EA010C4CF3000C0CEA030C8CEA510CC2
S31502001A801FFA8CFC8CEA520141F30001194081EAEB
S31502001A905C0189B281EA920C4CF3000C0CEA030C4D
S31502001AA08CEA510C1FFA8CFC8CEAD20141F300013C
S31502001AB0194081EA5C0189B281EA121C4CF3000CDE
S31502001AC00CEA030C8CEA510C1FFA8CFC8CEA5211BC
S31502001AD041F30001194081EA5C0189B281EA921C54
S31502001AE04CF3000C0CEA030C8CEA510C1FFA8CFC2A
S31502001AF08CEAD21141F30001194081EA5C01C0F37C
S31502001B00074289B282EA010C4CF3000C0CEA030C80
S31502001B108CEA510189B281EA520C4CF3000C0CEAB0
S31502001B20030C8CEA510C1FFA8CFC8CEA920141F3ED
S31502001B300001194081EA5C0189B281EAD20C4CF3B8
S31502001B40000C0CEA030C8CEA510C1FFA8CFC8CEA92
S31502001B50121141F30001194081EA5C0189B281EA5E
S31502001B60521C4CF3000C0CEA030C8CEA510C1FFAC3
S31502001B708CFC8CEA921141F30001194081EA5C0166
S31502001B8089B281EAD21242F300021A4082EA510273
S31502001B9092B282EA106141F30001194081EA5202CF
S31502001BA092B282EA506141F30001194081EA520180
S31502001BB089B281EA906242F300021A4082EA510235
S31502001BC092B282EAD06141F30001194081EA5201E0
S31502001BD089B281EA107242F300021A4082EA510285
S31502001BE092B282EA507141F30001194081EA520130
S31502001BF089B281EA907242F300021A4082EA5102E5
S31502001C0092B282EAD07040F30000184080EA520095
S31502001C1080B2704701A0FFFFC3B2454A83EA010CB6
S31502001C204CF3000C0CEA020C8CEA510189B281EAEF
S31502001C30530C4CF3000C0CEA020C8CEA510C1FFA02
S31502001C408CFC8CEA930141F30001114081EA5C01AC
S31502001C5089B281EAD30C4CF3000C0CEA020C8CEA32
S31502001C60510C1FFA8CFC8CEA131141F3000111404E
S31502001C7081EA5C0189B281EA531C4CF3000C0CEA3E
S31502001C80020C8CEA510C1FFA8CFC8CEA931141F37C
S31502001C900001114081EA5C0189B281EAD31343F360
S31502001CA00003134083EA5103C0F307209BB280EA84
S31502001CB0030141F30001114081EA53039BB283EA17
S31502001CC0500141F30001114081EA530189B281EAD0
S31502001CD0900343F30003134083EA51039BB283EA62
S31502001CE0D00141F30001114081EA530189B281EA30
S31502001CF0101343F30003134083EA51039BB283EAB2
S31502001D00501141F30001114081EA530189B281EA7F
S31502001D10901343F30003134083EA51039BB283EA11
S31502001D20D01040F30000104080EA530080B27047A2
S31502001D3001A0FFFF002070475FF800F01148000283
S31502001D405FF800F0F14800025FF800F0B14A0002C5
S30D02001D505FF800F035480002BD
S31502001D580100000050C300006600000000000000F9
S31502001D680000000000000000000000000000000063
S31502001D780000000000000000000000000000000053
S31502001D880000000000000000000000000000000043
S31502001D980000000000000000000000000000000033
S31502002548104000000000000003000000E4820022A0
S315020025581400002200000000E48200224C830022BC
S31502002568B483002200000000000000000000000002
S31502002578000000000000000000000000000000004B
S31502002588000000000000000000000000000000003B
S31502002598000000000000000000000000000000002B
S315020025A843000000000000000000000000000000D8
S315020025B8000000000000000000000000000000000B
S315020025C843000000000000000000000000000000B8
S315020025D800000000000000000000000000000000EB
S315020025E84300000000000000000000000000000098
S315020025F800000000000000000000000000000000CB
S315020026084300000000000000000000000000000077
S3150200261800000000000000000000000000000000AA
S315020026284300000000000000000000000000000057
S31502002638000000000000000000000000000000008A
S315020026484300000000000000000000000000000037
S31502002658000000000000000000000000000000006A
S315020026684300000000000000000000000000000017
S31502002678000000000000000000000000000000004A
S3150200268821660002FD6500020000000008770002CC
S3150200269803760002EF750002EF750002EF7500027D
S315020026A8EF750002EF750002EF750002EF75000282
S315020026B8EF750002EF750002FFFFFFFFFFFFFFFF46
S315020026C8FFFFFFFFFFFF0000010041534349490096
S315020026D800000000000000000000000000000000EA
S315020026E80000000000000000000041534349490071
S315020026F800000000000000000000000000000000CA
S31102002708000000000000000000000000BD
S31502002718F1EE103A43F08073E1EE103A704700BFCB
S315020027280348044B834202D0034B03B11847704750
S31502002738308400223084002200000000064B07493C
S31502002748C91A891048BF0131491003D0044B0BB18D
S3150200275801481847704700BF30840022308400229F
S315020027680000000010B5064C237843B9FFF7D8FFDE
S31502002778044B13B10448AFF300800123237010BD44
S31502002788108200220000000028F1C90208B5054B94
S315020027981BB105490548AFF30080BDE80840FFF7BD
S315020027A8CDBF00BF000000001482002228F1C90232
S315020027B810469AB110B50A4A01F1FF3C116A0CEBB0
S315020027C800044B681CF801EF6EF308034B60116AAC
S315020027D88B6C9B00FCD56445F3D110BD704700BFD6
S315020027E8348200222DE9F043184D83B0D5F8906063
S315020027F81748C6F30726314602F006F816B3002430
S31502002808DFF85090DFF8508006E040460097013422
S3150200281801F0FAFFB44215D0C5F89840D5F89C20C5
S31502002828D5F8A030214613F0010FC3F3420722F070
S315020028381F0223F01F03E8D14846013401F0E4FFE2
S31502002848B442E9D103B0BDE8F08300BF00ED00E071
S31502002858786B0002BC6B0002946B000200B51E4B3B
S315020028681E4A1B6883B0A2FB03239B09013BB3F1F3
S31502002878807F0BD24FF0E0224FF0F00C00200721A8
S31502002888174C536184F823C0906111618325154959
S315020028981548164C00F050F81549164801F0B4FFD1
S315020028A8154B164A1649CDE90045164801F0ACFF04
S315020028B8FFF798FF144802F017F803F0E5FE1348ED
S315020028C802F012F8124802F00FF84FF47A7108462D
S315020028D801F014F8F9E700BFE0820022D34D621036
S315020028E800ED00E0DC6C000234820022D06C0002AB
S315020028F8D46B0002E46B0002F86B00020C6C000257
S31502002908186C0002246C00025C6C00026C6C0002FB
S31502002918846C0002022800D070470249024800F07F
S3150200292807BD00BF106D00022C82002208B5FFF712
S3150200293895FF002008BD00BFF8B500274FF0010E2D
S315020029480B78C16103F5800303F556531B02077022
S3150200295803624B690D4643628B690446C0E90A73F2
S315020029688378CE696EF3010383704B78DFF890C3E0
S31502002978BB4214BF72460222837862F30103837054
S3150200298891F90B308A7A580903F01F0120300EFAA2
S3150200299801F14CF82010BFF34F8FBFF36F8FCD496B
S315020029A803F5C65051F820E067F3104E41F820E0CF
S315020029B851F82010BB42C0F273811201D2B29C4474
S315020029C88CF800230127C449DFF834E341F8234091
S315020029D895F905302A79580903F01F0C203007FAB1
S315020029E80CF74EF82070BFF34F8FBFF36F8FB948BD
S315020029F803F5C65750F827C02CF4803C40F827C088
S31502002A0850F827001201002BD2B2C0F27B810EEBDE
S31502002A18030080F80023012741F8234095F907307F
S31502002A28DFF8DCE2580903F01F0C203007FA0CF72E
S31502002A38AA794EF82070BFF34F8FBFF36F8FA54860
S31502002A4803F5C65750F827C02CF4803C40F827C037
S31502002A5850F827001201002BD2B2C0F234810EEBD5
S31502002A68030080F80023012741F8234095F909302D
S31502002A78DFF88CE2580903F01F0C203007FA0CF72E
S31502002A882A7A4EF82070BFF34F8FBFF36F8F9148A3
S31502002A9803F5C65C50F82C7027F4803740F82C7082
S31502002AA850F82C001201002BD2B2C0F206810EEBAE
S31502002AB8030080F8002341F82340EFF31087012131
S31502002AC881F310884FF000402A78844BD0405A6828
S31502002AD822EA00025A605B681E2000F00FFF87F3A5
S31502002AE810884FF48062236A9A606B78E978EA69FB
S31502002AF81B02890301F4804103F440730B431178E6
S31502002B085068090601F040710B435178C90389B22E
S31502002B180B43517B490501F400110B43216A43F427
S31502002B2880534B611378991E012940F2C0800368CD
S31502002B38216A0B61117BAB7801F0030141F0300188
S31502002B4833B1022B14BF4FF440734FF48073194309
S31502002B58937800201B0703F080530B43216ACB604E
S31502002B680123216A886129788B40C3F3090313B1CB
S31502002B78236A5B4959620021937BD07B127C00F061
S31502002B881F0003F0010343EA002302F01F02206A32
S31502002B9843EA02430363C4E90311C4E90511226A3D
S31502002BA87589504825819066E2694A4B92F9052053
S31502002BB802F5C65053F8205061F3104543F82050E9
S31502002BC853F82000BFF35F8F012002F01F05520958
S31502002BD8920002F1604202F5614200FA05F5C2F876
S31502002BE880511560E26992F90B2002F5C65553F831
S31502002BF8256061F3104643F8256053F82550BFF364
S31502002C085F8F02F01F055209920002F1604200FA34
S31502002C1805F502F56142C2F880511560E26992F93A
S31502002C28072002F5C65553F8256061F3104643F8A6
S31502002C38256053F82550BFF35F8F02F01F0552092E
S31502002C48920002F1604200FA05F502F56142C2F805
S31502002C5880511560E26992F9092002F5C65553F8C2
S31502002C68256061F3104643F8256053F82530BFF313
S31502002C785F8F53099B0002F01F0203F160439040E5
S31502002C8803F56143C3F880011860174A236A9A60FC
S31502002C98226A137FDB07FCD5144B00206360F8BD5C
S31502002CA81349120103F00F00D2B20A548AE61149F7
S31502002CB8022B114B18BF0B463AE7104803F00F07D1
S31502002CC838440276F7E60D4803F00F0738440276D1
S31502002CD8C9E600BF00600040C082002200302040E2
S31502002CE800001F1F1000079D1104010042494353AB
S31502002CF814ED00E004FF00FF24FF00FFFCEC00E0F7
S31502002D0800E100E0024803F00F073844027682E643
S31502002D18FCEC00E070B584B0EFF30383103B2F4A56
S31502002D285BB203F5C65152F8210020F4803042F80E
S31502002D38210052F821202A4A52F82340E3691B69E6
S31502002D48002B2CD023690BB104B070BD226A002176
S31502002D58936823F4801343F400139360636AE16073
S31502002D68002BF1D0A56A6E46002D2ED095E80F00ED
S31502002D7886E80F0000228023E16928460978AA60BE
S31502002D8829602B71E36AEB60636A9847A46A002C90
S31502002D98DAD096E80F0084E80F0004B070BD236904
S31502002DA8226A002BD3D0A378E16803F00303022B2F
S31502002DB80DD00B781371A278D4E9031302F003023B
S31502002DC89B1A1144C4E90313BDE73546D2E70B88BB
S31502002DD823F4DC439BB25360EDE700BF006000407A
S31502002DE8C0820022F0B587B0EFF30383103B354A61
S31502002DF85BB203F5C65152F8210020F4803042F83E
S31502002E08210052F82120304A52F82340A27802F0D3
S31502002E180303022B236A0CBF1D681D78A3690CBF26
S31502002E28C5F30805EDB20195E3B9636AC3B1A66AAB
S31502002E3802AF002E41D096E80F0087E80F00042360
S31502002E48E26930461278B56032603371E36AF3603C
S31502002E58636A9847A46A1CB197E80F0084E80F00D2
S31502002E6807B0F0BD02F0030201A9606901F085FE10
S31502002E78D4E90513A27802F0030211449B1AC4E9A5
S31502002E880513002BECD1636A002BE9D0A56A02AFC1
S31502002E98ADB195E80F0087E80F0000220123E1692A
S31502002EA828460978AA6029602B71E36AEB60636A8F
S31502002EB89847A46A002CCFD1D2E73E46BFE73D46E3
S31502002EC8EBE700BF00600040C0820022F0B585B083
S31502002ED8EFF303831A4A103B5CB252F824502A6A6B
S31502002EE8936823F4401323F0100393606B6AC3B10B
S31502002EF8AE6A6F4616B396E80F0087E80F000022FF
S31502002F080223E96930460978B26031603371EB6AA7
S31502002F18F3606B6A9847AD6A1DB197E80F0085E8BA
S31502002F280F00084A04F5C65352F8231021F48031DB
S31502002F3842F8231052F8233005B0F0BD3E46DEE7CC
S31502002F48C0820022006000402DE9F04184B0EFF310
S31502002F5803832A4A103B5CB252F82450AB78296A9A
S31502002F6803F00303022B0CBF0E680E788A6C08BFA7
S31502002F78C6F30806C2F30073C2F300604FEA0313EE
S31502002F8843EA4013C2F3C06243EAC20018BFF6B26C
S31502002F98DA06844604D58B6C1B0458BF40F0400CF5
S31502002FA88B6E43F0C8538B666B6ABBB1AF6AE84651
S31502002FB817B397E80F0088E80F00EB6938461B78C5
S31502002FC8BE603B6087F804C0EB6AFB606B6A984791
S31502002FD8AD6A1DB198E80F0085E80F00084A04F5A6
S31502002FE8C65352F8231021F4803142F8231052F8BE
S31502002FF8233004B0BDE8F0814746DEE7C0820022EE
S31502003008006000402DE9F84380460088002800F059
S315020030188E80002440F20246964D974F05E0B8F896
S3150200302800000134A04240F28280D8F804104FEA28
S31502003038C40901EBC4039A88B24241D040F2034163
S315020030488A421DD040F204418A42E8D11B6803F045
S31502003058B853B3F1807F95F84C3C52D05B0700F128
S31502003068E58097F84430DB09D9D097F84430012136
S3150200307823F08003C82087F8443000F03FFCCEE7EF
S315020030881B6803F0B853B3F1807F95F84C3C67D0C0
S31502003098990700F1B480784B93F84230DB09BED029
S315020030A8754A012192F84230C82023F0800382F83B
S315020030B8423000F023FCD8F804304B449A88C1E722
S315020030C851F8343003F0B853B3F1807F95F84C3C8D
S315020030D82FD0DB0700F1B780674B93F84030DB0946
S315020030E89FD0654A012192F84030C82023F0800318
S315020030F882F8403000F002FCD8F804304B449A8833
S315020031089CE75A076ED597F84430DB0987D197F8BA
S315020031184430C82043F08003012187F8443000F088
S31502003128EDFBB8F800000134A0423FF67EAFBDE8D9
S31502003138F883DA0741D597F84030DB097FF471AF97
S315020031484D4A012192F84030C82043F0800382F8A4
S31502003158403000F0D3FBD8F804304B449A886DE728
S31502003168980714D597F84230DB097FF458AF424ADC
S31502003178012192F84230C82043F0800382F8423097
S3150200318800F0BCFBD8F804304B449A885AE7012071
S3150200319800F064FC95F84C3C012043F0020385F8E4
S315020031A84C3C00F02BFC344B93F84230DB09DED062
S315020031B8D8F804304B449A8844E7012000F04EFCC4
S315020031C8012095F84C3C034385F84C3C00F016FC6C
S315020031D8294B93F84030DB09B2D0D8F804304B4477
S315020031E89A882BE7012000F039FC95F84C3C01201F
S315020031F843F0040385F84C3C00F000FC83E7012009
S3150200320800F02CFC95F84C3C012003F0FD0385F8F0
S315020032184C3C00F0F3FB184B93F84230DB097FF481
S315020032283FAFD8F804304B449A880BE7012000F0E8
S3150200323815FC95F84C3C012003F0FB0385F84C3C41
S3150200324800F0DCFB0DE7012000F008FC95F84C3C89
S31502003258012003F0FE0385F84C3C00F0CFFB064B39
S3150200326893F84030DB097FF43CAFD8F804304B447E
S315020032789A88E3E600E001400020204070B5054642
S31502003288FFF7C0FEEFF31082012383F31088254E61
S3150200329833681BB9402024490B7508753368013316
S315020032A8336082F310882B880022FBB11F4C6B68AF
S315020032B803EBC20053F83210838811F4803F4FEAB9
S315020032C8132EDBB221F4803003EB0E1C21D054F806
S315020032D82C30013223F4803344F82C3044F82C0085
S315020032E844F82C10298893B29942E0D8EFF3108259
S315020032F8012383F31088336813B13368013B3360C3
S3150200330833681BB9802008490B75087582F3108843
S3150200331870BD44F82C102988013293B29942C6D856
S31502003328E4E700BFBC820022000D4040000840408E
S3150200333808B5034B03600846FFF7A0FF002008BD47
S3150200334854524F501D4A92F82630928CDBB202F044
S315020033580F02A2F1080103292BD8DFE801F0201693
S315020033680C021749174A51F82330A2FB03231B09FB
S31502003378154A136070471249124A51F82330A2FBC4
S315020033880323114ADB08136070470D490D4A51F8A9
S315020033982330A2FB03230C4A9B0813607047084993
S315020033A8084A51F82330A2FB0323074A5B08136035
S315020033B87047034951F82330D340D9E700E001406A
S315020033C8E0810022ABAAAAAAE0820022000000003D
S315020033D84AF203529FEDBE4B9FEDBF5B38B5C44818
S315020033E8C44BC549C54CC3E90801C5499FEDBC6B29
S315020033F89FEDBD7B9962A4F8FA23A3EC045F83EDE3
S31502003408007FFFF79FFF00230A200921012284F883
S31502003418500A84F8A21084F8002C84F8363084F80E
S31502003428323094F83C301807FBD540F2234000218D
S315020034384FF6021240F25143B24DC4F8C850A4F8EE
S315020034484E0084F84A10C4F8AC20A4F84C30BFF3F6
S315020034584F8FBFF36F8FAC4B5A6922F400325A6111
S31502003468C3F85012BFF34F8FBFF36F8FA74A136883
S3150200347823F440531360BFF34F8FBFF36F8F0121BD
S31502003488237D02F1C04261F302032375137DD90637
S31502003498FCD49E4A136843F440531360BFF34F8F1C
S315020034A8BFF36F8FA2F57342536913F4003311D138
S315020034B8BFF34F8FBFF36F8FC2F85032BFF34F8FF0
S315020034C8BFF36F8F536943F400335361BFF34F8FD2
S315020034D8BFF36F8F0023894A82F82A3092F83C306C
S315020034E89B06FBD500228A4B1A701A781A781A7824
S315020034F85A68FA2A04D0874959605A68FA2AFBD1C7
S31502003508834B9A687D2A04D0834999609A687D2AF2
S31502003518FBD1052242F22021784B80481862998411
S3150200352883F82620FFF70EFF01211E2000F0E6F998
S31502003538774A5368C3F30903642B84BF01231370C4
S31502003548FFF700FF4AF20152754B1A80BFF35F8FED
S3150200355801221A72BFF35F8F4FF4254267491A8018
S3150200356891F8DA3043F0400381F8DA3091F8DA302C
S31502003578DB09FBD0C923032081F8D40081F8DA30AD
S3150200358891F8DA305D4A03F0BF0381F8DA3092F82F
S31502003598DA30DB09FBD10120802482F8300082F878
S315020035A8520082F8530082F83E3082F83E4092F882
S315020035B87430524943F0400382F8743091F87430FB
S315020035C8DB09FBD007244A200A234C4A81F86C40BF
S315020035D881F8740081F8743092F87430DB09FBD1F3
S315020035E84AF20351B2F8FA43A2F8FA1392F875307E
S315020035F8424843F04003A4B282F8753090F8753019
S31502003608DB09FBD04FF0000C472207233B4980F821
S315020036186DC080F8752080F8753091F87530DB0931
S31502003628FBD144F42543A1F8FA3391F87630334AAC
S3150200363843F0400381F8763092F87630DB09FBD006
S31502003648CA23032082F86E0082F8763092F8763022
S315020036582A4903F0BF0382F8763091F87630DB09FF
S31502003668FBD191F85530254A43F0400381F855308D
S3150200367892F85530DB09FBD0CA23022082F854009F
S3150200368882F8553092F855301C4903F0BF0382F888
S31502003698553091F85530DB09FBD191F85730174A66
S315020036A843F0400381F8573092F85730DB09FBD0D4
S315020036B8C723002082F8560082F8573092F857300E
S315020036C80E4903F0BF0382F857302BE0AFF30080B0
S315020036D8006CDC0200127A000080000000366E01DF
S315020036E80000000000CA9A3B0046C3235543DE1376
S315020036F80084D717E08100220008AF2F00E00140BE
S3150200370800389C1C022B010000ED00E000E001E0FD
S3150200371800C01340FA00001E7D0000E13234233255
S315020037280020004091F85730DB09FBD191F85D3053
S31502003738624A43F0400381F85D3092F85D30DB0956
S31502003748FBD0C62082F85C3082F85D0092F85D30C4
S315020037585A4903F0BF0382F85D3091F85D30DB0900
S31502003768FBD191F87830554A43F0400381F8783016
S3150200377892F87830DB09FBD0C923022082F8700060
S3150200378882F8783092F878304C4903F0BF0382F811
S31502003798783091F87830DB09FBD191F85B30474AEB
S315020037A843F0400381F85B3092F85B30DB09FBD0CB
S315020037B8CA23022082F85A0082F85B3092F85B30FC
S315020037C83E4903F0BF0382F85B3091F85B30DB09B0
S315020037D8FBD191F8DB30394A43F0400381F8DB30FC
S315020037E892F8DB30DB09FBD0C523022082F8D5002C
S315020037F882F8DB3092F8DB30304903F0BF0382F8F7
S31502003808DB3091F8DB30DB09FBD191F8DC302B4A4F
S3150200381843F0400381F8DC3092F8DC30DB09FBD058
S31502003828C52082F8D63082F8DC0092F8DC302349CB
S3150200383803F0BF0382F8DC3091F8DC30DB09FBD1F8
S3150200384891F8DE301D4A43F0400381F8DE3092F8E3
S31502003858DE30DB09FBD0C923092082F8D80082F8BA
S31502003868DE3092F8DE30154903F0BF0382F8DE3007
S3150200387891F8DE30DB09FBD191F8DD300F4A43F0CF
S31502003888400381F8DD3092F8DD30DB09FBD0C9232D
S31502003898042082F8D70082F8DD3092F8DD30074935
S315020038A803F0BF0382F8DD3091F8DD30DB09FBD186
S315020038B84FF42543A1F8FA3338BD00BF00E00140B2
S315020038C810B50024064B012083F8284000F0C6F8FC
S315020038D8044B012083F84C4CBDE8104000F08EB82A
S315020038E80020204000E0014000BEFEE70000000084
S315020038F8A0F101000028FBD1704700BF1E4B1F4AEA
S315020039081B6800FB01F1934213D302F1854202F5CB
S31502003918071203F5742302F6834203F23F23A2FB3E
S3150200392803239B0CA3FB01314FF0FF30E1B1FFF7F4
S31502003938DFBF4FF47A7210B4114C4FF0FF30B4FB6C
S31502003948F3F3A1FB02C434B9BCFBF3F080B15DF812
S31502003958044BFFF7CDBFB1FBF3F1A1FB0212002A1C
S31502003968F5D1084620B1F2E71846002BDFD1704799
S315020039785DF8044B704700BFE082002200127A000D
S3150200398800CA9A3BF8B5002401260D4B0D4FD3F811
S315020039980021D3F82051154006FA04F32B4204D02D
S315020039A857F82430E0B203B198470134152CF3D105
S315020039B8034AC2F81051D2F820312B42FBD1F8BD86
S315020039C800C00040688200220A4B1A8812B10A49CE
S315020039D8C1F800235A8812B10749C1F804239A8804
S315020039E812B10549C1F80823DB8813B1024AC2F8A5
S315020039F80C3370478C72000200C00040EFF310814E
S31502003A08012383F31088124B33F8102092B22AB19D
S31502003A1833F81020013A92B223F8102033F8103006
S31502003A289BB293B910B40B4A0B4CB2F8FA3334F87A
S31502003A3810009BB243F4254323EA0003A2F8FA33A3
S31502003A4881F310885DF8044B704781F3108870473C
S31502003A58D082002200E00140C474000230B4EFF3C1
S31502003A681081012383F310880E4A32F810309BB274
S31502003A786BB90D4C0D4DB4F8FA3335F810C09BB23C
S31502003A8843EA0C0343F425439BB2A4F8FA3332F80B
S31502003A98103001339BB222F8103081F3108830BC03
S31502003AA8704700BFD082002200E00140C4740002C1
S31502003AB808B503460A4903330A6823F0030309488B
S31502003AC81344B3F5804F104401D80B6008BD01F0CA
S31502003AD83DF80C2203461A604FF0FF3008BD00BFBE
S31502003AE8DC820022E001002200BE704708B500F021
S31502003AF837F8FEF71BFFFEE7F8B5174F05463E688F
S31502003B08A6B17C6806EB460604EB860602E00C3490
S31502003B18A6420BD0637AAB42F9D1D4E9000200215E
S31502003B28121A0C3400F0C0FFA642F3D1BE6896B151
S31502003B38FC6804EB061602E01034A6420BD0637B3F
S31502003B48AB42F9D1D4E90002A168121A103401F085
S31502003B5814F8A642F3D1F8BD9472000200000000E0
S31502003B68A04BA14A2DE9F0415A61BFF34F8FBFF32B
S31502003B786F8F1B6803F47002B2F5801F00F007818D
S31502003B8813F4600F00F0EF80984A136823F00403D9
S31502003B981360BFF34F8FBFF36F8F4FF47002944BCE
S31502003BA8904C0020C4F88820A360FEF7B3FEFFF706
S31502003BB80FFC0120FEF7AEFE8E4B83F30A888B4B71
S31502003BC81A68920704D5A268B2F1007F00F0E38072
S31502003BD800240020FFF790FFFFF7B4FBFFF770FE03
S31502003BE80320FFF73BFF844B03201C869C861C8719
S31502003BF89C87A3F84040A3F84440A3F84840A3F89A
S31502003C084C40A3F85040A3F85440A3F85840A3F8F0
S31502003C185C40A3F86040A3F86440FFF7EFFE032078
S31502003C28FFF71CFF754B6F4D5C6003209C60DC60E0
S31502003C381C61FFF7E3FE724FD5F8C0303E6923F0E8
S31502003C48FF0343F04403C5F8C0301EB32346D7F832
S31502003C5814C00CEBC40252685CF83410203A22F005
S31502003C681F02500921F01F012030B0EB511F03F14A
S31502003C78010E41F0010842F001026DD93E695FFA70
S31502003C888EF3B342C5F89840C5F89C801C46C5F821
S31502003C98A020DED3BFF35F8F05235249C1F89430C3
S31502003CA84B6A43F480334B62BFF34F8FBFF36F8F78
S31502003CB84B6913F4803328D1C1F88430BFF34F8F90
S31502003CC843F6E076D1F88050C5F34E346401C5F365
S31502003CD8C90505F1010E2B464EF001E004EA06007D
S31502003CE840EA8372C1F86022013B0FF007C8203C04
S31502003CF814F1200FEDD1BFF34F8F4B6943F4803394
S31502003D084B61BFF34F8FBFF36F8F0220FEF702FEA0
S31502003D180120FFF7F1FEBFF34F8FBFF36F8F002429
S31502003D28304BC3F85042BFF34F8FBFF36F8F354AFC
S31502003D38354B15469B1AA3424FEAA30605DD55F8ED
S31502003D48043B01349847A642F9DCFFF73DFEBDE87D
S31502003D58F041002000F05AB85FFA8EF3B3421C46CF
S31502003D68FFF477AF96E7214A136843F0040313601A
S31502003D78BFF34F8FBFF36F8F4FF0E022936843F480
S31502003D8880339360BFF34F8FBFF36F8F05E7190731
S31502003D987FF4FAAEF4E6012100261A695869C2F3DD
S31502003DA8C303093301FA03F3002400253246DB086C
S31502003DB843F007C0AFF30080E2E802450FF005C002
S31502003DC8C0F3C303093301FA03F34FF00052DB08C9
S31502003DD843F007C0AFF30080E2E802450FF005C0E2
S31502003DE8F6E600BF00ED00E001020E0000E001E089
S31502003DF800000002E0410022000D40400040204041
S31502003E0894720002647800026C780002704700BF60
S31502003E18F0B52DED028BB0EE408B85B017460C46F9
S31502003E280D9D18EE902A0C9E25F02005002AB6BF95
S31502003E382D220022B1EE408B462D1A7004D0452D54
S31502003E4800D10134022100E0032103ABB0EE480B96
S31502003E582246019302AB0093334600F031FF472D09
S31502003E6814D1FB070AD50219B5EE408B3021F1EEC3
S31502003E7810FA08BF0392039B934219D3039B0E9A27
S31502003E881B1A136005B0BDEC028BF0BD462D00EB84
S31502003E980402E9D10378302B07D1B5EE408BF1EE57
S31502003EA810FA1CBFC4F10104346033681A44DBE714
S31502003EB85C1C03941970DEE7F7B500290270BABFD5
S31502003EC849422D232B230929437028DD0DF10703C7
S31502003ED80A271D461A46013BB1FBF7F607FB1614DD
S31502003EE8303402F8014C0C463146632CF2DC303190
S31502003EF8941E03F8011C411C2346AB420AD30DF15A
S31502003F0809039B1AAC4288BF002302330344181ADA
S31502003F1803B0F0BD13F8016B01F8016FEDE730232A
S31502003F2830318370031DC170F1E700000000000004
S31502003F382DE9F04F8DB00C4616461F46DDF858801F
S31502003F48054600F0B9FDD0F800B0584600F022FE4A
S31502003F58002394F818900A93D8F800302268073399
S31502003F68059023F0070303F10801C8F8001093ED42
S31502003F78000B9FED976BB0EEC07B84ED120BB4EE8F
S31502003F88467BF1EE10FA24DDB5EEC00BF1EE10FA1F
S31502003F9802D52D2384F843308F49904BB9F1470F48
S31502003FA88CBF8846984622F0040203234FF0000A83
S31502003FB82260236133460BAA21462846009700F061
S31502003FC8D1F9013040F089804FF0FF300DB0BDE8DD
S31502003FD8F08FB4EE400BF1EE10FA09D710EE903AD4
S31502003FE87F49002BBCBF2D2384F843307D4BD5E790
S31502003FF8636809F0DF0A591C39D10623636042F463
S31502004008806200232846226003930AABCDE9019316
S3150200401809AB00930DF123036168FFF7F9FEBAF1C4
S31502004028470F8046099929D1C81C02DB6368994261
S3150200403841DDA9F102095FFA89F901394A4604F113
S3150200404850000991FFF738FF0A9A82461318012A87
S31502004058236102DC2268D20701D5013323619DF868
S315020040682330002BA6D02D2384F84330A2E7BAF1D9
S31502004078470FC4D1002BC2D10123BFE7B9F1650F9F
S31502004088DBD9B9F1660F18D1002963680BDD216106
S3150200409813B92268D00702D501330B4423614FF0C6
S315020040A8000AA165DBE713B92268D20701D50233F4
S315020040B8F4E70123F2E74FF067090A9B994205DB09
S315020040C823682161D807EAD54B1CE7E70029D4BF44
S315020040D8C1F1020201221344E0E723685A0507D414
S315020040E82369424631462846B84701302AD16BE74A
S315020040F8B9F1650F40F2E08094ED127BB5EE407B94
S31502004108F1EE10FA33D10123374A31462846B84729
S3150200411801303FF459AFDDE90938434502DB23682C
S31502004128D8070FD5059B5A4631462846B847013067
S315020041383FF44AAF4FF0000908F1FF3804F11A0AB2
S31502004148C84509DC23689B0700F10781E0680B9BD9
S315020041589842B8BF184639E70123524631462846DF
S31502004168B84701303FF430AF09F10109E8E7099B86
S31502004178002B3BDC01231C4A31462846B84701304E
S315020041883FF422AFDDE9093959EA030302D123686C
S31502004198D907D7D5059B5A4631462846B84701302E
S315020041A83FF412AF4FF0000A04F11A0B099B5B4267
S315020041B8534501DC4B4694E701235A4631462846C5
S315020041C8B84701303FF400AF0AF1010AEEE700BF33
S315020041D8FFFFFFFFFFFFEF7FD2740002CE740002DB
S315020041E8DA740002D6740002DE740002A36DDDF8EA
S315020041F828A05345A8BF5346002B994637DC00230F
S3150200420829EAE97904F11A020793A36D0799069335
S31502004218A3EB09038B4231DC099B9A453BDC2368F5
S31502004228DA0738D4099BAAEB0309069BAAEB030310
S315020042389945A8BF9946B9F1000F34DC4FF000083A
S3150200424829EAE97904F11A0B099BAAEB0303A3EB02
S31502004258090343457FF776AF01235A463146284676
S31502004268B84701303FF4B0AE08F10108ECE7424620
S3150200427831462846B8470130C1D1A5E60123314661
S3150200428828460692B84701303FF49EAE079B069A27
S3150200429801330793B9E7059B5A4631462846B8477C
S315020042A80130BFD190E6069A4B463146284642442B
S315020042B8B8470130C2D187E6DDF82890B9F1010F77
S315020042C801DCDB0736D50123424631462846B84784
S315020042D801303FF479AE059B5A4631462846B8471F
S315020042E801303FF471AE09F1FF3994ED127BB5EE58
S315020042F8407BF1EE10FA18D04B4608F1010231461E
S315020043082846B84701300CD15EE601235A463146A3
S315020043182846B84701303FF457AE08F10108C845A8
S31502004328F3DB534604F15002DCE64FF0000804F1D1
S315020043381A0BF4E701234246E1E701234A463146CE
S315020043482846B84701303FF43FAE08F10108E36852
S315020043580B995B1A4345F0DCF8E64FF0000804F1C6
S315020043681909F4E72DE9F047164698468A6807467A
S315020043780B690C46DDF820909342B8BF13463360AA
S3150200438891F843200AB1013333602368990642BF84
S31502004398336802333360256815F0060506D104F141
S315020043A8190AE36832689B1AAB422BDC94F843304D
S315020043B82268003B18BF0123920630D404F1430257
S315020043C841463846C847013023D023681A3454F880
S315020043D80A2C03F00603042B0ABF54F80E5C0025C8
S315020043E833684FF0000608BFED1A54F8123C08BFAE
S315020043F825EAE5759342C4BF9B1AED18B5421AD150
S31502004408002008E00123524641463846C847013093
S3150200441803D14FF0FF30BDE8F0870135C1E7E11857
S315020044285A1C30200233224481F8430094F845107E
S3150200443882F84310C2E70123224641463846C84756
S315020044480130E6D00136D9E72DE9FF470F7E9146BE
S3150200445880460C46782F9A460C9E01F1430207D8ED
S31502004468622F0AD8002F00F0D180582F00F0B880AA
S3150200447804F1420684F842703AE0A7F16303152B69
S31502004488F6D801A151F823F0E9440002FD440002DE
S315020044987944000279440002794400027944000210
S315020044A8FD4400027944000279440002794400027C
S315020044B879440002FB45000227450002B545000281
S315020044C879440002794400021D460002794400023A
S315020044D8274500027944000279440002BD450002DC
S315020044E833681A1D1B68326004F1420684F84230AA
S315020044F801239CE033682068191D3160060601D540
S315020045081D6803E04506FBD5B3F90050002D03DA12
S315020045182D236D4284F8433058480A2311E0216856
S315020045283368080653F8045B02D4490648BFADB29D
S315020045386F2F3360514814BF0A230823002184F8D9
S3150200454843106668002EA66005DB21682E4321F01B
S31502004558040121604BD01646B5FBF3F103FB115754
S31502004568C75D06F8017D2F460D46BB42F4D9082BD6
S315020045780BD12368DF0708D5236961689942DEBF34
S31502004588302306F8013C06F1FF36921B22614B46A0
S3150200459803AA21464046CDF800A0FFF7E3FE013004
S315020045A84AD14FF0FF3004B0BDE8F087236843F0E4
S315020045B82003236078273248236884F845701F064B
S315020045C8316851F8045B02D45F0648BFADB2316068
S315020045D8D90744BF43F0200323601DB11023ADE77A
S315020045E82648E9E7236823F020032360F6E7164600
S315020045F8BDE733682568181D616930602E061B6899
S3150200460801D5196002E06806FBD519800023164613
S315020046182361BCE7336800211A1D32601E6862688E
S31502004628304600F09CFA08B1801B6060636823611B
S31502004638002384F84330AAE72369324649464046AE
S31502004648D0470130ADD023689B0713D4E068039B9B
S315020046589842B8BF1846A6E701233246494640465D
S31502004668D04701309DD00135E36803995B1AAB4206
S31502004678F2DCEBE7002504F11906F5E7E07400021F
S31502004688F1740002002310B504468360818119463D
S315020046984366C28108228361C0E90033C0E9043354
S315020046A85C3000F001FA0D4B246263620C4BA36284
S315020046B80C4BE3620C4B23630C4B9C4206D003F172
S315020046C86802944202D0D0339C4205D104F15800C4
S315020046D8BDE8104000F040BA10BD00BF0149000213
S315020046E8234900025B4900027F490002E482002254
S315020046F8024A0349034800F069B800BF04000022D1
S31502004708F56300021400002241680C4B994210B569
S31502004718044601D001F06AFEA168094B994202D00B
S31502004728204601F063FEE168064B994204D0204612
S31502004738BDE8104001F05ABE10BD00BFE482002257
S315020047484C830022B483002210B50B4B04210B4C78
S315020047580B4A20461A600022FFF794FF04F168000C
S3150200476801220921FFF78EFF04F1D000022212214D
S31502004778BDE81040FFF786BF1C840022E4820022AF
S31502004788F9460002014800F0E8B900BF2584002274
S31502004798014800F0E3B900BF2584002210B504469B
S315020047A8FFF7F0FF236A1BB1BDE81040FFF7F0BF21
S315020047B8044B2362044B1B68002BF5D1FFF7C4FF99
S315020047C8F2E700BF114700021C8400222DE9F843D4
S315020047D80746884614460026D4E90195B9F1010927
S315020047E805D52468002CF7D13046BDE8F883AB8995
S315020047F8012B07D9B5F90E30013303D029463846BD
S31502004808C04706436835E9E70FB407B5064904AB5E
S31502004818086853F8042B8168019301F04BFC03B036
S315020048285DF804EB04B0704710000022024B014603
S315020048381868826801F063BE10000022036A70B528
S3150200484805460E4684680BB9FFF7A8FF636EDB07B9
S3150200485805D4A389980502D4A06D00F07EF9A38930
S31502004868190702D52369002B35D12146284600F0BF
S31502004878C5F880B34FF0FF35636EDA0705D4A3890E
S315020048889B0502D4A06D00F069F9284670BD002B7D
S3150200489804DAA2699A4217DC0A2915D023685A1C37
S315020048A822601970A36816F8011F013BA36000294C
S315020048B8EDD1002B11DA22460A21284600F05FF8CC
S315020048C80130D7D00A25D7E72246284600F057F8FE
S315020048D80130E7D1CEE7013EE4E723685A1C22609D
S315020048E80A221A70EEE70000024B01461868FFF723
S315020048F8A5BF00BF1000002210B50C46B1F90E1074
S3150200490800F000F90028ABBF636DA3891B1823F4D6
S315020049188053ACBF6365A38110BD2DE9F0411F46E4
S315020049288B8905460C46DB05164605D50223002269
S31502004938B1F90E1000F0D4F8A3893246B4F90E1074
S31502004948284623F48053A3813B46BDE8F04100F094
S31502004958EBB810B50C46B1F90E1000F0C1F8431CBD
S31502004968A38915BF606523F4805343F48053A3815A
S3150200497818BFA38110BDB1F90E1000F0A1B8F8B5A1
S315020049880E461446054618B1036A0BB9FFF706FF29
S31502004998A369A360A3891A0701D5236943B92146E6
S315020049A8284600F02BF818B14FF0FF373846F8BD05
S315020049B82368F6B222693746981A6369834205DC88
S315020049C82146284601F012FD0028EDD1A368013BD5
S315020049D8A36023685A1C22601E70431C62699A42AD
S315020049E804D0A389DB07E1D50A2EDFD12146284662
S315020049F801F0FCFC0028D9D0D6E7000038B5294BCF
S31502004A0805460C46186818B1036A0BB9FFF7C6FEC5
S31502004A18B4F90C30190722D4DA0607D409222A6017
S31502004A2843F040034FF0FF30A38133E0580712D515
S31502004A38616B41B104F14403994202D0284600F061
S31502004A488DFE00236363A38923F02403A381002335
S31502004A58636023692360A38943F00803A38123695A
S31502004A684BB9A38903F42073B3F5007F03D021461B
S31502004A78284601F008FDB4F90C3013F001020AD0F9
S31502004A880022A26062695242A261226942B913F007
S31502004A988000C5D138BD990758BF6269A260F4E79C
S31502004AA80020F7E71000002202440346934200D191
S31502004AB8704703F8011BF9E70048704750010022C6
S31502004AC838B50023054D044608462B6001F0B2FDB1
S31502004AD8431C02D12B6803B1236038BD208400220F
S31502004AE838B50446064D0846114600222A601A467B
S31502004AF801F0B8FD431C02D12B6803B1236038BD0F
S31502004B082084002238B50446064D0846114600227E
S31502004B182A601A4601F0AEFD431C02D12B6803B186
S31502004B28236038BD2084002238B50446064D08465F
S31502004B38114600222A601A46FDF73AFE431C02D1A4
S31502004B482B6803B1236038BD20840022014B186804
S31502004B58704700BF10000022704770477047C9B2FD
S31502004B680346024410B59342184601D1002003E0D9
S31502004B78047801338C42F6D110BD0A44431E914291
S31502004B8800D1704710B511F8014B914203F8014F55
S31502004B98F9D110BD034613F8012B002AFBD1181AC6
S31502004BA8013870472DE9F74F036907460C69A34296
S31502004BB8C0F28380013C00F1140501F11408A30038
S31502004BC855F8242008EB8409009305EB8403019326
S31502004BD858F8243001339A42B2FBF3F631D34FF038
S31502004BE8000AC446AE46D3465CF8043B98B2E14591
S31502004BF84FEA134306FB00A04FEA104280B206FBB7
S31502004C080323DEF8002092B24FEA134AA2EB00020F
S31502004C189BB2DEF800005A44C3EB224392B203EB7E
S31502004C28104342EA03424FEA234B4EF8042BDBD2E7
S31502004C38009BEB582BB9019B043B9D421A4630D385
S31502004C483C61384601F000F9002826DB2946002097
S31502004C5858F8042BD1F800C01FFA82FEC1451FFA84
S31502004C688CF34FEA1242A3EB0E030344C2EB234230
S31502004C789BB202EB1C4243EA02434FEA224041F846
S31502004C88043BE5D255F8242005EB840322B9043BFC
S31502004C989D421A460BD33C610136304603B0BDE845
S31502004CA8F08F1268043B002ACAD1013CC5E7126894
S31502004CB8043B002AEFD1013CEAE70020EEE70000B8
S31502004CC82DE9F04FC76981462DED028B91B055EC5F
S31502004CD8104B1C9E069109920C938DED020B7FB91F
S31502004CE8102000F085FD0246C9F81C0020B99E4B2B
S31502004CF8EF219E48FEF7F8FDC0E901770760C76015
S31502004D08D9F81C30196859B15A68012348469340A4
S31502004D184A608B6000F062FED9F81C3000221A60E5
S31502004D282B1EB7BF23F00043002301220393ACBF17
S31502004D38336032608E4B039EB34310D142F20F7337
S31502004D480C9A1360C6F31303234300F0D5841D9B04
S31502004D58884F002B00F0D784FB1C00F0D2BC9DEDD7
S31502004D68028BB5EE408BF1EE10FA0AD101230C9AAA
S31502004D7813601D9B13B1804B1D9A13607F4F00F081
S31502004D88C2BC0EAAB0EE480B0FA9484601F010F9AC
S31502004D98C6F30A530E9A0190002B45D018EE901AC4
S31502004DA8B0EE487BA3F2FF330025C1F3130141F0AD
S31502004DB87F5141F44011B7EE086B07EE901A9FED4A
S31502004DC8645B37EE467B9FED646BA7EE056B07EED9
S31502004DD8903AB8EEE74B9FED625BB0EE467BA4EEE7
S31502004DE8057BB5EEC07BFDEEC76BF1EE10FA16EE4B
S31502004DF8908A08D5B8EEE66BB4EE476BF1EE10FA78
S31502004E0818BF08F1FF38B8F1160F2DD85C4901EB27
S31502004E18C80191ED007BB4EEC78BF1EE10FA01D50D
S31502004E2808F1FF38002120E00F9B0125134403F205
S31502004E3832412029C9BFC1F14001C1F120018E408A
S31502004E4803F21241D8BF04FA01F103F1FF33C4BFDA
S31502004E5824FA01F1314307EE901AB8EE677B17EE92
S31502004E68901AA1F1F871A6E70121D21A0B91531EE5
S31502004E78059345BFC2F10103002200230592B8F14A
S31502004E88000F17DB059ACDF82880424405920022C6
S31502004E980792069A092A42D8052AC5BF043A002467
S31502004EA801240692069A023A032A43D8DFE802F058
S31502004EB83335160AC8F10002A3EB0803079200224B
S31502004EC80A92E6E701220892099A08EB020B0BF10D
S31502004ED8010A5246012AB8BF012206E001220892B7
S31502004EE8099A002A29DD93469246D9F81C700021B0
S31502004EF8042000F11406964226D97960484604939E
S31502004F0800F02CFD049B074600283DD11D4B0246A6
S31502004F1840F2AF11EDE60022E1E70022D3E70124D1
S31502004F280022089406924FF0FF3B00211222DA462D
S31502004F380991DAE701220892F5E74FF0010BDA4602
S31502004F485A46CDF824B0D0E701314000D1E700BF78
S31502004F5861436F63A787D23FB3C8608B288AC63F6F
S31502004F68FB799F501344D33F0F7500022675000242
S31502004F780000F07F0B750002DF740002DE74000287
S31502004F88407600027F750002D9F81C20BAF10E0F8E
S31502004F9810606ED8002C6CD0B8F1000F40F3B480C4
S31502004FA808F00F01C74A18F4807F02EBC1024FEAE4
S31502004FB8281192ED007B00F09B80C34A01F00F0195
S31502004FC892ED086B032288EE066B8DED026BBE48E6
S31502004FD8002940F08F809DED026B86EE077B8DEDF2
S31502004FE8027B0B999DED027B002900F0B380B7EE98
S31502004FF8006BB4EEC67BF1EE10FA40F1AB80BAF163
S31502005008000F00F0A780BBF1000F30DDB2EE046B93
S3150200501808F1FF3101325C46049127EE067B8DEDDD
S31502005028027B07EE902AB1EE0C5B9DED026BB8EEA1
S31502005038E77BA7EE065B15EE902A51EC150BA2F15B
S315020050485071002C40F08A80B1EE047B36EE476B35
S3150200505841EC170BB4EEC76BF1EE10FA00F35D8262
S31502005068B1EE477BB4EEC76BF1EE10FA23D48DEDA1
S31502005078028B0F990029C0F22981B8F10E0F00F3AD
S315020050882581904B03EBC80393ED006B099B002B1C
S3150200509880F2C880BAF1000F00F3C4800BD1B1EEDA
S315020050A8047B26EE076B9DED027BB4EEC76BF1EE31
S315020050B810FAC0F22F8200242546099B3E46DB439E
S315020050C804934FF000082146484600F087FC002D5D
S315020050D800F0A280B8F1000F05D0A84503D04146DA
S315020050E8484600F07BFC2946484600F077FC93E0E8
S315020050F802226CE7CC0704D5013290ED006B27EE4D
S31502005108067B4910083063E722D0C8F100016D4AD0
S31502005118002401F00F00091102EBC0026A4892ED61
S31502005128007B022228EE077B8DED027B29B9002C33
S315020051383FF457AF8DED027B53E7CE0705D5013213
S31502005148012490ED006B27EE067B49100830EDE747
S31502005158022246E75446CDF8108062E7594A02EB26
S31502005168C4023C4412ED024B089A41EC170B4AB3AF
S31502005178B6EE003B3E46B7EE002B83EE045BB2EE7C
S31502005188043B35EE477BFDEEC64BB8EEE45B14EE08
S31502005198902A303236EE456B06F8012BB4EEC76B11
S315020051A8F1EE10FA38D432EE465BB4EEC75BF1EE96
S315020051B810FA6ED4A6423FF45AAF27EE037B26EEC8
S315020051C8036BE0E727EE047B21463E46B2EE043B3C
S315020051D8FDEEC64B14EE902AB8EEE45B303236EE9C
S315020051E8456B06F8012BA64219D1B6EE005B37EEDF
S315020051F8054BB4EEC46BF1EE10FA4ADC35EE475BAA
S31502005208B4EEC56BF1EE10FA7FF531AF0E460139F1
S3150200521816F8013C302BF9D0DDF8108027E026EE8F
S31502005228036BD5E79DED027BB2EE044B3E4687EE55
S31502005238065BBDEEC55B15EE103AB8EEC53B3033DC
S31502005248A3EE467B06F8013BF31B9A4532D137EEAD
S31502005258077BB4EEC67BF1EE10FA18DCB4EE467B99
S31502005268F1EE10FA03D115EE103ADB070FD40199C5
S31502005278484600F0B3FB00230C9A337008F1010389
S3150200528813601D9B002B00F03E821E603BE2CDF8A8
S31502005298108033461E4613F8012D392A06D19F423D
S315020052A8F8D1049A0132049230223A701A780132FD
S315020052B81A70B1E727EE047BB5EE407BF1EE10FAE1
S315020052C8B5D1D4E74076000218760002089A002A79
S315020052D800F0E580069A012A00F3C680002D00F048
S315020052E8BF8001F23341079C1E460B44484604938D
S315020052F8059B0B440121059300F026FC049B0546F9
S3150200530856B1059A002A07DDB2420599A8BF324668
S315020053189B1AB61A8A1A0592079A12B3089A002A8B
S3150200532800F0C1809CB12946224648460D9300F0FA
S31502005338C5FC019A01460546484600F01BFC019940
S315020053480490484600F04AFB049A0D9B0192079A7C
S31502005358121B06D004930199484600F0AFFC049B41
S31502005368019001214846049300F0EEFB0A9A04468E
S31502005378049B002A00F0CD810146484600F09EFCB7
S31502005388069B0446012B049B00F39480029A002A8A
S3150200539840F08C80039AC2F31302002A40F08880F8
S315020053A8039A22F00042120D120522B1059A013320
S315020053B801320592012207920A9A002A00F0AF8169
S315020053C82269049304EB8202106900F071FB049BC4
S315020053D8C0F12000059A104410F01F0075D0C0F1E4
S315020053E82002042A69DDC0F11C00059A034402441E
S315020053F806440592002B05DD1A460199484600F037
S31502005408B7FC0190059B002B05DD21461A46484646
S3150200541800F0AEFC04460B9B002B58D0214601989F
S3150200542800F012FD002852DA08F1FF330A22019928
S3150200543848460493002300F0F3FA089B0190002BD8
S3150200544800F06F81294600230A22484600F0E8FA4E
S31502005458BBF1000F054666DC069B022B40DC62E0C8
S315020054680E99C1F136013EE70AF1FF34079AA242C4
S3150200547807DBBAF1000FA2EB04040CDB1E46514609
S3150200548833E7079A1E460A99A21A0794002411447A
S315020054980A91514629E7A3EB0A06002125E7079C4C
S315020054A81E46089D2CE7079A049354E7002282E7D2
S315020054B8029A80E70022079282E79BD01C3205995E
S315020054C8114413441644059194E70246F6E7BAF1E5
S315020054D8000FD346CDF8108021DC069B022B1EDD79
S315020054E8BBF1000F7FF4E9AD21465B46052248462B
S315020054F800F096FA01460446019800F0A5FC002839
S315020055087FF7DBAD31233E4606F8013B049B0133A8
S315020055180493D6E55446CDF810802546F2E7089B53
S31502005528002B00F00281002E05DD29463246484648
S3150200553800F01EFC0546079B002B58D069684846B2
S3150200554800F00CFA064628B9824B024640F2EF21D1
S31502005558FFF7CFBB2A6905F10C010C300232920023
S31502005568FFF70BFB01223146484600F001FC7B1C83
S31502005578A8460546059307EB0B030993029B03F01E
S3150200558801030893059B2146019803F1FF3BFFF7A8
S3150200559809FB4146029000F1300A019800F054FCDA
S315020055A82A4607902146484600F06AFCC268064623
S315020055B8FAB90146019800F047FC024631464846C8
S315020055C80A9200F00BFA0A9ADDE9056342EA030138
S315020055D8089B19430FD1BAF1390F28D0079B002B24
S315020055E802DD029B03F1310A8BF800A06BE528461F
S315020055F8BDE70122E2E7079B002B04DB06990B4372
S3150200560808990B4320D1002AEEDD0122019948466A
S3150200561800F0AEFB2146019000F016FC002803DCE0
S31502005628E2D11AF0010FDFD0BAF1390FD9D13923F5
S315020056388BF8003033461E46013B16F8012C392AF0
S3150200564852D001321A703EE5002A07DDBAF1390F47
S31502005658EDD00AF101038BF8003034E5059B099A6F
S3150200566803F801AC934229D000230A22019948463D
S3150200567800F0D6F9A84501904FF000034FF00A0250
S315020056884146484607D100F0CBF980460546059BB8
S315020056980133059376E700F0C3F9294680460023CD
S315020056A80A22484600F0BCF90546F0E7BBF1000FAE
S315020056B84FF00008CCBF5E4601263E4401220199FE
S315020056C8484600F055FB2146019000F0BDFB002834
S315020056D8B0DC02D11AF0010FACD133461E4613F8DC
S315020056E8012D302AFAD0EEE49F42A4D1049B01335D
S315020056F8049331233B70E6E41D9B174F1BB107F158
S3150200570808031D9A1360384611B0BDEC028BBDE83A
S31502005718F08F069A012A7FF739AE0A9A0792012074
S3150200572858E6BBF1000F7FF7D8AE3E4621460198F0
S31502005738FFF738FA00F1300A06F801ABF21B934577
S31502005748B4DD00230A220199484600F069F901905E
S31502005758ECE700BF7F7500020275000238B5054600
S31502005768002941D051F8043C0C1F002BB8BFE4189D
S3150200577800F0E8F81D4A136833B9636014602846D6
S31502005788BDE8384000F0E4B8A34208D920682118D9
S315020057988B4201BF19685B6809182160EDE71A4652
S315020057A85B680BB1A342FAD911685018A0420BD113
S315020057B820680144501811608342E0D118685B687A
S315020057C8084453601060DAE702D90C232B60D6E747
S315020057D8206821188B4202BF19685B680918636042
S315020057E808BF21605460CAE738BD00BF2C84002276
S315020057F8024B0146186800F025B800BF10000022C7
S3150200580870B50F4E0C460546316811B900F0CEFE4A
S3150200581830602146284600F0C9FE431C03D14FF0EA
S31502005828FF34204670BDC41C24F00304A042F8D0FD
S31502005838211A284600F0BAFE0130F2D1EFE700BF7E
S31502005848288400222DE9F843CD1C064625F00305D7
S3150200585808350C2D38BF0C25002D01DBA94204D9C9
S315020058680C2333600020BDE8F883DFF8D48000F00B
S3150200587869F8D8F800301C4644BB29463046FFF77B
S31502005888BFFF431C044658D1D8F800402746002FCC
S3150200589843D1002C4BD023683946304604EB030922
S315020058A800F084FE814542D1216830466D1A2946A8
S315020058B8FFF7A6FF01303AD023682B442360D8F8B5
S315020058C800305A6862BBC8F800700FE02268521BA3
S315020058D820D40B2A17D96119A342256018BF59602B
S315020058E8636808BFC8F8001062514B60304600F082
S315020058F82FF804F10B00231D20F00700C21A1CBF63
S315020059081B1AA350AFE76268A3420CBFC8F800206F
S315020059185A60EBE723466468AEE73C467F68B6E71B
S315020059281A465B68A342FBD100235360DEE70C23C9
S315020059383046336000F00CF894E70560D6E700BFFE
S315020059482C8400220148FFF708B900BF24840022EC
S315020059580148FFF703B900BF2484002270B5C6695F
S3150200596804460D4676B91020FFF742FF0246E0616B
S3150200597820B9184B6B211848FDF7B6FFC0E9016636
S315020059880660C660E669F36883B1E369DB6853F8C3
S315020059982500B8B90121204601FA05F6721D9200C2
S315020059A800F014FE60B1C0E901560EE0212204217E
S315020059B8204600F00BFEE369F060DB68002BE4D1B9
S315020059C8002070BD026843F825200023C0E903338E
S315020059D8F7E700BF0F7500029075000270B5C66939
S315020059E805460C4676B91020FFF702FF0246E86123
S315020059F820B9094B8F210948FDF776FFC0E90166F0
S31502005A080660C6603CB1EB696268DB6853F822102F
S31502005A18216043F8224070BD0F750002907500029E
S31502005A282DE9F04101F1140C07460C461E460D6994
S31502005A380020DCF80030013099B2854202FB016190
S31502005A484FEA13464FEA114389B202FB063301EBCA
S31502005A5803414FEA13464CF8041BEADC0EB3A3686B
S31502005A68AB4219DC616838460131FFF777FF804699
S31502005A7828B902460C4BBA210C48FDF735FF2269B4
S31502005A8804F10C010C3002329200FFF776F8214637
S31502005A9844463846FFF7A2FF04EB850301355E61EB
S31502005AA825612046BDE8F0817F75000290750002E7
S31502005AB8B0F5803F034636BF030400201020B3F139
S31502005AC8807F3CBF1B020830B3F1805F3CBF1B01DD
S31502005AD80430B3F1804F3CBF9B000230002B05DB3C
S31502005AE813F0804F00F1010008BF202070470368B9
S31502005AF8024613F007000BD0D90721D4980747BFEF
S31502005B085B0801209B0802204CBF13601360704794
S31502005B1899B209B91B0C1020D9B209B908301B0A67
S31502005B28190704BF1B090430990704BF9B080230F2
S31502005B38D90703D45B0800F1010003D0136070474C
S31502005B48002070472020704710B50C460121FFF748
S31502005B5805FF024628B9054B40F245110448FDF7F0
S31502005B68C3FE01234461036110BD00BF7F750002B5
S31502005B78907500022DE9F04F17460A69894685B0E5
S31502005B883B699A42A2BF3B460F4699463D69BB68A6
S31502005B98D9F810A0796805EB0A06B342B8BF0131F5
S31502005BA8FFF7DCFE30B90246424B4FF4B171424868
S31502005BB8FDF79AFE00F11404002204EB860E234632
S31502005BC8734520D307F1140809F1140108EB85057A
S31502005BD801EB8A030293EB1B1537153B23F00303EC
S31502005BE80433BD4238BF04230193029B03918B42BF
S31502005BF80CD8002E03DD5EF8043D002B57D0066153
S31502005C0805B0BDE8F08F43F8042BD9E7B1F800A038
S31502005C18BAF1000F21D0C446A14600275CF8042B2E
S31502005C28D9F800301FFA82FB65459BB24FEA124249
S31502005C380AFB0B333B44D9F800704FEA17470AFBB5
S31502005C48027202EB13429BB24FEA124743EA02433D
S31502005C5849F8043BE2D8019BE750039B0431B3F8A9
S31502005C680290B9F1000F20D023684746A4464FF0A8
S31502005C78000AB7F800B09BB2BCF8022009FB0B2257
S31502005C88524443EA02434CF8043B57F8043B4FEAB2
S31502005C98134ABCF80030BD4209FB0A3303EB124330
